{
  "_format": "hh-sol-artifact-1",
  "contractName": "StakingVault",
  "sourceName": "contracts/StakingVault.sol",
  "abi": [
    {
      "inputs": [
        {
          "internalType": "address",
          "name": "_codeToken",
          "type": "address"
        }
      ],
      "stateMutability": "nonpayable",
      "type": "constructor"
    },
    {
      "inputs": [],
      "name": "InvalidShortString",
      "type": "error"
    },
    {
      "inputs": [
        {
          "internalType": "string",
          "name": "str",
          "type": "string"
        }
      ],
      "name": "StringTooLong",
      "type": "error"
    },
    {
      "anonymous": false,
      "inputs": [
        {
          "indexed": true,
          "internalType": "address",
          "name": "owner",
          "type": "address"
        },
        {
          "indexed": true,
          "internalType": "address",
          "name": "spender",
          "type": "address"
        },
        {
          "indexed": false,
          "internalType": "uint256",
          "name": "value",
          "type": "uint256"
        }
      ],
      "name": "Approval",
      "type": "event"
    },
    {
      "anonymous": false,
      "inputs": [
        {
          "indexed": true,
          "internalType": "address",
          "name": "delegator",
          "type": "address"
        },
        {
          "indexed": true,
          "internalType": "address",
          "name": "fromDelegate",
          "type": "address"
        },
        {
          "indexed": true,
          "internalType": "address",
          "name": "toDelegate",
          "type": "address"
        }
      ],
      "name": "DelegateChanged",
      "type": "event"
    },
    {
      "anonymous": false,
      "inputs": [
        {
          "indexed": true,
          "internalType": "address",
          "name": "delegate",
          "type": "address"
        },
        {
          "indexed": false,
          "internalType": "uint256",
          "name": "previousBalance",
          "type": "uint256"
        },
        {
          "indexed": false,
          "internalType": "uint256",
          "name": "newBalance",
          "type": "uint256"
        }
      ],
      "name": "DelegateVotesChanged",
      "type": "event"
    },
    {
      "anonymous": false,
      "inputs": [],
      "name": "EIP712DomainChanged",
      "type": "event"
    },
    {
      "anonymous": false,
      "inputs": [
        {
          "indexed": true,
          "internalType": "address",
          "name": "user",
          "type": "address"
        },
        {
          "indexed": false,
          "internalType": "uint256",
          "name": "amount",
          "type": "uint256"
        }
      ],
      "name": "Stake",
      "type": "event"
    },
    {
      "anonymous": false,
      "inputs": [
        {
          "indexed": true,
          "internalType": "address",
          "name": "from",
          "type": "address"
        },
        {
          "indexed": true,
          "internalType": "address",
          "name": "to",
          "type": "address"
        },
        {
          "indexed": false,
          "internalType": "uint256",
          "name": "value",
          "type": "uint256"
        }
      ],
      "name": "Transfer",
      "type": "event"
    },
    {
      "anonymous": false,
      "inputs": [
        {
          "indexed": true,
          "internalType": "address",
          "name": "user",
          "type": "address"
        },
        {
          "indexed": false,
          "internalType": "uint256",
          "name": "amount",
          "type": "uint256"
        }
      ],
      "name": "Unstake",
      "type": "event"
    },
    {
      "inputs": [],
      "name": "CLOCK_MODE",
      "outputs": [
        {
          "internalType": "string",
          "name": "",
          "type": "string"
        }
      ],
      "stateMutability": "view",
      "type": "function"
    },
    {
      "inputs": [],
      "name": "DOMAIN_SEPARATOR",
      "outputs": [
        {
          "internalType": "bytes32",
          "name": "",
          "type": "bytes32"
        }
      ],
      "stateMutability": "view",
      "type": "function"
    },
    {
      "inputs": [
        {
          "internalType": "address",
          "name": "owner",
          "type": "address"
        },
        {
          "internalType": "address",
          "name": "spender",
          "type": "address"
        }
      ],
      "name": "allowance",
      "outputs": [
        {
          "internalType": "uint256",
          "name": "",
          "type": "uint256"
        }
      ],
      "stateMutability": "view",
      "type": "function"
    },
    {
      "inputs": [
        {
          "internalType": "address",
          "name": "spender",
          "type": "address"
        },
        {
          "internalType": "uint256",
          "name": "amount",
          "type": "uint256"
        }
      ],
      "name": "approve",
      "outputs": [
        {
          "internalType": "bool",
          "name": "",
          "type": "bool"
        }
      ],
      "stateMutability": "nonpayable",
      "type": "function"
    },
    {
      "inputs": [
        {
          "internalType": "address",
          "name": "account",
          "type": "address"
        }
      ],
      "name": "balanceOf",
      "outputs": [
        {
          "internalType": "uint256",
          "name": "",
          "type": "uint256"
        }
      ],
      "stateMutability": "view",
      "type": "function"
    },
    {
      "inputs": [
        {
          "internalType": "address",
          "name": "account",
          "type": "address"
        },
        {
          "internalType": "uint32",
          "name": "pos",
          "type": "uint32"
        }
      ],
      "name": "checkpoints",
      "outputs": [
        {
          "components": [
            {
              "internalType": "uint32",
              "name": "fromBlock",
              "type": "uint32"
            },
            {
              "internalType": "uint224",
              "name": "votes",
              "type": "uint224"
            }
          ],
          "internalType": "struct ERC20Votes.Checkpoint",
          "name": "",
          "type": "tuple"
        }
      ],
      "stateMutability": "view",
      "type": "function"
    },
    {
      "inputs": [],
      "name": "clock",
      "outputs": [
        {
          "internalType": "uint48",
          "name": "",
          "type": "uint48"
        }
      ],
      "stateMutability": "view",
      "type": "function"
    },
    {
      "inputs": [],
      "name": "codeToken",
      "outputs": [
        {
          "internalType": "contract CodeDAOToken",
          "name": "",
          "type": "address"
        }
      ],
      "stateMutability": "view",
      "type": "function"
    },
    {
      "inputs": [],
      "name": "decimals",
      "outputs": [
        {
          "internalType": "uint8",
          "name": "",
          "type": "uint8"
        }
      ],
      "stateMutability": "view",
      "type": "function"
    },
    {
      "inputs": [
        {
          "internalType": "address",
          "name": "spender",
          "type": "address"
        },
        {
          "internalType": "uint256",
          "name": "subtractedValue",
          "type": "uint256"
        }
      ],
      "name": "decreaseAllowance",
      "outputs": [
        {
          "internalType": "bool",
          "name": "",
          "type": "bool"
        }
      ],
      "stateMutability": "nonpayable",
      "type": "function"
    },
    {
      "inputs": [
        {
          "internalType": "address",
          "name": "delegatee",
          "type": "address"
        }
      ],
      "name": "delegate",
      "outputs": [],
      "stateMutability": "nonpayable",
      "type": "function"
    },
    {
      "inputs": [
        {
          "internalType": "address",
          "name": "delegatee",
          "type": "address"
        },
        {
          "internalType": "uint256",
          "name": "nonce",
          "type": "uint256"
        },
        {
          "internalType": "uint256",
          "name": "expiry",
          "type": "uint256"
        },
        {
          "internalType": "uint8",
          "name": "v",
          "type": "uint8"
        },
        {
          "internalType": "bytes32",
          "name": "r",
          "type": "bytes32"
        },
        {
          "internalType": "bytes32",
          "name": "s",
          "type": "bytes32"
        }
      ],
      "name": "delegateBySig",
      "outputs": [],
      "stateMutability": "nonpayable",
      "type": "function"
    },
    {
      "inputs": [
        {
          "internalType": "address",
          "name": "account",
          "type": "address"
        }
      ],
      "name": "delegates",
      "outputs": [
        {
          "internalType": "address",
          "name": "",
          "type": "address"
        }
      ],
      "stateMutability": "view",
      "type": "function"
    },
    {
      "inputs": [],
      "name": "eip712Domain",
      "outputs": [
        {
          "internalType": "bytes1",
          "name": "fields",
          "type": "bytes1"
        },
        {
          "internalType": "string",
          "name": "name",
          "type": "string"
        },
        {
          "internalType": "string",
          "name": "version",
          "type": "string"
        },
        {
          "internalType": "uint256",
          "name": "chainId",
          "type": "uint256"
        },
        {
          "internalType": "address",
          "name": "verifyingContract",
          "type": "address"
        },
        {
          "internalType": "bytes32",
          "name": "salt",
          "type": "bytes32"
        },
        {
          "internalType": "uint256[]",
          "name": "extensions",
          "type": "uint256[]"
        }
      ],
      "stateMutability": "view",
      "type": "function"
    },
    {
      "inputs": [
        {
          "internalType": "uint256",
          "name": "timepoint",
          "type": "uint256"
        }
      ],
      "name": "getPastTotalSupply",
      "outputs": [
        {
          "internalType": "uint256",
          "name": "",
          "type": "uint256"
        }
      ],
      "stateMutability": "view",
      "type": "function"
    },
    {
      "inputs": [
        {
          "internalType": "address",
          "name": "account",
          "type": "address"
        },
        {
          "internalType": "uint256",
          "name": "timepoint",
          "type": "uint256"
        }
      ],
      "name": "getPastVotes",
      "outputs": [
        {
          "internalType": "uint256",
          "name": "",
          "type": "uint256"
        }
      ],
      "stateMutability": "view",
      "type": "function"
    },
    {
      "inputs": [
        {
          "internalType": "address",
          "name": "user",
          "type": "address"
        }
      ],
      "name": "getUserTier",
      "outputs": [
        {
          "internalType": "string",
          "name": "",
          "type": "string"
        }
      ],
      "stateMutability": "view",
      "type": "function"
    },
    {
      "inputs": [
        {
          "internalType": "address",
          "name": "account",
          "type": "address"
        }
      ],
      "name": "getVotes",
      "outputs": [
        {
          "internalType": "uint256",
          "name": "",
          "type": "uint256"
        }
      ],
      "stateMutability": "view",
      "type": "function"
    },
    {
      "inputs": [
        {
          "internalType": "address",
          "name": "user",
          "type": "address"
        },
        {
          "internalType": "uint256",
          "name": "minAmount",
          "type": "uint256"
        }
      ],
      "name": "hasMinStake",
      "outputs": [
        {
          "internalType": "bool",
          "name": "",
          "type": "bool"
        }
      ],
      "stateMutability": "view",
      "type": "function"
    },
    {
      "inputs": [
        {
          "internalType": "address",
          "name": "spender",
          "type": "address"
        },
        {
          "internalType": "uint256",
          "name": "addedValue",
          "type": "uint256"
        }
      ],
      "name": "increaseAllowance",
      "outputs": [
        {
          "internalType": "bool",
          "name": "",
          "type": "bool"
        }
      ],
      "stateMutability": "nonpayable",
      "type": "function"
    },
    {
      "inputs": [],
      "name": "name",
      "outputs": [
        {
          "internalType": "string",
          "name": "",
          "type": "string"
        }
      ],
      "stateMutability": "view",
      "type": "function"
    },
    {
      "inputs": [
        {
          "internalType": "address",
          "name": "owner",
          "type": "address"
        }
      ],
      "name": "nonces",
      "outputs": [
        {
          "internalType": "uint256",
          "name": "",
          "type": "uint256"
        }
      ],
      "stateMutability": "view",
      "type": "function"
    },
    {
      "inputs": [
        {
          "internalType": "address",
          "name": "account",
          "type": "address"
        }
      ],
      "name": "numCheckpoints",
      "outputs": [
        {
          "internalType": "uint32",
          "name": "",
          "type": "uint32"
        }
      ],
      "stateMutability": "view",
      "type": "function"
    },
    {
      "inputs": [
        {
          "internalType": "address",
          "name": "owner",
          "type": "address"
        },
        {
          "internalType": "address",
          "name": "spender",
          "type": "address"
        },
        {
          "internalType": "uint256",
          "name": "value",
          "type": "uint256"
        },
        {
          "internalType": "uint256",
          "name": "deadline",
          "type": "uint256"
        },
        {
          "internalType": "uint8",
          "name": "v",
          "type": "uint8"
        },
        {
          "internalType": "bytes32",
          "name": "r",
          "type": "bytes32"
        },
        {
          "internalType": "bytes32",
          "name": "s",
          "type": "bytes32"
        }
      ],
      "name": "permit",
      "outputs": [],
      "stateMutability": "nonpayable",
      "type": "function"
    },
    {
      "inputs": [
        {
          "internalType": "uint256",
          "name": "amount",
          "type": "uint256"
        }
      ],
      "name": "stake",
      "outputs": [],
      "stateMutability": "nonpayable",
      "type": "function"
    },
    {
      "inputs": [],
      "name": "symbol",
      "outputs": [
        {
          "internalType": "string",
          "name": "",
          "type": "string"
        }
      ],
      "stateMutability": "view",
      "type": "function"
    },
    {
      "inputs": [],
      "name": "totalSupply",
      "outputs": [
        {
          "internalType": "uint256",
          "name": "",
          "type": "uint256"
        }
      ],
      "stateMutability": "view",
      "type": "function"
    },
    {
      "inputs": [
        {
          "internalType": "address",
          "name": "to",
          "type": "address"
        },
        {
          "internalType": "uint256",
          "name": "amount",
          "type": "uint256"
        }
      ],
      "name": "transfer",
      "outputs": [
        {
          "internalType": "bool",
          "name": "",
          "type": "bool"
        }
      ],
      "stateMutability": "nonpayable",
      "type": "function"
    },
    {
      "inputs": [
        {
          "internalType": "address",
          "name": "from",
          "type": "address"
        },
        {
          "internalType": "address",
          "name": "to",
          "type": "address"
        },
        {
          "internalType": "uint256",
          "name": "amount",
          "type": "uint256"
        }
      ],
      "name": "transferFrom",
      "outputs": [
        {
          "internalType": "bool",
          "name": "",
          "type": "bool"
        }
      ],
      "stateMutability": "nonpayable",
      "type": "function"
    },
    {
      "inputs": [
        {
          "internalType": "uint256",
          "name": "amount",
          "type": "uint256"
        }
      ],
      "name": "unstake",
      "outputs": [],
      "stateMutability": "nonpayable",
      "type": "function"
    }
  ],
  "bytecode": "0x6101806040523480156200001257600080fd5b50604051620030d7380380620030d783398101604081905262000035916200024d565b6040518060400160405280601481526020017f5374616b656420436f646544414f20546f6b656e00000000000000000000000081525080604051806040016040528060018152602001603160f81b8152506040518060400160405280601481526020017f5374616b656420436f646544414f20546f6b656e0000000000000000000000008152506040518060400160405280600581526020016473434f444560d81b8152508160039081620000eb919062000324565b506004620000fa828262000324565b506200010c91508390506005620001c8565b610120526200011d816006620001c8565b61014052815160208084019190912060e052815190820120610100524660a052620001ab60e05161010051604080517f8b73c3c69bb8fe3d512ecc4cf759cc79239f7b179b0ffacaa9a75d522b39400f60208201529081019290925260608201524660808201523060a082015260009060c00160405160208183030381529060405280519060200120905090565b60805250503060c052506001600160a01b03166101605262000465565b6000602083511015620001e857620001e08362000201565b9050620001fb565b81620001f5848262000324565b5060ff90505b92915050565b600080829050601f8151111562000238578260405163305a27a960e01b81526004016200022f9190620003f0565b60405180910390fd5b8051620002458262000440565b179392505050565b6000602082840312156200026057600080fd5b81516001600160a01b03811681146200027857600080fd5b9392505050565b634e487b7160e01b600052604160045260246000fd5b600181811c90821680620002aa57607f821691505b602082108103620002cb57634e487b7160e01b600052602260045260246000fd5b50919050565b601f8211156200031f57600081815260208120601f850160051c81016020861015620002fa5750805b601f850160051c820191505b818110156200031b5782815560010162000306565b5050505b505050565b81516001600160401b038111156200034057620003406200027f565b620003588162000351845462000295565b84620002d1565b602080601f831160018114620003905760008415620003775750858301515b600019600386901b1c1916600185901b1785556200031b565b600085815260208120601f198616915b82811015620003c157888601518255948401946001909101908401620003a0565b5085821015620003e05787850151600019600388901b60f8161c191681555b5050505050600190811b01905550565b600060208083528351808285015260005b818110156200041f5785810183015185820160400152820162000401565b506000604082860101526040601f19601f8301168501019250505092915050565b80516020808301519190811015620002cb5760001960209190910360031b1b16919050565b60805160a05160c05160e05161010051610120516101405161016051612bfe620004d96000396000818161038d015281816106d70152610cb6015260006109c60152600061099b0152600061171b015260006116f30152600061164e01526000611678015260006116a20152612bfe6000f3fe608060405234801561001057600080fd5b50600436106101da5760003560e01c806384b0196e11610104578063a694fc3a116100a2578063dd62ed3e11610071578063dd62ed3e14610448578063e4d2620e14610481578063eaccb43f14610494578063f1127ed8146104c257600080fd5b8063a694fc3a146103fc578063a9059cbb1461040f578063c3cda52014610422578063d505accf1461043557600080fd5b806391ddadf4116100de57806391ddadf4146103af57806395d89b41146103ce5780639ab24eb0146103d6578063a457c2d7146103e957600080fd5b806384b0196e1461035a5780638e539e8c14610375578063904d20221461038857600080fd5b8063395093511161017c5780635c19a95c1161014b5780635c19a95c146102e35780636fcfff45146102f657806370a082311461031e5780637ecebe001461034757600080fd5b806339509351146102715780633a46b1a8146102845780634bf5d7e914610297578063587cde1e1461029f57600080fd5b806323b872dd116101b857806323b872dd146102325780632e17de7814610245578063313ce5671461025a5780633644e5151461026957600080fd5b806306fdde03146101df578063095ea7b3146101fd57806318160ddd14610220575b600080fd5b6101e7610514565b6040516101f4919061277c565b60405180910390f35b61021061020b3660046127ab565b6105a6565b60405190151581526020016101f4565b6002545b6040519081526020016101f4565b6102106102403660046127d5565b6105c0565b610258610253366004612811565b6105e4565b005b604051601281526020016101f4565b6102246107d1565b61021061027f3660046127ab565b6107e0565b6102246102923660046127ab565b61081f565b6101e76108a8565b6102cb6102ad36600461282a565b6001600160a01b039081166000908152600960205260409020541690565b6040516001600160a01b0390911681526020016101f4565b6102586102f136600461282a565b610940565b61030961030436600461282a565b61094d565b60405163ffffffff90911681526020016101f4565b61022461032c36600461282a565b6001600160a01b031660009081526020819052604090205490565b61022461035536600461282a565b61096f565b61036261098d565b6040516101f49796959493929190612845565b610224610383366004612811565b610a32565b6102cb7f000000000000000000000000000000000000000000000000000000000000000081565b6103b7610a9d565b60405165ffffffffffff90911681526020016101f4565b6101e7610aa8565b6102246103e436600461282a565b610ab7565b6102106103f73660046127ab565b610b81565b61025861040a366004612811565b610c2b565b61021061041d3660046127ab565b610db3565b610258610430366004612908565b610dc1565b610258610443366004612960565b610ef7565b6102246104563660046129ca565b6001600160a01b03918216600090815260016020908152604080832093909416825291909152205490565b6101e761048f36600461282a565b61105b565b6102106104a23660046127ab565b6001600160a01b0391909116600090815260208190526040902054101590565b6104d56104d03660046129fd565b61119f565b60408051825163ffffffff1681526020928301517bffffffffffffffffffffffffffffffffffffffffffffffffffffffff1692810192909252016101f4565b60606003805461052390612a3d565b80601f016020809104026020016040519081016040528092919081815260200182805461054f90612a3d565b801561059c5780601f106105715761010080835404028352916020019161059c565b820191906000526020600020905b81548152906001019060200180831161057f57829003601f168201915b5050505050905090565b6000336105b4818585611238565b60019150505b92915050565b6000336105ce858285611390565b6105d9858585611440565b506001949350505050565b600081116106395760405162461bcd60e51b815260206004820152601260248201527f416d6f756e74206d757374206265203e2030000000000000000000000000000060448201526064015b60405180910390fd5b336000908152602081905260409020548111156106985760405162461bcd60e51b815260206004820152601260248201527f496e73756666696369656e742073434f444500000000000000000000000000006044820152606401610630565b6106a23382611633565b6040517fa9059cbb000000000000000000000000000000000000000000000000000000008152336004820152602481018290527f00000000000000000000000000000000000000000000000000000000000000006001600160a01b03169063a9059cbb906044016020604051808303816000875af1158015610728573d6000803e3d6000fd5b505050506040513d601f19601f8201168201806040525081019061074c9190612a8a565b6107985760405162461bcd60e51b815260206004820152600f60248201527f5472616e73666572206661696c656400000000000000000000000000000000006044820152606401610630565b60405181815233907f85082129d87b2fe11527cb1b3b7a520aeb5aa6913f88a3d8757fe40d1db02fdd906020015b60405180910390a250565b60006107db611641565b905090565b3360008181526001602090815260408083206001600160a01b03871684529091528120549091906105b4908290869061081a908790612adb565b611238565b6000610829610a9d565b65ffffffffffff16821061087f5760405162461bcd60e51b815260206004820152601960248201527f4552433230566f7465733a20667574757265206c6f6f6b7570000000000000006044820152606401610630565b6001600160a01b0383166000908152600a602052604090206108a1908361176c565b9392505050565b6060436108b3610a9d565b65ffffffffffff16146109085760405162461bcd60e51b815260206004820152601d60248201527f4552433230566f7465733a2062726f6b656e20636c6f636b206d6f64650000006044820152606401610630565b5060408051808201909152601d81527f6d6f64653d626c6f636b6e756d6265722666726f6d3d64656661756c74000000602082015290565b61094a338261189d565b50565b6001600160a01b0381166000908152600a60205260408120546105ba9061192e565b6001600160a01b0381166000908152600760205260408120546105ba565b6000606080828080836109c17f000000000000000000000000000000000000000000000000000000000000000060056119ae565b6109ec7f000000000000000000000000000000000000000000000000000000000000000060066119ae565b604080516000808252602082019092527f0f000000000000000000000000000000000000000000000000000000000000009b939a50919850469750309650945092509050565b6000610a3c610a9d565b65ffffffffffff168210610a925760405162461bcd60e51b815260206004820152601960248201527f4552433230566f7465733a20667574757265206c6f6f6b7570000000000000006044820152606401610630565b6105ba600b8361176c565b60006107db43611a59565b60606004805461052390612a3d565b6001600160a01b0381166000908152600a60205260408120548015610b59576001600160a01b0383166000908152600a6020526040902080547fffffffffffffffffffffffffffffffffffffffffffffffffffffffffffffffff8301908110610b2257610b22612aee565b60009182526020909120015464010000000090047bffffffffffffffffffffffffffffffffffffffffffffffffffffffff16610b5c565b60005b7bffffffffffffffffffffffffffffffffffffffffffffffffffffffff169392505050565b3360008181526001602090815260408083206001600160a01b038716845290915281205490919083811015610c1e5760405162461bcd60e51b815260206004820152602560248201527f45524332303a2064656372656173656420616c6c6f77616e63652062656c6f7760448201527f207a65726f0000000000000000000000000000000000000000000000000000006064820152608401610630565b6105d98286868403611238565b60008111610c7b5760405162461bcd60e51b815260206004820152601260248201527f416d6f756e74206d757374206265203e203000000000000000000000000000006044820152606401610630565b6040517f23b872dd000000000000000000000000000000000000000000000000000000008152336004820152306024820152604481018290527f00000000000000000000000000000000000000000000000000000000000000006001600160a01b0316906323b872dd906064016020604051808303816000875af1158015610d07573d6000803e3d6000fd5b505050506040513d601f19601f82011682018060405250810190610d2b9190612a8a565b610d775760405162461bcd60e51b815260206004820152600f60248201527f5472616e73666572206661696c656400000000000000000000000000000000006044820152606401610630565b610d813382611ad7565b60405181815233907febedb8b3c678666e7f36970bc8f57abf6d8fa2e828c0da91ea5b75bf68ed101a906020016107c6565b6000336105b4818585611440565b83421115610e115760405162461bcd60e51b815260206004820152601d60248201527f4552433230566f7465733a207369676e617475726520657870697265640000006044820152606401610630565b604080517fe48329057bfd03d55e49b547132e39cffd9c1820ad7b9d4c5307691425d15adf60208201526001600160a01b038816918101919091526060810186905260808101859052600090610e8b90610e839060a00160405160208183030381529060405280519060200120611ae1565b858585611b29565b9050610e9681611b51565b8614610ee45760405162461bcd60e51b815260206004820152601960248201527f4552433230566f7465733a20696e76616c6964206e6f6e6365000000000000006044820152606401610630565b610eee818861189d565b50505050505050565b83421115610f475760405162461bcd60e51b815260206004820152601d60248201527f45524332305065726d69743a206578706972656420646561646c696e650000006044820152606401610630565b60007f6e71edae12b1b97f4d1f60370fef10105fa2faae0126114a169c64845d6126c9888888610f768c611b51565b6040805160208101969096526001600160a01b0394851690860152929091166060840152608083015260a082015260c0810186905260e0016040516020818303038152906040528051906020012090506000610fd182611ae1565b90506000610fe182878787611b29565b9050896001600160a01b0316816001600160a01b0316146110445760405162461bcd60e51b815260206004820152601e60248201527f45524332305065726d69743a20696e76616c6964207369676e617475726500006044820152606401610630565b61104f8a8a8a611238565b50505050505050505050565b6060600061107e836001600160a01b031660009081526020819052604090205490565b90506934f086f3b33b6840000081106110cc57505060408051808201909152600781527f506172746e6572000000000000000000000000000000000000000000000000006020820152919050565b690a968163f0a57b400000811061111857505060408051808201909152600381527f50726f00000000000000000000000000000000000000000000000000000000006020820152919050565b69021e19e0c9bab2400000811061116457505060408051808201909152600781527f4275696c646572000000000000000000000000000000000000000000000000006020820152919050565b505060408051808201909152600481527f46726565000000000000000000000000000000000000000000000000000000006020820152919050565b60408051808201909152600080825260208201526001600160a01b0383166000908152600a60205260409020805463ffffffff84169081106111e3576111e3612aee565b60009182526020918290206040805180820190915291015463ffffffff8116825264010000000090047bffffffffffffffffffffffffffffffffffffffffffffffffffffffff16918101919091529392505050565b6001600160a01b0383166112b35760405162461bcd60e51b8152602060048201526024808201527f45524332303a20617070726f76652066726f6d20746865207a65726f2061646460448201527f72657373000000000000000000000000000000000000000000000000000000006064820152608401610630565b6001600160a01b03821661132f5760405162461bcd60e51b815260206004820152602260248201527f45524332303a20617070726f766520746f20746865207a65726f20616464726560448201527f73730000000000000000000000000000000000000000000000000000000000006064820152608401610630565b6001600160a01b0383811660008181526001602090815260408083209487168084529482529182902085905590518481527f8c5be1e5ebec7d5bd14f71427d1e84f3dd0314c0f7b2291e5b200ac8c7c3b925910160405180910390a3505050565b6001600160a01b038381166000908152600160209081526040808320938616835292905220547fffffffffffffffffffffffffffffffffffffffffffffffffffffffffffffffff811461143a578181101561142d5760405162461bcd60e51b815260206004820152601d60248201527f45524332303a20696e73756666696369656e7420616c6c6f77616e63650000006044820152606401610630565b61143a8484848403611238565b50505050565b6001600160a01b0383166114bc5760405162461bcd60e51b815260206004820152602560248201527f45524332303a207472616e736665722066726f6d20746865207a65726f20616460448201527f64726573730000000000000000000000000000000000000000000000000000006064820152608401610630565b6001600160a01b0382166115385760405162461bcd60e51b815260206004820152602360248201527f45524332303a207472616e7366657220746f20746865207a65726f206164647260448201527f65737300000000000000000000000000000000000000000000000000000000006064820152608401610630565b6001600160a01b038316600090815260208190526040902054818110156115c75760405162461bcd60e51b815260206004820152602660248201527f45524332303a207472616e7366657220616d6f756e742065786365656473206260448201527f616c616e636500000000000000000000000000000000000000000000000000006064820152608401610630565b6001600160a01b03848116600081815260208181526040808320878703905593871680835291849020805487019055925185815290927fddf252ad1be2c89b69c2b068fc378daa952ba7f163c4a11628f55a4df523b3ef910160405180910390a361143a848484611b7e565b61163d8282611b89565b5050565b6000306001600160a01b037f00000000000000000000000000000000000000000000000000000000000000001614801561169a57507f000000000000000000000000000000000000000000000000000000000000000046145b156116c457507f000000000000000000000000000000000000000000000000000000000000000090565b6107db604080517f8b73c3c69bb8fe3d512ecc4cf759cc79239f7b179b0ffacaa9a75d522b39400f60208201527f0000000000000000000000000000000000000000000000000000000000000000918101919091527f000000000000000000000000000000000000000000000000000000000000000060608201524660808201523060a082015260009060c00160405160208183030381529060405280519060200120905090565b8154600090818160058111156117c657600061178784611ba1565b6117919085612b1d565b600088815260209020909150869082015463ffffffff1611156117b6578091506117c4565b6117c1816001612adb565b92505b505b808210156118135760006117da8383611c89565b600088815260209020909150869082015463ffffffff1611156117ff5780915061180d565b61180a816001612adb565b92505b506117c6565b80156118725760008681526020902081017fffffffffffffffffffffffffffffffffffffffffffffffffffffffffffffffff015464010000000090047bffffffffffffffffffffffffffffffffffffffffffffffffffffffff16611875565b60005b7bffffffffffffffffffffffffffffffffffffffffffffffffffffffff169695505050505050565b6001600160a01b038281166000818152600960208181526040808420805485845282862054949093528787167fffffffffffffffffffffffff00000000000000000000000000000000000000008416811790915590519190951694919391928592917f3134e8a2e6d97e929a7e54011ea5485d7d196dd5f0ba4d4ef95803e8e3fc257f9190a461143a828483611ca4565b600063ffffffff8211156119aa5760405162461bcd60e51b815260206004820152602660248201527f53616665436173743a2076616c756520646f65736e27742066697420696e203360448201527f32206269747300000000000000000000000000000000000000000000000000006064820152608401610630565b5090565b606060ff83146119c8576119c183611de1565b90506105ba565b8180546119d490612a3d565b80601f0160208091040260200160405190810160405280929190818152602001828054611a0090612a3d565b8015611a4d5780601f10611a2257610100808354040283529160200191611a4d565b820191906000526020600020905b815481529060010190602001808311611a3057829003601f168201915b505050505090506105ba565b600065ffffffffffff8211156119aa5760405162461bcd60e51b815260206004820152602660248201527f53616665436173743a2076616c756520646f65736e27742066697420696e203460448201527f38206269747300000000000000000000000000000000000000000000000000006064820152608401610630565b61163d8282611e20565b60006105ba611aee611641565b836040517f19010000000000000000000000000000000000000000000000000000000000008152600281019290925260228201526042902090565b6000806000611b3a87878787611ecc565b91509150611b4781611fae565b5095945050505050565b6001600160a01b03811660009081526007602052604090208054600181018255905b50919050565b505050565b611b79838383612113565b611b938282612145565b61143a600b6122b5836122c1565b600081600003611bb357506000919050565b60006001611bc0846124c6565b901c6001901b90506001818481611bd957611bd9612b30565b048201901c90506001818481611bf157611bf1612b30565b048201901c90506001818481611c0957611c09612b30565b048201901c90506001818481611c2157611c21612b30565b048201901c90506001818481611c3957611c39612b30565b048201901c90506001818481611c5157611c51612b30565b048201901c90506001818481611c6957611c69612b30565b048201901c90506108a181828581611c8357611c83612b30565b0461255a565b6000611c986002848418612b5f565b6108a190848416612adb565b816001600160a01b0316836001600160a01b031614158015611cc65750600081115b15611b79576001600160a01b03831615611d54576001600160a01b0383166000908152600a602052604081208190611d01906122b5856122c1565b91509150846001600160a01b03167fdec2bacdd2f05b59de34da9b523dff8be42e5e38e818c82fdb0bae774387a7248383604051611d49929190918252602082015260400190565b60405180910390a250505b6001600160a01b03821615611b79576001600160a01b0382166000908152600a602052604081208190611d8a90612570856122c1565b91509150836001600160a01b03167fdec2bacdd2f05b59de34da9b523dff8be42e5e38e818c82fdb0bae774387a7248383604051611dd2929190918252602082015260400190565b60405180910390a25050505050565b60606000611dee8361257c565b604080516020808252818301909252919250600091906020820181803683375050509182525060208101929092525090565b611e2a82826125bd565b6002547bffffffffffffffffffffffffffffffffffffffffffffffffffffffff1015611ebe5760405162461bcd60e51b815260206004820152603060248201527f4552433230566f7465733a20746f74616c20737570706c79207269736b73206f60448201527f766572666c6f77696e6720766f746573000000000000000000000000000000006064820152608401610630565b61143a600b612570836122c1565b6000807f7fffffffffffffffffffffffffffffff5d576e7357a4501ddfe92f46681b20a0831115611f035750600090506003611fa5565b6040805160008082526020820180845289905260ff881692820192909252606081018690526080810185905260019060a0016020604051602081039080840390855afa158015611f57573d6000803e3d6000fd5b50506040517fffffffffffffffffffffffffffffffffffffffffffffffffffffffffffffffe001519150506001600160a01b038116611f9e57600060019250925050611fa5565b9150600090505b94509492505050565b6000816004811115611fc257611fc2612b9a565b03611fca5750565b6001816004811115611fde57611fde612b9a565b0361202b5760405162461bcd60e51b815260206004820152601860248201527f45434453413a20696e76616c6964207369676e617475726500000000000000006044820152606401610630565b600281600481111561203f5761203f612b9a565b0361208c5760405162461bcd60e51b815260206004820152601f60248201527f45434453413a20696e76616c6964207369676e6174757265206c656e677468006044820152606401610630565b60038160048111156120a0576120a0612b9a565b0361094a5760405162461bcd60e51b815260206004820152602260248201527f45434453413a20696e76616c6964207369676e6174757265202773272076616c60448201527f75650000000000000000000000000000000000000000000000000000000000006064820152608401610630565b6001600160a01b03838116600090815260096020526040808220548584168352912054611b7992918216911683611ca4565b6001600160a01b0382166121c15760405162461bcd60e51b815260206004820152602160248201527f45524332303a206275726e2066726f6d20746865207a65726f2061646472657360448201527f73000000000000000000000000000000000000000000000000000000000000006064820152608401610630565b6001600160a01b038216600090815260208190526040902054818110156122505760405162461bcd60e51b815260206004820152602260248201527f45524332303a206275726e20616d6f756e7420657863656564732062616c616e60448201527f63650000000000000000000000000000000000000000000000000000000000006064820152608401610630565b6001600160a01b0383166000818152602081815260408083208686039055600280548790039055518581529192917fddf252ad1be2c89b69c2b068fc378daa952ba7f163c4a11628f55a4df523b3ef910160405180910390a3611b7983600084611b7e565b60006108a18284612b1d565b825460009081908181156123415760008781526020902082017fffffffffffffffffffffffffffffffffffffffffffffffffffffffffffffffff0160408051808201909152905463ffffffff8116825264010000000090047bffffffffffffffffffffffffffffffffffffffffffffffffffffffff166020820152612356565b60408051808201909152600080825260208201525b905080602001517bffffffffffffffffffffffffffffffffffffffffffffffffffffffff16935061238b84868863ffffffff16565b92506000821180156123b557506123a0610a9d565b65ffffffffffff16816000015163ffffffff16145b1561242d576123c383612684565b60008881526020902083017fffffffffffffffffffffffffffffffffffffffffffffffffffffffffffffffff0180547bffffffffffffffffffffffffffffffffffffffffffffffffffffffff929092166401000000000263ffffffff9092169190911790556124bc565b866040518060400160405280612451612444610a9d565b65ffffffffffff1661192e565b63ffffffff16815260200161246586612684565b7bffffffffffffffffffffffffffffffffffffffffffffffffffffffff90811690915282546001810184556000938452602093849020835194909301519091166401000000000263ffffffff909316929092179101555b5050935093915050565b600080608083901c156124db57608092831c92015b604083901c156124ed57604092831c92015b602083901c156124ff57602092831c92015b601083901c1561251157601092831c92015b600883901c1561252357600892831c92015b600483901c1561253557600492831c92015b600283901c1561254757600292831c92015b600183901c156105ba5760010192915050565b600081831061256957816108a1565b5090919050565b60006108a18284612adb565b600060ff8216601f8111156105ba576040517fb3512b0c00000000000000000000000000000000000000000000000000000000815260040160405180910390fd5b6001600160a01b0382166126135760405162461bcd60e51b815260206004820152601f60248201527f45524332303a206d696e7420746f20746865207a65726f2061646472657373006044820152606401610630565b80600260008282546126259190612adb565b90915550506001600160a01b038216600081815260208181526040808320805486019055518481527fddf252ad1be2c89b69c2b068fc378daa952ba7f163c4a11628f55a4df523b3ef910160405180910390a361163d60008383611b7e565b60007bffffffffffffffffffffffffffffffffffffffffffffffffffffffff8211156119aa5760405162461bcd60e51b815260206004820152602760248201527f53616665436173743a2076616c756520646f65736e27742066697420696e203260448201527f32342062697473000000000000000000000000000000000000000000000000006064820152608401610630565b6000815180845260005b8181101561273e57602081850181015186830182015201612722565b5060006020828601015260207fffffffffffffffffffffffffffffffffffffffffffffffffffffffffffffffe0601f83011685010191505092915050565b6020815260006108a16020830184612718565b80356001600160a01b03811681146127a657600080fd5b919050565b600080604083850312156127be57600080fd5b6127c78361278f565b946020939093013593505050565b6000806000606084860312156127ea57600080fd5b6127f38461278f565b92506128016020850161278f565b9150604084013590509250925092565b60006020828403121561282357600080fd5b5035919050565b60006020828403121561283c57600080fd5b6108a18261278f565b7fff00000000000000000000000000000000000000000000000000000000000000881681526000602060e08184015261288160e084018a612718565b8381036040850152612893818a612718565b606085018990526001600160a01b038816608086015260a0850187905284810360c0860152855180825283870192509083019060005b818110156128e5578351835292840192918401916001016128c9565b50909c9b505050505050505050505050565b803560ff811681146127a657600080fd5b60008060008060008060c0878903121561292157600080fd5b61292a8761278f565b95506020870135945060408701359350612946606088016128f7565b92506080870135915060a087013590509295509295509295565b600080600080600080600060e0888a03121561297b57600080fd5b6129848861278f565b96506129926020890161278f565b955060408801359450606088013593506129ae608089016128f7565b925060a0880135915060c0880135905092959891949750929550565b600080604083850312156129dd57600080fd5b6129e68361278f565b91506129f46020840161278f565b90509250929050565b60008060408385031215612a1057600080fd5b612a198361278f565b9150602083013563ffffffff81168114612a3257600080fd5b809150509250929050565b600181811c90821680612a5157607f821691505b602082108103611b73577f4e487b7100000000000000000000000000000000000000000000000000000000600052602260045260246000fd5b600060208284031215612a9c57600080fd5b815180151581146108a157600080fd5b7f4e487b7100000000000000000000000000000000000000000000000000000000600052601160045260246000fd5b808201808211156105ba576105ba612aac565b7f4e487b7100000000000000000000000000000000000000000000000000000000600052603260045260246000fd5b818103818111156105ba576105ba612aac565b7f4e487b7100000000000000000000000000000000000000000000000000000000600052601260045260246000fd5b600082612b95577f4e487b7100000000000000000000000000000000000000000000000000000000600052601260045260246000fd5b500490565b7f4e487b7100000000000000000000000000000000000000000000000000000000600052602160045260246000fdfea265627a7a7231582052d682fda7df525e09c186a5e80c0b86bd13142d593373581efd5634676d2ba064736f6c63430008140032",
  "linkReferences": {},
  "deployedLinkReferences": {}
}