{
  "_format": "hh-sol-artifact-1",
  "contractName": "MerkleDistributorV2",
  "sourceName": "contracts/MerkleDistributorV2.sol",
  "abi": [
    {
      "inputs": [
        {
          "internalType": "address",
          "name": "_token",
          "type": "address"
        },
        {
          "internalType": "address",
          "name": "_stakingVault",
          "type": "address"
        },
        {
          "internalType": "address",
          "name": "_rootGuardian",
          "type": "address"
        }
      ],
      "stateMutability": "nonpayable",
      "type": "constructor"
    },
    {
      "anonymous": false,
      "inputs": [
        {
          "indexed": true,
          "internalType": "address",
          "name": "user",
          "type": "address"
        },
        {
          "indexed": false,
          "internalType": "uint256",
          "name": "amount",
          "type": "uint256"
        },
        {
          "indexed": false,
          "internalType": "bool",
          "name": "autoStaked",
          "type": "bool"
        },
        {
          "indexed": false,
          "internalType": "uint256",
          "name": "epochId",
          "type": "uint256"
        }
      ],
      "name": "Claimed",
      "type": "event"
    },
    {
      "anonymous": false,
      "inputs": [
        {
          "indexed": true,
          "internalType": "uint256",
          "name": "epochId",
          "type": "uint256"
        },
        {
          "indexed": false,
          "internalType": "bytes32",
          "name": "merkleRoot",
          "type": "bytes32"
        },
        {
          "indexed": false,
          "internalType": "uint256",
          "name": "totalAmount",
          "type": "uint256"
        },
        {
          "indexed": false,
          "internalType": "string",
          "name": "description",
          "type": "string"
        }
      ],
      "name": "EpochSet",
      "type": "event"
    },
    {
      "anonymous": false,
      "inputs": [
        {
          "indexed": true,
          "internalType": "address",
          "name": "user",
          "type": "address"
        },
        {
          "indexed": false,
          "internalType": "uint256",
          "name": "amount",
          "type": "uint256"
        },
        {
          "indexed": true,
          "internalType": "address",
          "name": "relayer",
          "type": "address"
        }
      ],
      "name": "GaslessClaimed",
      "type": "event"
    },
    {
      "anonymous": false,
      "inputs": [
        {
          "indexed": true,
          "internalType": "address",
          "name": "previousOwner",
          "type": "address"
        },
        {
          "indexed": true,
          "internalType": "address",
          "name": "newOwner",
          "type": "address"
        }
      ],
      "name": "OwnershipTransferred",
      "type": "event"
    },
    {
      "anonymous": false,
      "inputs": [
        {
          "indexed": false,
          "internalType": "address",
          "name": "account",
          "type": "address"
        }
      ],
      "name": "Paused",
      "type": "event"
    },
    {
      "anonymous": false,
      "inputs": [
        {
          "indexed": true,
          "internalType": "address",
          "name": "oldRelayer",
          "type": "address"
        },
        {
          "indexed": true,
          "internalType": "address",
          "name": "newRelayer",
          "type": "address"
        }
      ],
      "name": "RelayerUpdated",
      "type": "event"
    },
    {
      "anonymous": false,
      "inputs": [
        {
          "indexed": false,
          "internalType": "address",
          "name": "account",
          "type": "address"
        }
      ],
      "name": "Unpaused",
      "type": "event"
    },
    {
      "inputs": [],
      "name": "MAX_GASLESS_CLAIMS",
      "outputs": [
        {
          "internalType": "uint256",
          "name": "",
          "type": "uint256"
        }
      ],
      "stateMutability": "view",
      "type": "function"
    },
    {
      "inputs": [
        {
          "internalType": "address",
          "name": "user",
          "type": "address"
        }
      ],
      "name": "canClaimGasless",
      "outputs": [
        {
          "internalType": "bool",
          "name": "",
          "type": "bool"
        }
      ],
      "stateMutability": "view",
      "type": "function"
    },
    {
      "inputs": [
        {
          "internalType": "uint256",
          "name": "cumulativeAmount",
          "type": "uint256"
        },
        {
          "internalType": "bool",
          "name": "autoStake",
          "type": "bool"
        },
        {
          "internalType": "bytes32[]",
          "name": "merkleProof",
          "type": "bytes32[]"
        }
      ],
      "name": "claim",
      "outputs": [],
      "stateMutability": "nonpayable",
      "type": "function"
    },
    {
      "inputs": [
        {
          "internalType": "address[]",
          "name": "users",
          "type": "address[]"
        },
        {
          "internalType": "uint256[]",
          "name": "cumulativeAmounts",
          "type": "uint256[]"
        },
        {
          "internalType": "bool",
          "name": "autoStake",
          "type": "bool"
        },
        {
          "internalType": "bytes32[][]",
          "name": "merkleProofs",
          "type": "bytes32[][]"
        }
      ],
      "name": "claimBatch",
      "outputs": [],
      "stateMutability": "nonpayable",
      "type": "function"
    },
    {
      "inputs": [
        {
          "internalType": "address",
          "name": "user",
          "type": "address"
        },
        {
          "internalType": "uint256",
          "name": "cumulativeAmount",
          "type": "uint256"
        },
        {
          "internalType": "bool",
          "name": "autoStake",
          "type": "bool"
        },
        {
          "internalType": "bytes32[]",
          "name": "merkleProof",
          "type": "bytes32[]"
        }
      ],
      "name": "claimGasless",
      "outputs": [],
      "stateMutability": "nonpayable",
      "type": "function"
    },
    {
      "inputs": [
        {
          "internalType": "address",
          "name": "",
          "type": "address"
        }
      ],
      "name": "claimed",
      "outputs": [
        {
          "internalType": "uint256",
          "name": "",
          "type": "uint256"
        }
      ],
      "stateMutability": "view",
      "type": "function"
    },
    {
      "inputs": [],
      "name": "currentEpoch",
      "outputs": [
        {
          "internalType": "uint256",
          "name": "",
          "type": "uint256"
        }
      ],
      "stateMutability": "view",
      "type": "function"
    },
    {
      "inputs": [],
      "name": "emergencyPause",
      "outputs": [],
      "stateMutability": "nonpayable",
      "type": "function"
    },
    {
      "inputs": [
        {
          "internalType": "uint256",
          "name": "amount",
          "type": "uint256"
        }
      ],
      "name": "emergencyWithdraw",
      "outputs": [],
      "stateMutability": "nonpayable",
      "type": "function"
    },
    {
      "inputs": [
        {
          "internalType": "uint256",
          "name": "",
          "type": "uint256"
        }
      ],
      "name": "epochCaps",
      "outputs": [
        {
          "internalType": "uint256",
          "name": "",
          "type": "uint256"
        }
      ],
      "stateMutability": "view",
      "type": "function"
    },
    {
      "inputs": [
        {
          "internalType": "uint256",
          "name": "",
          "type": "uint256"
        }
      ],
      "name": "epochDescriptions",
      "outputs": [
        {
          "internalType": "string",
          "name": "",
          "type": "string"
        }
      ],
      "stateMutability": "view",
      "type": "function"
    },
    {
      "inputs": [
        {
          "internalType": "uint256",
          "name": "",
          "type": "uint256"
        }
      ],
      "name": "epochExpiry",
      "outputs": [
        {
          "internalType": "uint256",
          "name": "",
          "type": "uint256"
        }
      ],
      "stateMutability": "view",
      "type": "function"
    },
    {
      "inputs": [
        {
          "internalType": "uint256",
          "name": "",
          "type": "uint256"
        }
      ],
      "name": "epochRoots",
      "outputs": [
        {
          "internalType": "bytes32",
          "name": "",
          "type": "bytes32"
        }
      ],
      "stateMutability": "view",
      "type": "function"
    },
    {
      "inputs": [
        {
          "internalType": "uint256",
          "name": "",
          "type": "uint256"
        }
      ],
      "name": "epochTotals",
      "outputs": [
        {
          "internalType": "uint256",
          "name": "",
          "type": "uint256"
        }
      ],
      "stateMutability": "view",
      "type": "function"
    },
    {
      "inputs": [
        {
          "internalType": "uint256",
          "name": "amount",
          "type": "uint256"
        }
      ],
      "name": "fund",
      "outputs": [],
      "stateMutability": "nonpayable",
      "type": "function"
    },
    {
      "inputs": [],
      "name": "gaslessClaimCount",
      "outputs": [
        {
          "internalType": "uint256",
          "name": "",
          "type": "uint256"
        }
      ],
      "stateMutability": "view",
      "type": "function"
    },
    {
      "inputs": [
        {
          "internalType": "address",
          "name": "user",
          "type": "address"
        },
        {
          "internalType": "uint256",
          "name": "cumulativeAmount",
          "type": "uint256"
        }
      ],
      "name": "getClaimableAmount",
      "outputs": [
        {
          "internalType": "uint256",
          "name": "",
          "type": "uint256"
        }
      ],
      "stateMutability": "view",
      "type": "function"
    },
    {
      "inputs": [
        {
          "internalType": "uint256",
          "name": "epochId",
          "type": "uint256"
        }
      ],
      "name": "getEpochInfo",
      "outputs": [
        {
          "internalType": "bytes32",
          "name": "root",
          "type": "bytes32"
        },
        {
          "internalType": "uint256",
          "name": "total",
          "type": "uint256"
        },
        {
          "internalType": "string",
          "name": "description",
          "type": "string"
        },
        {
          "internalType": "uint256",
          "name": "expiry",
          "type": "uint256"
        },
        {
          "internalType": "bool",
          "name": "isActive",
          "type": "bool"
        }
      ],
      "stateMutability": "view",
      "type": "function"
    },
    {
      "inputs": [
        {
          "internalType": "address",
          "name": "",
          "type": "address"
        }
      ],
      "name": "hasClaimedGasless",
      "outputs": [
        {
          "internalType": "bool",
          "name": "",
          "type": "bool"
        }
      ],
      "stateMutability": "view",
      "type": "function"
    },
    {
      "inputs": [],
      "name": "owner",
      "outputs": [
        {
          "internalType": "address",
          "name": "",
          "type": "address"
        }
      ],
      "stateMutability": "view",
      "type": "function"
    },
    {
      "inputs": [],
      "name": "paused",
      "outputs": [
        {
          "internalType": "bool",
          "name": "",
          "type": "bool"
        }
      ],
      "stateMutability": "view",
      "type": "function"
    },
    {
      "inputs": [],
      "name": "relayer",
      "outputs": [
        {
          "internalType": "address",
          "name": "",
          "type": "address"
        }
      ],
      "stateMutability": "view",
      "type": "function"
    },
    {
      "inputs": [],
      "name": "renounceOwnership",
      "outputs": [],
      "stateMutability": "nonpayable",
      "type": "function"
    },
    {
      "inputs": [],
      "name": "rootGuardian",
      "outputs": [
        {
          "internalType": "address",
          "name": "",
          "type": "address"
        }
      ],
      "stateMutability": "view",
      "type": "function"
    },
    {
      "inputs": [
        {
          "internalType": "uint256",
          "name": "epochId",
          "type": "uint256"
        },
        {
          "internalType": "bytes32",
          "name": "merkleRoot",
          "type": "bytes32"
        },
        {
          "internalType": "uint256",
          "name": "totalAmount",
          "type": "uint256"
        },
        {
          "internalType": "string",
          "name": "description",
          "type": "string"
        },
        {
          "internalType": "uint256",
          "name": "expiryDays",
          "type": "uint256"
        }
      ],
      "name": "setEpochRoot",
      "outputs": [],
      "stateMutability": "nonpayable",
      "type": "function"
    },
    {
      "inputs": [
        {
          "internalType": "address",
          "name": "newRelayer",
          "type": "address"
        }
      ],
      "name": "setRelayer",
      "outputs": [],
      "stateMutability": "nonpayable",
      "type": "function"
    },
    {
      "inputs": [
        {
          "internalType": "address",
          "name": "newGuardian",
          "type": "address"
        }
      ],
      "name": "setRootGuardian",
      "outputs": [],
      "stateMutability": "nonpayable",
      "type": "function"
    },
    {
      "inputs": [],
      "name": "stakingVault",
      "outputs": [
        {
          "internalType": "contract StakingVault",
          "name": "",
          "type": "address"
        }
      ],
      "stateMutability": "view",
      "type": "function"
    },
    {
      "inputs": [],
      "name": "token",
      "outputs": [
        {
          "internalType": "contract CodeDAOToken",
          "name": "",
          "type": "address"
        }
      ],
      "stateMutability": "view",
      "type": "function"
    },
    {
      "inputs": [
        {
          "internalType": "address",
          "name": "newOwner",
          "type": "address"
        }
      ],
      "name": "transferOwnership",
      "outputs": [],
      "stateMutability": "nonpayable",
      "type": "function"
    },
    {
      "inputs": [],
      "name": "unpause",
      "outputs": [],
      "stateMutability": "nonpayable",
      "type": "function"
    }
  ],
  "bytecode": "0x60c06040523480156200001157600080fd5b506040516200231a3803806200231a8339810160408190526200003491620000eb565b6000805460ff19169055600180556200004d336200007c565b6001600160a01b0392831660805290821660a052600c80546001600160a01b0319169190921617905562000135565b600280546001600160a01b038381166001600160a01b0319831681179093556040519116919082907f8be0079c531659141344cd1fd0a4f28419497f9722a3daafe3b4186f6b6457e090600090a35050565b80516001600160a01b0381168114620000e657600080fd5b919050565b6000806000606084860312156200010157600080fd5b6200010c84620000ce565b92506200011c60208501620000ce565b91506200012c60408501620000ce565b90509250925092565b60805160a051612195620001856000396000818161024b015261157a0152600081816104d40152818161073101528181610e5e015281816115a9015281816116ae01526117b801526121956000f3fe608060405234801561001057600080fd5b50600436106101e55760003560e01c80638406c0791161010f578063c85ef1d3116100a2578063cf22f11811610071578063cf22f118146104a0578063f2fde38b146104a9578063fb9e416d146104bc578063fc0c546a146104cf57600080fd5b8063c85ef1d314610447578063c884ef831461045a578063ca1d209d1461047a578063cf077ab01461048d57600080fd5b8063a3df5b63116100de578063a3df5b63146103eb578063a8110752146103f4578063af2a660a14610414578063b3743f601461043457600080fd5b80638406c0791461037a57806385ef751f1461039a5780638d73cffc146103ba5780638da5cb5b146103cd57600080fd5b806353320fc2116101875780636548e9bc116101565780636548e9bc14610336578063715018a61461034957806376671808146103515780638232e06e1461035a57600080fd5b806353320fc2146102e557806355deccc1146102f857806359735f89146103185780635c975abb1461032b57600080fd5b806334fc6fce116101c357806334fc6fce146102925780633f4ba83a146102c057806351858e27146102ca5780635312ea8e146102d257600080fd5b806308883ed5146101ea578063135022c21461022257806324e7964a14610246575b600080fd5b61020d6101f8366004611a05565b600a6020526000908152604090205460ff1681565b60405190151581526020015b60405180910390f35b610235610230366004611a27565b6104f6565b604051610219959493929190611aa4565b61026d7f000000000000000000000000000000000000000000000000000000000000000081565b60405173ffffffffffffffffffffffffffffffffffffffff9091168152602001610219565b6102b26102a0366004611a27565b60056020526000908152604090205481565b604051908152602001610219565b6102c8610603565b005b6102c8610615565b6102c86102e0366004611a27565b6106ab565b6102c86102f3366004611adc565b610870565b6102b2610306366004611a27565b60046020526000908152604090205481565b6102c8610326366004611a05565b6109f5565b60005460ff1661020d565b6102c8610344366004611a05565b610a44565b6102c8610ac3565b6102b260035481565b6102b2610368366004611a27565b60076020526000908152604090205481565b60095461026d9073ffffffffffffffffffffffffffffffffffffffff1681565b6102b26103a8366004611a27565b600d6020526000908152604090205481565b61020d6103c8366004611a05565b610ad5565b60025473ffffffffffffffffffffffffffffffffffffffff1661026d565b6102b26103e881565b610407610402366004611a27565b610b14565b6040516102199190611b74565b600c5461026d9073ffffffffffffffffffffffffffffffffffffffff1681565b6102b2610442366004611b87565b610bae565b6102c8610455366004611c0b565b610bf7565b6102b2610468366004611a05565b60086020526000908152604090205481565b6102c8610488366004611a27565b610e23565b6102c861049b366004611c7c565b610ea2565b6102b2600b5481565b6102c86104b7366004611a05565b610ed1565b6102c86104ca366004611cd8565b610f6b565b61026d7f000000000000000000000000000000000000000000000000000000000000000081565b60008181526004602090815260408083205460058352818420546006845282852060079094529184205460035485946060948694859490939192918a11801590610564575060008a8152600760205260409020541580610564575060008a8152600760205260409020544211155b82805461057090611d87565b80601f016020809104026020016040519081016040528092919081815260200182805461059c90611d87565b80156105e95780601f106105be576101008083540402835291602001916105e9565b820191906000526020600020905b8154815290600101906020018083116105cc57829003601f168201915b505050505092509450945094509450945091939590929450565b61060b6110c6565b61061361112d565b565b600c5473ffffffffffffffffffffffffffffffffffffffff16331480610652575060025473ffffffffffffffffffffffffffffffffffffffff1633145b6106a35760405162461bcd60e51b815260206004820152600c60248201527f4e6f7420677561726469616e000000000000000000000000000000000000000060448201526064015b60405180910390fd5b6106136111aa565b6106b36110c6565b600354600090815260076020526040902054158015906106e3575060035460009081526007602052604090205442115b61072f5760405162461bcd60e51b815260206004820152601160248201527f45706f6368206e6f742065787069726564000000000000000000000000000000604482015260640161069a565b7f000000000000000000000000000000000000000000000000000000000000000073ffffffffffffffffffffffffffffffffffffffff1663a9059cbb61078a60025473ffffffffffffffffffffffffffffffffffffffff1690565b6040517fffffffff0000000000000000000000000000000000000000000000000000000060e084901b16815273ffffffffffffffffffffffffffffffffffffffff9091166004820152602481018490526044015b6020604051808303816000875af11580156107fd573d6000803e3d6000fd5b505050506040513d601f19601f820116820180604052508101906108219190611dda565b61086d5760405162461bcd60e51b815260206004820152600f60248201527f5472616e73666572206661696c65640000000000000000000000000000000000604482015260640161069a565b50565b6108786110c6565b600354610886906001611e26565b86146108d45760405162461bcd60e51b815260206004820152601260248201527f4d7573742062652073657175656e7469616c0000000000000000000000000000604482015260640161069a565b846109215760405162461bcd60e51b815260206004820152600c60248201527f496e76616c696420726f6f740000000000000000000000000000000000000000604482015260640161069a565b60008681526004602090815260408083208890556005825280832087905560069091529020610951838583611eb7565b50801561097f576109658162015180611fd1565b61096f9042611e26565b6000878152600760205260409020555b606461098c856096611fd1565b6109969190611fe8565b6000878152600d6020526040908190209190915560038790555186907f531f160e49b222fc485f64e252fb1cec5b91deab50c106488f71feeb397b36e5906109e5908890889088908890612023565b60405180910390a2505050505050565b6109fd6110c6565b600c80547fffffffffffffffffffffffff00000000000000000000000000000000000000001673ffffffffffffffffffffffffffffffffffffffff92909216919091179055565b610a4c6110c6565b6009805473ffffffffffffffffffffffffffffffffffffffff8381167fffffffffffffffffffffffff0000000000000000000000000000000000000000831681179093556040519116919082907f605ca4e43489fb38b91aa63dd9147cd3847957694b080b9285ec898b34269f0c90600090a35050565b610acb6110c6565b6106136000611205565b73ffffffffffffffffffffffffffffffffffffffff81166000908152600a602052604081205460ff16158015610b0e57506103e8600b54105b92915050565b60066020526000908152604090208054610b2d90611d87565b80601f0160208091040260200160405190810160405280929190818152602001828054610b5990611d87565b8015610ba65780601f10610b7b57610100808354040283529160200191610ba6565b820191906000526020600020905b815481529060010190602001808311610b8957829003601f168201915b505050505081565b73ffffffffffffffffffffffffffffffffffffffff8216600090815260086020526040812054808311610be5576000915050610b0e565b610bef818461207e565b949350505050565b60095473ffffffffffffffffffffffffffffffffffffffff163314610c5e5760405162461bcd60e51b815260206004820152600b60248201527f4e6f742072656c61796572000000000000000000000000000000000000000000604482015260640161069a565b610c6661127c565b610c6e6112d5565b73ffffffffffffffffffffffffffffffffffffffff85166000908152600a602052604090205460ff1615610ce45760405162461bcd60e51b815260206004820152601460248201527f416c72656164792075736564206761736c657373000000000000000000000000604482015260640161069a565b6103e8600b5410610d375760405162461bcd60e51b815260206004820152601660248201527f4761736c6573732071756f746120657863656564656400000000000000000000604482015260640161069a565b73ffffffffffffffffffffffffffffffffffffffff85166000908152600a6020526040812080547fffffffffffffffffffffffffffffffffffffffffffffffffffffffffffffff00166001179055600b805491610d9383612091565b91905055506000610da986868686866001611328565b90503373ffffffffffffffffffffffffffffffffffffffff168673ffffffffffffffffffffffffffffffffffffffff167f812a43286e5be0f69c00b0e4cc2dee191f955b205fcb1d5ad65d900a7cb091c683604051610e0a91815260200190565b60405180910390a350610e1c60018055565b5050505050565b6040517f23b872dd000000000000000000000000000000000000000000000000000000008152336004820152306024820152604481018290527f000000000000000000000000000000000000000000000000000000000000000073ffffffffffffffffffffffffffffffffffffffff16906323b872dd906064016107de565b610eaa61127c565b610eb26112d5565b610ec133858585856000611328565b50610ecb60018055565b50505050565b610ed96110c6565b73ffffffffffffffffffffffffffffffffffffffff8116610f625760405162461bcd60e51b815260206004820152602660248201527f4f776e61626c653a206e6577206f776e657220697320746865207a65726f206160448201527f6464726573730000000000000000000000000000000000000000000000000000606482015260840161069a565b61086d81611205565b610f7361127c565b610f7b6112d5565b8584148015610f8957508581145b610fd55760405162461bcd60e51b815260206004820152600e60248201527f4172726179206d69736d61746368000000000000000000000000000000000000604482015260640161069a565b60148611156110265760405162461bcd60e51b815260206004820152600f60248201527f426174636820746f6f206c617267650000000000000000000000000000000000604482015260640161069a565b60005b868110156110b3576110a0888883818110611046576110466120c9565b905060200201602081019061105b9190611a05565b87878481811061106d5761106d6120c9565b9050602002013586868686818110611087576110876120c9565b905060200281019061109991906120f8565b6000611328565b50806110ab81612091565b915050611029565b506110bd60018055565b50505050505050565b60025473ffffffffffffffffffffffffffffffffffffffff1633146106135760405162461bcd60e51b815260206004820181905260248201527f4f776e61626c653a2063616c6c6572206973206e6f7420746865206f776e6572604482015260640161069a565b6111356118db565b600080547fffffffffffffffffffffffffffffffffffffffffffffffffffffffffffffff001690557f5db9ee0a495bf2e6ff9c91a7834c1ba4fdd244a5e8aa4e537bd38aeae4b073aa335b60405173ffffffffffffffffffffffffffffffffffffffff909116815260200160405180910390a1565b6111b26112d5565b600080547fffffffffffffffffffffffffffffffffffffffffffffffffffffffffffffff001660011790557f62e78cea01bee320cd4e420270b5ea74000d11b0c9f74754ebdbfc544b05a2586111803390565b6002805473ffffffffffffffffffffffffffffffffffffffff8381167fffffffffffffffffffffffff0000000000000000000000000000000000000000831681179093556040519116919082907f8be0079c531659141344cd1fd0a4f28419497f9722a3daafe3b4186f6b6457e090600090a35050565b6002600154036112ce5760405162461bcd60e51b815260206004820152601f60248201527f5265656e7472616e637947756172643a207265656e7472616e742063616c6c00604482015260640161069a565b6002600155565b60005460ff16156106135760405162461bcd60e51b815260206004820152601060248201527f5061757361626c653a2070617573656400000000000000000000000000000000604482015260640161069a565b600354600090815260076020526040812054156113a0576003546000908152600760205260409020544211156113a05760405162461bcd60e51b815260206004820152600d60248201527f45706f6368206578706972656400000000000000000000000000000000000000604482015260640161069a565b73ffffffffffffffffffffffffffffffffffffffff87166000908152600860205260409020548087116114155760405162461bcd60e51b815260206004820152601060248201527f4e6f7468696e6720746f20636c61696d00000000000000000000000000000000604482015260640161069a565b61141f818861207e565b6040517fffffffffffffffffffffffffffffffffffffffff00000000000000000000000060608b901b166020820152603481018990529092506000906054016040516020818303038152906040528051906020012090506114c38686808060200260200160405190810160405280939291908181526020018383602002808284376000920182905250600354815260046020526040902054925085915061192d9050565b61150f5760405162461bcd60e51b815260206004820152600d60248201527f496e76616c69642070726f6f6600000000000000000000000000000000000000604482015260640161069a565b73ffffffffffffffffffffffffffffffffffffffff89166000908152600860205260409020889055861561176c576040517fa9059cbb00000000000000000000000000000000000000000000000000000000815273ffffffffffffffffffffffffffffffffffffffff7f000000000000000000000000000000000000000000000000000000000000000081166004830152602482018590527f0000000000000000000000000000000000000000000000000000000000000000169063a9059cbb906044016020604051808303816000875af11580156115f2573d6000803e3d6000fd5b505050506040513d601f19601f820116820180604052508101906116169190611dda565b6116625760405162461bcd60e51b815260206004820152600f60248201527f5472616e73666572206661696c65640000000000000000000000000000000000604482015260640161069a565b6040517fa9059cbb00000000000000000000000000000000000000000000000000000000815273ffffffffffffffffffffffffffffffffffffffff8a81166004830152602482018590527f0000000000000000000000000000000000000000000000000000000000000000169063a9059cbb906044016020604051808303816000875af11580156116f7573d6000803e3d6000fd5b505050506040513d601f19601f8201168201806040525081019061171b9190611dda565b6117675760405162461bcd60e51b815260206004820152600f60248201527f5472616e73666572206661696c65640000000000000000000000000000000000604482015260640161069a565b611871565b6040517fa9059cbb00000000000000000000000000000000000000000000000000000000815273ffffffffffffffffffffffffffffffffffffffff8a81166004830152602482018590527f0000000000000000000000000000000000000000000000000000000000000000169063a9059cbb906044016020604051808303816000875af1158015611801573d6000803e3d6000fd5b505050506040513d601f19601f820116820180604052508101906118259190611dda565b6118715760405162461bcd60e51b815260206004820152600f60248201527f5472616e73666572206661696c65640000000000000000000000000000000000604482015260640161069a565b6003546040805185815289151560208201529081019190915273ffffffffffffffffffffffffffffffffffffffff8a16907ff0a271696089bb4e9e39c978b100f1892bfc98a87493ad2e459b06c417c6c5839060600160405180910390a250509695505050505050565b60005460ff166106135760405162461bcd60e51b815260206004820152601460248201527f5061757361626c653a206e6f7420706175736564000000000000000000000000604482015260640161069a565b600081815b85518110156119d157600086828151811061194f5761194f6120c9565b602002602001015190508083116119915760408051602081018590529081018290526060016040516020818303038152906040528051906020012092506119be565b60408051602081018390529081018490526060016040516020818303038152906040528051906020012092505b50806119c981612091565b915050611932565b509092149392505050565b803573ffffffffffffffffffffffffffffffffffffffff81168114611a0057600080fd5b919050565b600060208284031215611a1757600080fd5b611a20826119dc565b9392505050565b600060208284031215611a3957600080fd5b5035919050565b6000815180845260005b81811015611a6657602081850181015186830182015201611a4a565b5060006020828601015260207fffffffffffffffffffffffffffffffffffffffffffffffffffffffffffffffe0601f83011685010191505092915050565b85815284602082015260a060408201526000611ac360a0830186611a40565b6060830194909452509015156080909101529392505050565b60008060008060008060a08789031215611af557600080fd5b863595506020870135945060408701359350606087013567ffffffffffffffff80821115611b2257600080fd5b818901915089601f830112611b3657600080fd5b813581811115611b4557600080fd5b8a6020828501011115611b5757600080fd5b602083019550809450505050608087013590509295509295509295565b602081526000611a206020830184611a40565b60008060408385031215611b9a57600080fd5b611ba3836119dc565b946020939093013593505050565b801515811461086d57600080fd5b60008083601f840112611bd157600080fd5b50813567ffffffffffffffff811115611be957600080fd5b6020830191508360208260051b8501011115611c0457600080fd5b9250929050565b600080600080600060808688031215611c2357600080fd5b611c2c866119dc565b9450602086013593506040860135611c4381611bb1565b9250606086013567ffffffffffffffff811115611c5f57600080fd5b611c6b88828901611bbf565b969995985093965092949392505050565b60008060008060608587031215611c9257600080fd5b843593506020850135611ca481611bb1565b9250604085013567ffffffffffffffff811115611cc057600080fd5b611ccc87828801611bbf565b95989497509550505050565b60008060008060008060006080888a031215611cf357600080fd5b873567ffffffffffffffff80821115611d0b57600080fd5b611d178b838c01611bbf565b909950975060208a0135915080821115611d3057600080fd5b611d3c8b838c01611bbf565b909750955060408a01359150611d5182611bb1565b90935060608901359080821115611d6757600080fd5b50611d748a828b01611bbf565b989b979a50959850939692959293505050565b600181811c90821680611d9b57607f821691505b602082108103611dd4577f4e487b7100000000000000000000000000000000000000000000000000000000600052602260045260246000fd5b50919050565b600060208284031215611dec57600080fd5b8151611a2081611bb1565b7f4e487b7100000000000000000000000000000000000000000000000000000000600052601160045260246000fd5b80820180821115610b0e57610b0e611df7565b7f4e487b7100000000000000000000000000000000000000000000000000000000600052604160045260246000fd5b601f821115611eb257600081815260208120601f850160051c81016020861015611e8f5750805b601f850160051c820191505b81811015611eae57828155600101611e9b565b5050505b505050565b67ffffffffffffffff831115611ecf57611ecf611e39565b611ee383611edd8354611d87565b83611e68565b6000601f841160018114611f355760008515611eff5750838201355b7fffffffffffffffffffffffffffffffffffffffffffffffffffffffffffffffff600387901b1c1916600186901b178355610e1c565b6000838152602090207fffffffffffffffffffffffffffffffffffffffffffffffffffffffffffffffe0861690835b82811015611f845786850135825560209485019460019092019101611f64565b5086821015611fbf577fffffffffffffffffffffffffffffffffffffffffffffffffffffffffffffffff60f88860031b161c19848701351681555b505060018560011b0183555050505050565b8082028115828204841417610b0e57610b0e611df7565b60008261201e577f4e487b7100000000000000000000000000000000000000000000000000000000600052601260045260246000fd5b500490565b84815283602082015260606040820152816060820152818360808301376000818301608090810191909152601f9092017fffffffffffffffffffffffffffffffffffffffffffffffffffffffffffffffe01601019392505050565b81810381811115610b0e57610b0e611df7565b60007fffffffffffffffffffffffffffffffffffffffffffffffffffffffffffffffff82036120c2576120c2611df7565b5060010190565b7f4e487b7100000000000000000000000000000000000000000000000000000000600052603260045260246000fd5b60008083357fffffffffffffffffffffffffffffffffffffffffffffffffffffffffffffffe184360301811261212d57600080fd5b83018035915067ffffffffffffffff82111561214857600080fd5b6020019150600581901b3603821315611c0457600080fdfea265627a7a7231582077db7b016bf311d62f8c9bd2a0049de1399d67f938541aafb677111f6666c2c764736f6c63430008140032",
  "linkReferences": {},
  "deployedLinkReferences": {}
}