{
  "_format": "hh-sol-artifact-1",
  "contractName": "LPGauge",
  "sourceName": "contracts/LPGauge.sol",
  "abi": [
    {
      "inputs": [
        {
          "internalType": "address",
          "name": "_rewardToken",
          "type": "address"
        },
        {
          "internalType": "address",
          "name": "_lpToken",
          "type": "address"
        }
      ],
      "stateMutability": "nonpayable",
      "type": "constructor"
    },
    {
      "anonymous": false,
      "inputs": [
        {
          "indexed": true,
          "internalType": "address",
          "name": "user",
          "type": "address"
        },
        {
          "indexed": false,
          "internalType": "uint256",
          "name": "reward",
          "type": "uint256"
        }
      ],
      "name": "RewardPaid",
      "type": "event"
    },
    {
      "anonymous": false,
      "inputs": [
        {
          "indexed": false,
          "internalType": "uint256",
          "name": "newRate",
          "type": "uint256"
        },
        {
          "indexed": false,
          "internalType": "uint256",
          "name": "duration",
          "type": "uint256"
        }
      ],
      "name": "RewardRateUpdated",
      "type": "event"
    },
    {
      "anonymous": false,
      "inputs": [
        {
          "indexed": true,
          "internalType": "address",
          "name": "user",
          "type": "address"
        },
        {
          "indexed": false,
          "internalType": "uint256",
          "name": "amount",
          "type": "uint256"
        }
      ],
      "name": "Staked",
      "type": "event"
    },
    {
      "anonymous": false,
      "inputs": [
        {
          "indexed": true,
          "internalType": "address",
          "name": "user",
          "type": "address"
        },
        {
          "indexed": false,
          "internalType": "uint256",
          "name": "amount",
          "type": "uint256"
        }
      ],
      "name": "Withdrawn",
      "type": "event"
    },
    {
      "inputs": [
        {
          "internalType": "address",
          "name": "",
          "type": "address"
        }
      ],
      "name": "balanceOf",
      "outputs": [
        {
          "internalType": "uint256",
          "name": "",
          "type": "uint256"
        }
      ],
      "stateMutability": "view",
      "type": "function"
    },
    {
      "inputs": [
        {
          "internalType": "address",
          "name": "account",
          "type": "address"
        }
      ],
      "name": "earned",
      "outputs": [
        {
          "internalType": "uint256",
          "name": "",
          "type": "uint256"
        }
      ],
      "stateMutability": "view",
      "type": "function"
    },
    {
      "inputs": [
        {
          "internalType": "uint256",
          "name": "amount",
          "type": "uint256"
        }
      ],
      "name": "emergencyWithdraw",
      "outputs": [],
      "stateMutability": "nonpayable",
      "type": "function"
    },
    {
      "inputs": [],
      "name": "exit",
      "outputs": [],
      "stateMutability": "nonpayable",
      "type": "function"
    },
    {
      "inputs": [
        {
          "internalType": "uint256",
          "name": "amount",
          "type": "uint256"
        }
      ],
      "name": "fund",
      "outputs": [],
      "stateMutability": "nonpayable",
      "type": "function"
    },
    {
      "inputs": [],
      "name": "getGaugeInfo",
      "outputs": [
        {
          "internalType": "address",
          "name": "lpTokenAddress",
          "type": "address"
        },
        {
          "internalType": "uint256",
          "name": "totalStaked",
          "type": "uint256"
        },
        {
          "internalType": "uint256",
          "name": "currentRewardRate",
          "type": "uint256"
        },
        {
          "internalType": "uint256",
          "name": "rewardPerTokenValue",
          "type": "uint256"
        },
        {
          "internalType": "uint256",
          "name": "lastUpdate",
          "type": "uint256"
        }
      ],
      "stateMutability": "view",
      "type": "function"
    },
    {
      "inputs": [],
      "name": "getReward",
      "outputs": [],
      "stateMutability": "nonpayable",
      "type": "function"
    },
    {
      "inputs": [
        {
          "internalType": "address",
          "name": "user",
          "type": "address"
        }
      ],
      "name": "getUserInfo",
      "outputs": [
        {
          "internalType": "uint256",
          "name": "stakedBalance",
          "type": "uint256"
        },
        {
          "internalType": "uint256",
          "name": "earnedRewards",
          "type": "uint256"
        },
        {
          "internalType": "uint256",
          "name": "rewardRate_",
          "type": "uint256"
        }
      ],
      "stateMutability": "view",
      "type": "function"
    },
    {
      "inputs": [],
      "name": "lastUpdateTime",
      "outputs": [
        {
          "internalType": "uint256",
          "name": "",
          "type": "uint256"
        }
      ],
      "stateMutability": "view",
      "type": "function"
    },
    {
      "inputs": [],
      "name": "lpToken",
      "outputs": [
        {
          "internalType": "address",
          "name": "",
          "type": "address"
        }
      ],
      "stateMutability": "view",
      "type": "function"
    },
    {
      "inputs": [],
      "name": "owner",
      "outputs": [
        {
          "internalType": "address",
          "name": "",
          "type": "address"
        }
      ],
      "stateMutability": "view",
      "type": "function"
    },
    {
      "inputs": [],
      "name": "rewardPerToken",
      "outputs": [
        {
          "internalType": "uint256",
          "name": "",
          "type": "uint256"
        }
      ],
      "stateMutability": "view",
      "type": "function"
    },
    {
      "inputs": [],
      "name": "rewardPerTokenStored",
      "outputs": [
        {
          "internalType": "uint256",
          "name": "",
          "type": "uint256"
        }
      ],
      "stateMutability": "view",
      "type": "function"
    },
    {
      "inputs": [],
      "name": "rewardRate",
      "outputs": [
        {
          "internalType": "uint256",
          "name": "",
          "type": "uint256"
        }
      ],
      "stateMutability": "view",
      "type": "function"
    },
    {
      "inputs": [],
      "name": "rewardToken",
      "outputs": [
        {
          "internalType": "contract CodeDAOToken",
          "name": "",
          "type": "address"
        }
      ],
      "stateMutability": "view",
      "type": "function"
    },
    {
      "inputs": [
        {
          "internalType": "address",
          "name": "",
          "type": "address"
        }
      ],
      "name": "rewards",
      "outputs": [
        {
          "internalType": "uint256",
          "name": "",
          "type": "uint256"
        }
      ],
      "stateMutability": "view",
      "type": "function"
    },
    {
      "inputs": [
        {
          "internalType": "uint256",
          "name": "weeklyReward",
          "type": "uint256"
        }
      ],
      "name": "setRewardRate",
      "outputs": [],
      "stateMutability": "nonpayable",
      "type": "function"
    },
    {
      "inputs": [
        {
          "internalType": "uint256",
          "name": "amount",
          "type": "uint256"
        }
      ],
      "name": "stake",
      "outputs": [],
      "stateMutability": "nonpayable",
      "type": "function"
    },
    {
      "inputs": [],
      "name": "totalSupply",
      "outputs": [
        {
          "internalType": "uint256",
          "name": "",
          "type": "uint256"
        }
      ],
      "stateMutability": "view",
      "type": "function"
    },
    {
      "inputs": [
        {
          "internalType": "address",
          "name": "newOwner",
          "type": "address"
        }
      ],
      "name": "transferOwnership",
      "outputs": [],
      "stateMutability": "nonpayable",
      "type": "function"
    },
    {
      "inputs": [
        {
          "internalType": "address",
          "name": "",
          "type": "address"
        }
      ],
      "name": "userRewardPerTokenPaid",
      "outputs": [
        {
          "internalType": "uint256",
          "name": "",
          "type": "uint256"
        }
      ],
      "stateMutability": "view",
      "type": "function"
    },
    {
      "inputs": [
        {
          "internalType": "uint256",
          "name": "amount",
          "type": "uint256"
        }
      ],
      "name": "withdraw",
      "outputs": [],
      "stateMutability": "nonpayable",
      "type": "function"
    }
  ],
  "bytecode": "0x60c060405234801561001057600080fd5b5060405161155038038061155083398101604081905261002f91610074565b6001600160a01b039182166080521660a052600080546001600160a01b031916331790556100a7565b80516001600160a01b038116811461006f57600080fd5b919050565b6000806040838503121561008757600080fd5b61009083610058565b915061009e60208401610058565b90509250929050565b60805160a05161145a6100f66000396000818161025101528181610465015281816106630152610eae0152600081816103a2015281816108f801528181610ad501526110cd015261145a6000f3fe608060405234801561001057600080fd5b50600436106101815760003560e01c80638b876347116100d8578063ca1d209d1161008c578063e9fad8ee11610066578063e9fad8ee14610382578063f2fde38b1461038a578063f7c618c11461039d57600080fd5b8063ca1d209d1461035e578063cd3daf9d14610371578063df136d651461037957600080fd5b80639e447fc6116100bd5780639e447fc61461032f578063a694fc3a14610342578063c8f33c911461035557600080fd5b80638b876347146102ef5780638da5cb5b1461030f57600080fd5b80633d18b9121161013a5780636386c1c7116101145780636386c1c71461029857806370a08231146102c65780637b0a47ee146102e657600080fd5b80633d18b912146102315780635312ea8e146102395780635fcbd2851461024c57600080fd5b806318160ddd1161016b57806318160ddd146101cc5780632b3a3f38146101d55780632e1a7d4d1461021c57600080fd5b80628cc262146101865780630700037d146101ac575b600080fd5b6101996101943660046112d7565b6103c4565b6040519081526020015b60405180910390f35b6101996101ba3660046112d7565b60076020526000908152604090205481565b61019960045481565b6101dd61045b565b6040805173ffffffffffffffffffffffffffffffffffffffff90961686526020860194909452928401919091526060830152608082015260a0016101a3565b61022f61022a366004611314565b6104a6565b005b61022f610816565b61022f610247366004611314565b610a05565b6102737f000000000000000000000000000000000000000000000000000000000000000081565b60405173ffffffffffffffffffffffffffffffffffffffff90911681526020016101a3565b6102ab6102a63660046112d7565b610bae565b604080519384526020840192909252908201526060016101a3565b6101996102d43660046112d7565b60056020526000908152604090205481565b61019960015481565b6101996102fd3660046112d7565b60066020526000908152604090205481565b6000546102739073ffffffffffffffffffffffffffffffffffffffff1681565b61022f61033d366004611314565b610c5f565b61022f610350366004611314565b610da4565b61019960025481565b61022f61036c366004611314565b611092565b610199611111565b61019960035481565b61022f61116f565b61022f6103983660046112d7565b611192565b6102737f000000000000000000000000000000000000000000000000000000000000000081565b73ffffffffffffffffffffffffffffffffffffffff81166000908152600760209081526040808320546006909252822054670de0b6b3a764000090610407611111565b610411919061135c565b73ffffffffffffffffffffffffffffffffffffffff8516600090815260056020526040902054610441919061136f565b61044b9190611386565b61045591906113c1565b92915050565b60008060008060007f0000000000000000000000000000000000000000000000000000000000000000600454600154610492611111565b600254945094509450945094509091929394565b336104af611111565b6003554260025573ffffffffffffffffffffffffffffffffffffffff811615610514576104db816103c4565b73ffffffffffffffffffffffffffffffffffffffff82166000908152600760209081526040808320939093556003546006909152919020555b60008211610583576040517f08c379a000000000000000000000000000000000000000000000000000000000815260206004820152601160248201527f43616e6e6f74207769746864726177203000000000000000000000000000000060448201526064015b60405180910390fd5b336000908152600560205260409020548211156105fc576040517f08c379a000000000000000000000000000000000000000000000000000000000815260206004820152601460248201527f496e73756666696369656e742062616c616e6365000000000000000000000000604482015260640161057a565b816004600082825461060e919061135c565b9091555050336000908152600560205260408120805484929061063290849061135c565b909155505060405133602482015260448101839052600090819073ffffffffffffffffffffffffffffffffffffffff7f00000000000000000000000000000000000000000000000000000000000000001690606401604080517fffffffffffffffffffffffffffffffffffffffffffffffffffffffffffffffe08184030181529181526020820180517bffffffffffffffffffffffffffffffffffffffffffffffffffffffff167fa9059cbb000000000000000000000000000000000000000000000000000000001790525161070891906113d4565b6000604051808303816000865af19150503d8060008114610745576040519150601f19603f3d011682016040523d82523d6000602084013e61074a565b606091505b50915091508180156107745750805115806107745750808060200190518101906107749190611403565b6107da576040517f08c379a000000000000000000000000000000000000000000000000000000000815260206004820152601260248201527f4c50207472616e73666572206661696c65640000000000000000000000000000604482015260640161057a565b60405184815233907f7084f5476618d8e60b11ef0d7d3f06914655adb8793e28ff7f018d4c76d505d5906020015b60405180910390a250505050565b3361081f611111565b6003554260025573ffffffffffffffffffffffffffffffffffffffff8116156108845761084b816103c4565b73ffffffffffffffffffffffffffffffffffffffff82166000908152600760209081526040808320939093556003546006909152919020555b336000908152600760205260409020548015610a01573360008181526007602052604080822091909155517fa9059cbb00000000000000000000000000000000000000000000000000000000815260048101919091526024810182905273ffffffffffffffffffffffffffffffffffffffff7f0000000000000000000000000000000000000000000000000000000000000000169063a9059cbb906044016020604051808303816000875af1158015610941573d6000803e3d6000fd5b505050506040513d601f19601f820116820180604052508101906109659190611403565b6109cb576040517f08c379a000000000000000000000000000000000000000000000000000000000815260206004820152601660248201527f526577617264207472616e73666572206661696c656400000000000000000000604482015260640161057a565b60405181815233907fe2403640ba68fed3a2f88b7557551d1993f84b99bb10ff833f0cf8db0c5e04869060200160405180910390a25b5050565b60005473ffffffffffffffffffffffffffffffffffffffff163314610a86576040517f08c379a000000000000000000000000000000000000000000000000000000000815260206004820152600960248201527f4e6f74206f776e65720000000000000000000000000000000000000000000000604482015260640161057a565b6000546040517fa9059cbb00000000000000000000000000000000000000000000000000000000815273ffffffffffffffffffffffffffffffffffffffff9182166004820152602481018390527f00000000000000000000000000000000000000000000000000000000000000009091169063a9059cbb906044015b6020604051808303816000875af1158015610b21573d6000803e3d6000fd5b505050506040513d601f19601f82011682018060405250810190610b459190611403565b610bab576040517f08c379a000000000000000000000000000000000000000000000000000000000815260206004820152600f60248201527f5472616e73666572206661696c65640000000000000000000000000000000000604482015260640161057a565b50565b73ffffffffffffffffffffffffffffffffffffffff811660009081526005602052604081205481908190610be1856103c4565b73ffffffffffffffffffffffffffffffffffffffff8616600090815260056020526040902054610c12576000610c52565b60045473ffffffffffffffffffffffffffffffffffffffff8716600090815260056020526040902054600154610c48919061136f565b610c529190611386565b9250925092509193909250565b60005473ffffffffffffffffffffffffffffffffffffffff163314610ce0576040517f08c379a000000000000000000000000000000000000000000000000000000000815260206004820152600960248201527f4e6f74206f776e65720000000000000000000000000000000000000000000000604482015260640161057a565b6000610cea611111565b6003554260025573ffffffffffffffffffffffffffffffffffffffff811615610d4f57610d16816103c4565b73ffffffffffffffffffffffffffffffffffffffff82166000908152600760209081526040808320939093556003546006909152919020555b62093a80610d5d8184611386565b60018190554260025560408051918252602082018390527fc390a98ace15a7bb6bab611eedfdbb2685043b241a869420043cdfb23ccfee50910160405180910390a1505050565b33610dad611111565b6003554260025573ffffffffffffffffffffffffffffffffffffffff811615610e1257610dd9816103c4565b73ffffffffffffffffffffffffffffffffffffffff82166000908152600760209081526040808320939093556003546006909152919020555b60008211610e7c576040517f08c379a000000000000000000000000000000000000000000000000000000000815260206004820152600e60248201527f43616e6e6f74207374616b652030000000000000000000000000000000000000604482015260640161057a565b60405133602482015230604482015260648101839052600090819073ffffffffffffffffffffffffffffffffffffffff7f00000000000000000000000000000000000000000000000000000000000000001690608401604080517fffffffffffffffffffffffffffffffffffffffffffffffffffffffffffffffe08184030181529181526020820180517bffffffffffffffffffffffffffffffffffffffffffffffffffffffff167f23b872dd0000000000000000000000000000000000000000000000000000000017905251610f5391906113d4565b6000604051808303816000865af19150503d8060008114610f90576040519150601f19603f3d011682016040523d82523d6000602084013e610f95565b606091505b5091509150818015610fbf575080511580610fbf575080806020019051810190610fbf9190611403565b611025576040517f08c379a000000000000000000000000000000000000000000000000000000000815260206004820152601260248201527f4c50207472616e73666572206661696c65640000000000000000000000000000604482015260640161057a565b836004600082825461103791906113c1565b9091555050336000908152600560205260408120805486929061105b9084906113c1565b909155505060405184815233907f9e71bc8eea02a63969f509818f2dafb9254532904319f9dbda79b67bd34a5f3d90602001610808565b6040517f23b872dd000000000000000000000000000000000000000000000000000000008152336004820152306024820152604481018290527f000000000000000000000000000000000000000000000000000000000000000073ffffffffffffffffffffffffffffffffffffffff16906323b872dd90606401610b02565b6000600454600003611124575060035490565b600454600154600254611137904261135c565b611141919061136f565b61115390670de0b6b3a764000061136f565b61115d9190611386565b60035461116a91906113c1565b905090565b33600090815260056020526040902054611188906104a6565b611190610816565b565b60005473ffffffffffffffffffffffffffffffffffffffff163314611213576040517f08c379a000000000000000000000000000000000000000000000000000000000815260206004820152600960248201527f4e6f74206f776e65720000000000000000000000000000000000000000000000604482015260640161057a565b73ffffffffffffffffffffffffffffffffffffffff8116611290576040517f08c379a000000000000000000000000000000000000000000000000000000000815260206004820152600f60248201527f496e76616c696420616464726573730000000000000000000000000000000000604482015260640161057a565b600080547fffffffffffffffffffffffff00000000000000000000000000000000000000001673ffffffffffffffffffffffffffffffffffffffff92909216919091179055565b6000602082840312156112e957600080fd5b813573ffffffffffffffffffffffffffffffffffffffff8116811461130d57600080fd5b9392505050565b60006020828403121561132657600080fd5b5035919050565b7f4e487b7100000000000000000000000000000000000000000000000000000000600052601160045260246000fd5b818103818111156104555761045561132d565b80820281158282048414176104555761045561132d565b6000826113bc577f4e487b7100000000000000000000000000000000000000000000000000000000600052601260045260246000fd5b500490565b808201808211156104555761045561132d565b6000825160005b818110156113f557602081860181015185830152016113db565b506000920191825250919050565b60006020828403121561141557600080fd5b8151801515811461130d57600080fdfea265627a7a72315820b52d140d6b82c4bbac47f6a0b329552684176807aadf5275875b9dbf38fff0c064736f6c63430008140032",
  "linkReferences": {},
  "deployedLinkReferences": {}
}