{
  "_format": "hh-sol-artifact-1",
  "contractName": "CodeDAOToken",
  "sourceName": "contracts/CodeDAOToken.sol",
  "abi": [
    {
      "inputs": [],
      "stateMutability": "nonpayable",
      "type": "constructor"
    },
    {
      "inputs": [
        {
          "internalType": "address",
          "name": "spender",
          "type": "address"
        },
        {
          "internalType": "uint256",
          "name": "allowance",
          "type": "uint256"
        },
        {
          "internalType": "uint256",
          "name": "needed",
          "type": "uint256"
        }
      ],
      "name": "ERC20InsufficientAllowance",
      "type": "error"
    },
    {
      "inputs": [
        {
          "internalType": "address",
          "name": "sender",
          "type": "address"
        },
        {
          "internalType": "uint256",
          "name": "balance",
          "type": "uint256"
        },
        {
          "internalType": "uint256",
          "name": "needed",
          "type": "uint256"
        }
      ],
      "name": "ERC20InsufficientBalance",
      "type": "error"
    },
    {
      "inputs": [
        {
          "internalType": "address",
          "name": "approver",
          "type": "address"
        }
      ],
      "name": "ERC20InvalidApprover",
      "type": "error"
    },
    {
      "inputs": [
        {
          "internalType": "address",
          "name": "receiver",
          "type": "address"
        }
      ],
      "name": "ERC20InvalidReceiver",
      "type": "error"
    },
    {
      "inputs": [
        {
          "internalType": "address",
          "name": "sender",
          "type": "address"
        }
      ],
      "name": "ERC20InvalidSender",
      "type": "error"
    },
    {
      "inputs": [
        {
          "internalType": "address",
          "name": "spender",
          "type": "address"
        }
      ],
      "name": "ERC20InvalidSpender",
      "type": "error"
    },
    {
      "inputs": [],
      "name": "EnforcedPause",
      "type": "error"
    },
    {
      "inputs": [],
      "name": "ExpectedPause",
      "type": "error"
    },
    {
      "inputs": [
        {
          "internalType": "address",
          "name": "owner",
          "type": "address"
        }
      ],
      "name": "OwnableInvalidOwner",
      "type": "error"
    },
    {
      "inputs": [
        {
          "internalType": "address",
          "name": "account",
          "type": "address"
        }
      ],
      "name": "OwnableUnauthorizedAccount",
      "type": "error"
    },
    {
      "anonymous": false,
      "inputs": [
        {
          "indexed": true,
          "internalType": "address",
          "name": "owner",
          "type": "address"
        },
        {
          "indexed": true,
          "internalType": "address",
          "name": "spender",
          "type": "address"
        },
        {
          "indexed": false,
          "internalType": "uint256",
          "name": "value",
          "type": "uint256"
        }
      ],
      "name": "Approval",
      "type": "event"
    },
    {
      "anonymous": false,
      "inputs": [
        {
          "indexed": true,
          "internalType": "address",
          "name": "user",
          "type": "address"
        },
        {
          "indexed": false,
          "internalType": "uint256",
          "name": "amount",
          "type": "uint256"
        },
        {
          "indexed": false,
          "internalType": "uint256",
          "name": "linesWritten",
          "type": "uint256"
        },
        {
          "indexed": false,
          "internalType": "string",
          "name": "reason",
          "type": "string"
        }
      ],
      "name": "CodingReward",
      "type": "event"
    },
    {
      "anonymous": false,
      "inputs": [
        {
          "indexed": true,
          "internalType": "address",
          "name": "minter",
          "type": "address"
        }
      ],
      "name": "MinterAuthorized",
      "type": "event"
    },
    {
      "anonymous": false,
      "inputs": [
        {
          "indexed": true,
          "internalType": "address",
          "name": "minter",
          "type": "address"
        }
      ],
      "name": "MinterRevoked",
      "type": "event"
    },
    {
      "anonymous": false,
      "inputs": [],
      "name": "MintingPermanentlyRevoked",
      "type": "event"
    },
    {
      "anonymous": false,
      "inputs": [
        {
          "indexed": true,
          "internalType": "address",
          "name": "previousOwner",
          "type": "address"
        },
        {
          "indexed": true,
          "internalType": "address",
          "name": "newOwner",
          "type": "address"
        }
      ],
      "name": "OwnershipTransferred",
      "type": "event"
    },
    {
      "anonymous": false,
      "inputs": [
        {
          "indexed": false,
          "internalType": "address",
          "name": "account",
          "type": "address"
        }
      ],
      "name": "Paused",
      "type": "event"
    },
    {
      "anonymous": false,
      "inputs": [
        {
          "indexed": true,
          "internalType": "address",
          "name": "from",
          "type": "address"
        },
        {
          "indexed": true,
          "internalType": "address",
          "name": "to",
          "type": "address"
        },
        {
          "indexed": false,
          "internalType": "uint256",
          "name": "value",
          "type": "uint256"
        }
      ],
      "name": "Transfer",
      "type": "event"
    },
    {
      "anonymous": false,
      "inputs": [
        {
          "indexed": false,
          "internalType": "address",
          "name": "account",
          "type": "address"
        }
      ],
      "name": "Unpaused",
      "type": "event"
    },
    {
      "inputs": [],
      "name": "MAX_SUPPLY",
      "outputs": [
        {
          "internalType": "uint256",
          "name": "",
          "type": "uint256"
        }
      ],
      "stateMutability": "view",
      "type": "function"
    },
    {
      "inputs": [
        {
          "internalType": "address",
          "name": "owner",
          "type": "address"
        },
        {
          "internalType": "address",
          "name": "spender",
          "type": "address"
        }
      ],
      "name": "allowance",
      "outputs": [
        {
          "internalType": "uint256",
          "name": "",
          "type": "uint256"
        }
      ],
      "stateMutability": "view",
      "type": "function"
    },
    {
      "inputs": [
        {
          "internalType": "address",
          "name": "spender",
          "type": "address"
        },
        {
          "internalType": "uint256",
          "name": "value",
          "type": "uint256"
        }
      ],
      "name": "approve",
      "outputs": [
        {
          "internalType": "bool",
          "name": "",
          "type": "bool"
        }
      ],
      "stateMutability": "nonpayable",
      "type": "function"
    },
    {
      "inputs": [
        {
          "internalType": "address",
          "name": "minter",
          "type": "address"
        }
      ],
      "name": "authorizeMinter",
      "outputs": [],
      "stateMutability": "nonpayable",
      "type": "function"
    },
    {
      "inputs": [
        {
          "internalType": "address",
          "name": "",
          "type": "address"
        }
      ],
      "name": "authorizedMinters",
      "outputs": [
        {
          "internalType": "bool",
          "name": "",
          "type": "bool"
        }
      ],
      "stateMutability": "view",
      "type": "function"
    },
    {
      "inputs": [
        {
          "internalType": "address",
          "name": "account",
          "type": "address"
        }
      ],
      "name": "balanceOf",
      "outputs": [
        {
          "internalType": "uint256",
          "name": "",
          "type": "uint256"
        }
      ],
      "stateMutability": "view",
      "type": "function"
    },
    {
      "inputs": [
        {
          "internalType": "address",
          "name": "",
          "type": "address"
        }
      ],
      "name": "contributionCount",
      "outputs": [
        {
          "internalType": "uint256",
          "name": "",
          "type": "uint256"
        }
      ],
      "stateMutability": "view",
      "type": "function"
    },
    {
      "inputs": [],
      "name": "decimals",
      "outputs": [
        {
          "internalType": "uint8",
          "name": "",
          "type": "uint8"
        }
      ],
      "stateMutability": "view",
      "type": "function"
    },
    {
      "inputs": [
        {
          "internalType": "address",
          "name": "user",
          "type": "address"
        }
      ],
      "name": "getUserStats",
      "outputs": [
        {
          "internalType": "uint256",
          "name": "balance",
          "type": "uint256"
        },
        {
          "internalType": "uint256",
          "name": "contributions",
          "type": "uint256"
        },
        {
          "internalType": "uint256",
          "name": "linesWritten",
          "type": "uint256"
        }
      ],
      "stateMutability": "view",
      "type": "function"
    },
    {
      "inputs": [
        {
          "internalType": "address",
          "name": "user",
          "type": "address"
        },
        {
          "internalType": "uint256",
          "name": "amount",
          "type": "uint256"
        },
        {
          "internalType": "uint256",
          "name": "linesWritten",
          "type": "uint256"
        },
        {
          "internalType": "string",
          "name": "reason",
          "type": "string"
        }
      ],
      "name": "mintForContribution",
      "outputs": [],
      "stateMutability": "nonpayable",
      "type": "function"
    },
    {
      "inputs": [],
      "name": "mintingRevoked",
      "outputs": [
        {
          "internalType": "bool",
          "name": "",
          "type": "bool"
        }
      ],
      "stateMutability": "view",
      "type": "function"
    },
    {
      "inputs": [],
      "name": "name",
      "outputs": [
        {
          "internalType": "string",
          "name": "",
          "type": "string"
        }
      ],
      "stateMutability": "view",
      "type": "function"
    },
    {
      "inputs": [],
      "name": "owner",
      "outputs": [
        {
          "internalType": "address",
          "name": "",
          "type": "address"
        }
      ],
      "stateMutability": "view",
      "type": "function"
    },
    {
      "inputs": [],
      "name": "pause",
      "outputs": [],
      "stateMutability": "nonpayable",
      "type": "function"
    },
    {
      "inputs": [],
      "name": "paused",
      "outputs": [
        {
          "internalType": "bool",
          "name": "",
          "type": "bool"
        }
      ],
      "stateMutability": "view",
      "type": "function"
    },
    {
      "inputs": [],
      "name": "renounceOwnership",
      "outputs": [],
      "stateMutability": "nonpayable",
      "type": "function"
    },
    {
      "inputs": [
        {
          "internalType": "address",
          "name": "minter",
          "type": "address"
        }
      ],
      "name": "revokeMinter",
      "outputs": [],
      "stateMutability": "nonpayable",
      "type": "function"
    },
    {
      "inputs": [],
      "name": "revokeMintingPermanently",
      "outputs": [],
      "stateMutability": "nonpayable",
      "type": "function"
    },
    {
      "inputs": [],
      "name": "symbol",
      "outputs": [
        {
          "internalType": "string",
          "name": "",
          "type": "string"
        }
      ],
      "stateMutability": "view",
      "type": "function"
    },
    {
      "inputs": [
        {
          "internalType": "address",
          "name": "",
          "type": "address"
        }
      ],
      "name": "totalLinesWritten",
      "outputs": [
        {
          "internalType": "uint256",
          "name": "",
          "type": "uint256"
        }
      ],
      "stateMutability": "view",
      "type": "function"
    },
    {
      "inputs": [],
      "name": "totalSupply",
      "outputs": [
        {
          "internalType": "uint256",
          "name": "",
          "type": "uint256"
        }
      ],
      "stateMutability": "view",
      "type": "function"
    },
    {
      "inputs": [
        {
          "internalType": "address",
          "name": "to",
          "type": "address"
        },
        {
          "internalType": "uint256",
          "name": "value",
          "type": "uint256"
        }
      ],
      "name": "transfer",
      "outputs": [
        {
          "internalType": "bool",
          "name": "",
          "type": "bool"
        }
      ],
      "stateMutability": "nonpayable",
      "type": "function"
    },
    {
      "inputs": [
        {
          "internalType": "address",
          "name": "from",
          "type": "address"
        },
        {
          "internalType": "address",
          "name": "to",
          "type": "address"
        },
        {
          "internalType": "uint256",
          "name": "value",
          "type": "uint256"
        }
      ],
      "name": "transferFrom",
      "outputs": [
        {
          "internalType": "bool",
          "name": "",
          "type": "bool"
        }
      ],
      "stateMutability": "nonpayable",
      "type": "function"
    },
    {
      "inputs": [
        {
          "internalType": "address",
          "name": "newOwner",
          "type": "address"
        }
      ],
      "name": "transferOwnership",
      "outputs": [],
      "stateMutability": "nonpayable",
      "type": "function"
    },
    {
      "inputs": [],
      "name": "unpause",
      "outputs": [],
      "stateMutability": "nonpayable",
      "type": "function"
    }
  ],
  "bytecode": "0x60806040523480156200001157600080fd5b50336040518060400160405280600d81526020017f436f646544414f20546f6b656e000000000000000000000000000000000000008152506040518060400160405280600481526020017f434f444500000000000000000000000000000000000000000000000000000000815250816003908162000090919062000889565b508060049081620000a2919062000889565b505050600073ffffffffffffffffffffffffffffffffffffffff168173ffffffffffffffffffffffffffffffffffffffff16036200011a5760006040517f1e4fbdf7000000000000000000000000000000000000000000000000000000008152600401620001119190620009b5565b60405180910390fd5b6200012b81620001eb60201b60201c565b506200014a336b033b2e3c9fd0803ce8000000620002b160201b60201c565b6001600660003373ffffffffffffffffffffffffffffffffffffffff1673ffffffffffffffffffffffffffffffffffffffff16815260200190815260200160002060006101000a81548160ff0219169083151502179055503373ffffffffffffffffffffffffffffffffffffffff167f83b05b6735acd4b85e3bded8e72c851d1a87718f81e3c8e6f0c9d9a2baa88e4660405160405180910390a262000aa7565b6000600560019054906101000a900473ffffffffffffffffffffffffffffffffffffffff16905081600560016101000a81548173ffffffffffffffffffffffffffffffffffffffff021916908373ffffffffffffffffffffffffffffffffffffffff1602179055508173ffffffffffffffffffffffffffffffffffffffff168173ffffffffffffffffffffffffffffffffffffffff167f8be0079c531659141344cd1fd0a4f28419497f9722a3daafe3b4186f6b6457e060405160405180910390a35050565b600073ffffffffffffffffffffffffffffffffffffffff168273ffffffffffffffffffffffffffffffffffffffff1603620003265760006040517fec442f050000000000000000000000000000000000000000000000000000000081526004016200031d9190620009b5565b60405180910390fd5b6200033a600083836200033e60201b60201c565b5050565b620003518383836200035660201b60201c565b505050565b620003666200037e60201b60201c565b62000379838383620003c860201b60201c565b505050565b6200038e620005f860201b60201c565b15620003c6576040517fd93c066500000000000000000000000000000000000000000000000000000000815260040160405180910390fd5b565b600073ffffffffffffffffffffffffffffffffffffffff168373ffffffffffffffffffffffffffffffffffffffff16036200041e57806002600082825462000411919062000a01565b92505081905550620004f4565b60008060008573ffffffffffffffffffffffffffffffffffffffff1673ffffffffffffffffffffffffffffffffffffffff16815260200190815260200160002054905081811015620004ad578381836040517fe450d38c000000000000000000000000000000000000000000000000000000008152600401620004a49392919062000a4d565b60405180910390fd5b8181036000808673ffffffffffffffffffffffffffffffffffffffff1673ffffffffffffffffffffffffffffffffffffffff16815260200190815260200160002081905550505b600073ffffffffffffffffffffffffffffffffffffffff168273ffffffffffffffffffffffffffffffffffffffff16036200053f57806002600082825403925050819055506200058c565b806000808473ffffffffffffffffffffffffffffffffffffffff1673ffffffffffffffffffffffffffffffffffffffff168152602001908152602001600020600082825401925050819055505b8173ffffffffffffffffffffffffffffffffffffffff168373ffffffffffffffffffffffffffffffffffffffff167fddf252ad1be2c89b69c2b068fc378daa952ba7f163c4a11628f55a4df523b3ef83604051620005eb919062000a8a565b60405180910390a3505050565b6000600560009054906101000a900460ff16905090565b600081519050919050565b7f4e487b7100000000000000000000000000000000000000000000000000000000600052604160045260246000fd5b7f4e487b7100000000000000000000000000000000000000000000000000000000600052602260045260246000fd5b600060028204905060018216806200069157607f821691505b602082108103620006a757620006a662000649565b5b50919050565b60008190508160005260206000209050919050565b60006020601f8301049050919050565b600082821b905092915050565b600060088302620007117fffffffffffffffffffffffffffffffffffffffffffffffffffffffffffffffff82620006d2565b6200071d8683620006d2565b95508019841693508086168417925050509392505050565b6000819050919050565b6000819050919050565b60006200076a620007646200075e8462000735565b6200073f565b62000735565b9050919050565b6000819050919050565b620007868362000749565b6200079e620007958262000771565b848454620006df565b825550505050565b600090565b620007b5620007a6565b620007c28184846200077b565b505050565b5b81811015620007ea57620007de600082620007ab565b600181019050620007c8565b5050565b601f82111562000839576200080381620006ad565b6200080e84620006c2565b810160208510156200081e578190505b620008366200082d85620006c2565b830182620007c7565b50505b505050565b600082821c905092915050565b60006200085e600019846008026200083e565b1980831691505092915050565b60006200087983836200084b565b9150826002028217905092915050565b62000894826200060f565b67ffffffffffffffff811115620008b057620008af6200061a565b5b620008bc825462000678565b620008c9828285620007ee565b600060209050601f831160018114620009015760008415620008ec578287015190505b620008f885826200086b565b86555062000968565b601f1984166200091186620006ad565b60005b828110156200093b5784890151825560018201915060208501945060208101905062000914565b868310156200095b578489015162000957601f8916826200084b565b8355505b6001600288020188555050505b505050505050565b600073ffffffffffffffffffffffffffffffffffffffff82169050919050565b60006200099d8262000970565b9050919050565b620009af8162000990565b82525050565b6000602082019050620009cc6000830184620009a4565b92915050565b7f4e487b7100000000000000000000000000000000000000000000000000000000600052601160045260246000fd5b600062000a0e8262000735565b915062000a1b8362000735565b925082820190508082111562000a365762000a35620009d2565b5b92915050565b62000a478162000735565b82525050565b600060608201905062000a646000830186620009a4565b62000a73602083018562000a3c565b62000a82604083018462000a3c565b949350505050565b600060208201905062000aa1600083018462000a3c565b92915050565b611e808062000ab76000396000f3fe608060405234801561001057600080fd5b50600436106101735760003560e01c806370a08231116100de578063a405eb8f11610097578063cfbd488511610071578063cfbd488514610440578063dd62ed3e1461045c578063dd8393a11461048c578063f2fde38b1461049657610173565b8063a405eb8f146103b0578063a9059cbb146103e0578063aa2fe91b1461041057610173565b806370a0823114610314578063715018a6146103445780637cb203ca1461034e5780638456cb591461036a5780638da5cb5b1461037457806395d89b411461039257610173565b8063313ce56711610130578063313ce5671461026057806332cb6b0c1461027e5780633f4ba83a1461029c5780634465394a146102a65780634e43603a146102c45780635c975abb146102f657610173565b806305295cba1461017857806306fdde03146101a8578063095ea7b3146101c65780630c984832146101f657806318160ddd1461021257806323b872dd14610230575b600080fd5b610192600480360381019061018d9190611731565b6104b2565b60405161019f9190611777565b60405180910390f35b6101b06104ca565b6040516101bd9190611822565b60405180910390f35b6101e060048036038101906101db9190611870565b61055c565b6040516101ed91906118cb565b60405180910390f35b610210600480360381019061020b9190611731565b61057f565b005b61021a610675565b6040516102279190611777565b60405180910390f35b61024a600480360381019061024591906118e6565b61067f565b60405161025791906118cb565b60405180910390f35b6102686106ae565b6040516102759190611955565b60405180910390f35b6102866106b7565b6040516102939190611777565b60405180910390f35b6102a46106c7565b005b6102ae6106d9565b6040516102bb91906118cb565b60405180910390f35b6102de60048036038101906102d99190611731565b6106ec565b6040516102ed93929190611970565b60405180910390f35b6102fe610787565b60405161030b91906118cb565b60405180910390f35b61032e60048036038101906103299190611731565b61079e565b60405161033b9190611777565b60405180910390f35b61034c6107e6565b005b61036860048036038101906103639190611a0c565b6107fa565b005b610372610abf565b005b61037c610ad1565b6040516103899190611aa3565b60405180910390f35b61039a610afb565b6040516103a79190611822565b60405180910390f35b6103ca60048036038101906103c59190611731565b610b8d565b6040516103d79190611777565b60405180910390f35b6103fa60048036038101906103f59190611870565b610ba5565b60405161040791906118cb565b60405180910390f35b61042a60048036038101906104259190611731565b610bc8565b60405161043791906118cb565b60405180910390f35b61045a60048036038101906104559190611731565b610be8565b005b61047660048036038101906104719190611abe565b610c8e565b6040516104839190611777565b60405180910390f35b610494610d15565b005b6104b060048036038101906104ab9190611731565b610d66565b005b60086020528060005260406000206000915090505481565b6060600380546104d990611b2d565b80601f016020809104026020016040519081016040528092919081815260200182805461050590611b2d565b80156105525780601f1061052757610100808354040283529160200191610552565b820191906000526020600020905b81548152906001019060200180831161053557829003601f168201915b5050505050905090565b600080610567610dec565b9050610574818585610df4565b600191505092915050565b610587610e06565b600760009054906101000a900460ff16156105d7576040517f08c379a00000000000000000000000000000000000000000000000000000000081526004016105ce90611bd0565b60405180910390fd5b6001600660008373ffffffffffffffffffffffffffffffffffffffff1673ffffffffffffffffffffffffffffffffffffffff16815260200190815260200160002060006101000a81548160ff0219169083151502179055508073ffffffffffffffffffffffffffffffffffffffff167f83b05b6735acd4b85e3bded8e72c851d1a87718f81e3c8e6f0c9d9a2baa88e4660405160405180910390a250565b6000600254905090565b60008061068a610dec565b9050610697858285610e8d565b6106a2858585610f22565b60019150509392505050565b60006012905090565b6b033b2e3c9fd0803ce800000081565b6106cf610e06565b6106d7611016565b565b600760009054906101000a900460ff1681565b60008060006106fa8461079e565b600860008673ffffffffffffffffffffffffffffffffffffffff1673ffffffffffffffffffffffffffffffffffffffff16815260200190815260200160002054600960008773ffffffffffffffffffffffffffffffffffffffff1673ffffffffffffffffffffffffffffffffffffffff168152602001908152602001600020549250925092509193909250565b6000600560009054906101000a900460ff16905090565b60008060008373ffffffffffffffffffffffffffffffffffffffff1673ffffffffffffffffffffffffffffffffffffffff168152602001908152602001600020549050919050565b6107ee610e06565b6107f86000611079565b565b61080261113f565b600760009054906101000a900460ff1615610852576040517f08c379a000000000000000000000000000000000000000000000000000000000815260040161084990611bd0565b60405180910390fd5b600660003373ffffffffffffffffffffffffffffffffffffffff1673ffffffffffffffffffffffffffffffffffffffff16815260200190815260200160002060009054906101000a900460ff166108de576040517f08c379a00000000000000000000000000000000000000000000000000000000081526004016108d590611c3c565b60405180910390fd5b6b033b2e3c9fd0803ce8000000846108f4610675565b6108fe9190611c8b565b111561093f576040517f08c379a000000000000000000000000000000000000000000000000000000000815260040161093690611d0b565b60405180910390fd5b600073ffffffffffffffffffffffffffffffffffffffff168573ffffffffffffffffffffffffffffffffffffffff16036109ae576040517f08c379a00000000000000000000000000000000000000000000000000000000081526004016109a590611d77565b60405180910390fd5b82600860008773ffffffffffffffffffffffffffffffffffffffff1673ffffffffffffffffffffffffffffffffffffffff16815260200190815260200160002060008282546109fd9190611c8b565b9250508190555082600960008773ffffffffffffffffffffffffffffffffffffffff1673ffffffffffffffffffffffffffffffffffffffff1681526020019081526020016000206000828254610a539190611c8b565b92505081905550610a648585611180565b8473ffffffffffffffffffffffffffffffffffffffff167ffd2e7987a1a9c9b7e51e5e41405b890e16e03b2553e861ecff36b017f629027c85858585604051610ab09493929190611dd3565b60405180910390a25050505050565b610ac7610e06565b610acf611202565b565b6000600560019054906101000a900473ffffffffffffffffffffffffffffffffffffffff16905090565b606060048054610b0a90611b2d565b80601f0160208091040260200160405190810160405280929190818152602001828054610b3690611b2d565b8015610b835780601f10610b5857610100808354040283529160200191610b83565b820191906000526020600020905b815481529060010190602001808311610b6657829003601f168201915b5050505050905090565b60096020528060005260406000206000915090505481565b600080610bb0610dec565b9050610bbd818585610f22565b600191505092915050565b60066020528060005260406000206000915054906101000a900460ff1681565b610bf0610e06565b6000600660008373ffffffffffffffffffffffffffffffffffffffff1673ffffffffffffffffffffffffffffffffffffffff16815260200190815260200160002060006101000a81548160ff0219169083151502179055508073ffffffffffffffffffffffffffffffffffffffff167f44f4322f8daa225d5f4877ad0f7d3dfba248a774396f3ca99405ed40a044fe8160405160405180910390a250565b6000600160008473ffffffffffffffffffffffffffffffffffffffff1673ffffffffffffffffffffffffffffffffffffffff16815260200190815260200160002060008373ffffffffffffffffffffffffffffffffffffffff1673ffffffffffffffffffffffffffffffffffffffff16815260200190815260200160002054905092915050565b610d1d610e06565b6001600760006101000a81548160ff0219169083151502179055507f616d0675d857b8ef06930f41f39f9054c6dec1c6b60f3018fc6cc675284fcaac60405160405180910390a1565b610d6e610e06565b600073ffffffffffffffffffffffffffffffffffffffff168173ffffffffffffffffffffffffffffffffffffffff1603610de05760006040517f1e4fbdf7000000000000000000000000000000000000000000000000000000008152600401610dd79190611aa3565b60405180910390fd5b610de981611079565b50565b600033905090565b610e018383836001611265565b505050565b610e0e610dec565b73ffffffffffffffffffffffffffffffffffffffff16610e2c610ad1565b73ffffffffffffffffffffffffffffffffffffffff1614610e8b57610e4f610dec565b6040517f118cdaa7000000000000000000000000000000000000000000000000000000008152600401610e829190611aa3565b60405180910390fd5b565b6000610e998484610c8e565b90507fffffffffffffffffffffffffffffffffffffffffffffffffffffffffffffffff811015610f1c5781811015610f0c578281836040517ffb8f41b2000000000000000000000000000000000000000000000000000000008152600401610f0393929190611e13565b60405180910390fd5b610f1b84848484036000611265565b5b50505050565b600073ffffffffffffffffffffffffffffffffffffffff168373ffffffffffffffffffffffffffffffffffffffff1603610f945760006040517f96c6fd1e000000000000000000000000000000000000000000000000000000008152600401610f8b9190611aa3565b60405180910390fd5b600073ffffffffffffffffffffffffffffffffffffffff168273ffffffffffffffffffffffffffffffffffffffff16036110065760006040517fec442f05000000000000000000000000000000000000000000000000000000008152600401610ffd9190611aa3565b60405180910390fd5b61101183838361143c565b505050565b61101e61144c565b6000600560006101000a81548160ff0219169083151502179055507f5db9ee0a495bf2e6ff9c91a7834c1ba4fdd244a5e8aa4e537bd38aeae4b073aa611062610dec565b60405161106f9190611aa3565b60405180910390a1565b6000600560019054906101000a900473ffffffffffffffffffffffffffffffffffffffff16905081600560016101000a81548173ffffffffffffffffffffffffffffffffffffffff021916908373ffffffffffffffffffffffffffffffffffffffff1602179055508173ffffffffffffffffffffffffffffffffffffffff168173ffffffffffffffffffffffffffffffffffffffff167f8be0079c531659141344cd1fd0a4f28419497f9722a3daafe3b4186f6b6457e060405160405180910390a35050565b611147610787565b1561117e576040517fd93c066500000000000000000000000000000000000000000000000000000000815260040160405180910390fd5b565b600073ffffffffffffffffffffffffffffffffffffffff168273ffffffffffffffffffffffffffffffffffffffff16036111f25760006040517fec442f050000000000000000000000000000000000000000000000000000000081526004016111e99190611aa3565b60405180910390fd5b6111fe6000838361143c565b5050565b61120a61113f565b6001600560006101000a81548160ff0219169083151502179055507f62e78cea01bee320cd4e420270b5ea74000d11b0c9f74754ebdbfc544b05a25861124e610dec565b60405161125b9190611aa3565b60405180910390a1565b600073ffffffffffffffffffffffffffffffffffffffff168473ffffffffffffffffffffffffffffffffffffffff16036112d75760006040517fe602df050000000000000000000000000000000000000000000000000000000081526004016112ce9190611aa3565b60405180910390fd5b600073ffffffffffffffffffffffffffffffffffffffff168373ffffffffffffffffffffffffffffffffffffffff16036113495760006040517f94280d620000000000000000000000000000000000000000000000000000000081526004016113409190611aa3565b60405180910390fd5b81600160008673ffffffffffffffffffffffffffffffffffffffff1673ffffffffffffffffffffffffffffffffffffffff16815260200190815260200160002060008573ffffffffffffffffffffffffffffffffffffffff1673ffffffffffffffffffffffffffffffffffffffff168152602001908152602001600020819055508015611436578273ffffffffffffffffffffffffffffffffffffffff168473ffffffffffffffffffffffffffffffffffffffff167f8c5be1e5ebec7d5bd14f71427d1e84f3dd0314c0f7b2291e5b200ac8c7c3b9258460405161142d9190611777565b60405180910390a35b50505050565b61144783838361148c565b505050565b611454610787565b61148a576040517f8dfc202b00000000000000000000000000000000000000000000000000000000815260040160405180910390fd5b565b61149461113f565b61149f8383836114a4565b505050565b600073ffffffffffffffffffffffffffffffffffffffff168373ffffffffffffffffffffffffffffffffffffffff16036114f65780600260008282546114ea9190611c8b565b925050819055506115c9565b60008060008573ffffffffffffffffffffffffffffffffffffffff1673ffffffffffffffffffffffffffffffffffffffff16815260200190815260200160002054905081811015611582578381836040517fe450d38c00000000000000000000000000000000000000000000000000000000815260040161157993929190611e13565b60405180910390fd5b8181036000808673ffffffffffffffffffffffffffffffffffffffff1673ffffffffffffffffffffffffffffffffffffffff16815260200190815260200160002081905550505b600073ffffffffffffffffffffffffffffffffffffffff168273ffffffffffffffffffffffffffffffffffffffff1603611612578060026000828254039250508190555061165f565b806000808473ffffffffffffffffffffffffffffffffffffffff1673ffffffffffffffffffffffffffffffffffffffff168152602001908152602001600020600082825401925050819055505b8173ffffffffffffffffffffffffffffffffffffffff168373ffffffffffffffffffffffffffffffffffffffff167fddf252ad1be2c89b69c2b068fc378daa952ba7f163c4a11628f55a4df523b3ef836040516116bc9190611777565b60405180910390a3505050565b600080fd5b600080fd5b600073ffffffffffffffffffffffffffffffffffffffff82169050919050565b60006116fe826116d3565b9050919050565b61170e816116f3565b811461171957600080fd5b50565b60008135905061172b81611705565b92915050565b600060208284031215611747576117466116c9565b5b60006117558482850161171c565b91505092915050565b6000819050919050565b6117718161175e565b82525050565b600060208201905061178c6000830184611768565b92915050565b600081519050919050565b600082825260208201905092915050565b60005b838110156117cc5780820151818401526020810190506117b1565b60008484015250505050565b6000601f19601f8301169050919050565b60006117f482611792565b6117fe818561179d565b935061180e8185602086016117ae565b611817816117d8565b840191505092915050565b6000602082019050818103600083015261183c81846117e9565b905092915050565b61184d8161175e565b811461185857600080fd5b50565b60008135905061186a81611844565b92915050565b60008060408385031215611887576118866116c9565b5b60006118958582860161171c565b92505060206118a68582860161185b565b9150509250929050565b60008115159050919050565b6118c5816118b0565b82525050565b60006020820190506118e060008301846118bc565b92915050565b6000806000606084860312156118ff576118fe6116c9565b5b600061190d8682870161171c565b935050602061191e8682870161171c565b925050604061192f8682870161185b565b9150509250925092565b600060ff82169050919050565b61194f81611939565b82525050565b600060208201905061196a6000830184611946565b92915050565b60006060820190506119856000830186611768565b6119926020830185611768565b61199f6040830184611768565b949350505050565b600080fd5b600080fd5b600080fd5b60008083601f8401126119cc576119cb6119a7565b5b8235905067ffffffffffffffff8111156119e9576119e86119ac565b5b602083019150836001820283011115611a0557611a046119b1565b5b9250929050565b600080600080600060808688031215611a2857611a276116c9565b5b6000611a368882890161171c565b9550506020611a478882890161185b565b9450506040611a588882890161185b565b935050606086013567ffffffffffffffff811115611a7957611a786116ce565b5b611a85888289016119b6565b92509250509295509295909350565b611a9d816116f3565b82525050565b6000602082019050611ab86000830184611a94565b92915050565b60008060408385031215611ad557611ad46116c9565b5b6000611ae38582860161171c565b9250506020611af48582860161171c565b9150509250929050565b7f4e487b7100000000000000000000000000000000000000000000000000000000600052602260045260246000fd5b60006002820490506001821680611b4557607f821691505b602082108103611b5857611b57611afe565b5b50919050565b7f4d696e74696e6720686173206265656e207065726d616e656e746c792072657660008201527f6f6b656400000000000000000000000000000000000000000000000000000000602082015250565b6000611bba60248361179d565b9150611bc582611b5e565b604082019050919050565b60006020820190508181036000830152611be981611bad565b9050919050565b7f4e6f7420617574686f72697a656420746f206d696e7400000000000000000000600082015250565b6000611c2660168361179d565b9150611c3182611bf0565b602082019050919050565b60006020820190508181036000830152611c5581611c19565b9050919050565b7f4e487b7100000000000000000000000000000000000000000000000000000000600052601160045260246000fd5b6000611c968261175e565b9150611ca18361175e565b9250828201905080821115611cb957611cb8611c5c565b5b92915050565b7f45786365656473206d617820737570706c790000000000000000000000000000600082015250565b6000611cf560128361179d565b9150611d0082611cbf565b602082019050919050565b60006020820190508181036000830152611d2481611ce8565b9050919050565b7f496e76616c696420757365722061646472657373000000000000000000000000600082015250565b6000611d6160148361179d565b9150611d6c82611d2b565b602082019050919050565b60006020820190508181036000830152611d9081611d54565b9050919050565b82818337600083830152505050565b6000611db2838561179d565b9350611dbf838584611d97565b611dc8836117d8565b840190509392505050565b6000606082019050611de86000830187611768565b611df56020830186611768565b8181036040830152611e08818486611da6565b905095945050505050565b6000606082019050611e286000830186611a94565b611e356020830185611768565b611e426040830184611768565b94935050505056fea2646970667358221220c4b1b9eee0ac56d5c2d772ad8ab929b598b90f9ce6027425bb97919658fbef5764736f6c63430008140033",
  "linkReferences": {},
  "deployedLinkReferences": {}
}