{
  "_format": "hh-sol-artifact-1",
  "contractName": "CodeDAOToken",
  "sourceName": "contracts/v2/CodeDAOTokenV2.sol",
  "abi": [
    {
      "inputs": [
        {
          "internalType": "address",
          "name": "admin",
          "type": "address"
        }
      ],
      "stateMutability": "nonpayable",
      "type": "constructor"
    },
    {
      "inputs": [],
      "name": "AccessControlBadConfirmation",
      "type": "error"
    },
    {
      "inputs": [
        {
          "internalType": "address",
          "name": "account",
          "type": "address"
        },
        {
          "internalType": "bytes32",
          "name": "neededRole",
          "type": "bytes32"
        }
      ],
      "name": "AccessControlUnauthorizedAccount",
      "type": "error"
    },
    {
      "inputs": [],
      "name": "ECDSAInvalidSignature",
      "type": "error"
    },
    {
      "inputs": [
        {
          "internalType": "uint256",
          "name": "length",
          "type": "uint256"
        }
      ],
      "name": "ECDSAInvalidSignatureLength",
      "type": "error"
    },
    {
      "inputs": [
        {
          "internalType": "bytes32",
          "name": "s",
          "type": "bytes32"
        }
      ],
      "name": "ECDSAInvalidSignatureS",
      "type": "error"
    },
    {
      "inputs": [
        {
          "internalType": "uint256",
          "name": "increasedSupply",
          "type": "uint256"
        },
        {
          "internalType": "uint256",
          "name": "cap",
          "type": "uint256"
        }
      ],
      "name": "ERC20ExceededCap",
      "type": "error"
    },
    {
      "inputs": [
        {
          "internalType": "address",
          "name": "spender",
          "type": "address"
        },
        {
          "internalType": "uint256",
          "name": "allowance",
          "type": "uint256"
        },
        {
          "internalType": "uint256",
          "name": "needed",
          "type": "uint256"
        }
      ],
      "name": "ERC20InsufficientAllowance",
      "type": "error"
    },
    {
      "inputs": [
        {
          "internalType": "address",
          "name": "sender",
          "type": "address"
        },
        {
          "internalType": "uint256",
          "name": "balance",
          "type": "uint256"
        },
        {
          "internalType": "uint256",
          "name": "needed",
          "type": "uint256"
        }
      ],
      "name": "ERC20InsufficientBalance",
      "type": "error"
    },
    {
      "inputs": [
        {
          "internalType": "address",
          "name": "approver",
          "type": "address"
        }
      ],
      "name": "ERC20InvalidApprover",
      "type": "error"
    },
    {
      "inputs": [
        {
          "internalType": "uint256",
          "name": "cap",
          "type": "uint256"
        }
      ],
      "name": "ERC20InvalidCap",
      "type": "error"
    },
    {
      "inputs": [
        {
          "internalType": "address",
          "name": "receiver",
          "type": "address"
        }
      ],
      "name": "ERC20InvalidReceiver",
      "type": "error"
    },
    {
      "inputs": [
        {
          "internalType": "address",
          "name": "sender",
          "type": "address"
        }
      ],
      "name": "ERC20InvalidSender",
      "type": "error"
    },
    {
      "inputs": [
        {
          "internalType": "address",
          "name": "spender",
          "type": "address"
        }
      ],
      "name": "ERC20InvalidSpender",
      "type": "error"
    },
    {
      "inputs": [
        {
          "internalType": "uint256",
          "name": "deadline",
          "type": "uint256"
        }
      ],
      "name": "ERC2612ExpiredSignature",
      "type": "error"
    },
    {
      "inputs": [
        {
          "internalType": "address",
          "name": "signer",
          "type": "address"
        },
        {
          "internalType": "address",
          "name": "owner",
          "type": "address"
        }
      ],
      "name": "ERC2612InvalidSigner",
      "type": "error"
    },
    {
      "inputs": [],
      "name": "EnforcedPause",
      "type": "error"
    },
    {
      "inputs": [],
      "name": "ExpectedPause",
      "type": "error"
    },
    {
      "inputs": [
        {
          "internalType": "address",
          "name": "account",
          "type": "address"
        },
        {
          "internalType": "uint256",
          "name": "currentNonce",
          "type": "uint256"
        }
      ],
      "name": "InvalidAccountNonce",
      "type": "error"
    },
    {
      "inputs": [],
      "name": "InvalidShortString",
      "type": "error"
    },
    {
      "inputs": [
        {
          "internalType": "string",
          "name": "str",
          "type": "string"
        }
      ],
      "name": "StringTooLong",
      "type": "error"
    },
    {
      "anonymous": false,
      "inputs": [
        {
          "indexed": true,
          "internalType": "address",
          "name": "owner",
          "type": "address"
        },
        {
          "indexed": true,
          "internalType": "address",
          "name": "spender",
          "type": "address"
        },
        {
          "indexed": false,
          "internalType": "uint256",
          "name": "value",
          "type": "uint256"
        }
      ],
      "name": "Approval",
      "type": "event"
    },
    {
      "anonymous": false,
      "inputs": [
        {
          "indexed": true,
          "internalType": "address",
          "name": "minter",
          "type": "address"
        },
        {
          "indexed": false,
          "internalType": "uint256",
          "name": "totalAmount",
          "type": "uint256"
        },
        {
          "indexed": false,
          "internalType": "uint256",
          "name": "recipientCount",
          "type": "uint256"
        }
      ],
      "name": "BatchMint",
      "type": "event"
    },
    {
      "anonymous": false,
      "inputs": [
        {
          "indexed": true,
          "internalType": "address",
          "name": "user",
          "type": "address"
        },
        {
          "indexed": false,
          "internalType": "uint256",
          "name": "amount",
          "type": "uint256"
        },
        {
          "indexed": false,
          "internalType": "uint256",
          "name": "linesWritten",
          "type": "uint256"
        },
        {
          "indexed": false,
          "internalType": "string",
          "name": "reason",
          "type": "string"
        }
      ],
      "name": "CodingReward",
      "type": "event"
    },
    {
      "anonymous": false,
      "inputs": [],
      "name": "EIP712DomainChanged",
      "type": "event"
    },
    {
      "anonymous": false,
      "inputs": [],
      "name": "MintingPermanentlyRevoked",
      "type": "event"
    },
    {
      "anonymous": false,
      "inputs": [
        {
          "indexed": false,
          "internalType": "address",
          "name": "account",
          "type": "address"
        }
      ],
      "name": "Paused",
      "type": "event"
    },
    {
      "anonymous": false,
      "inputs": [
        {
          "indexed": true,
          "internalType": "bytes32",
          "name": "role",
          "type": "bytes32"
        },
        {
          "indexed": true,
          "internalType": "bytes32",
          "name": "previousAdminRole",
          "type": "bytes32"
        },
        {
          "indexed": true,
          "internalType": "bytes32",
          "name": "newAdminRole",
          "type": "bytes32"
        }
      ],
      "name": "RoleAdminChanged",
      "type": "event"
    },
    {
      "anonymous": false,
      "inputs": [
        {
          "indexed": true,
          "internalType": "bytes32",
          "name": "role",
          "type": "bytes32"
        },
        {
          "indexed": true,
          "internalType": "address",
          "name": "account",
          "type": "address"
        },
        {
          "indexed": true,
          "internalType": "address",
          "name": "sender",
          "type": "address"
        }
      ],
      "name": "RoleGranted",
      "type": "event"
    },
    {
      "anonymous": false,
      "inputs": [
        {
          "indexed": true,
          "internalType": "bytes32",
          "name": "role",
          "type": "bytes32"
        },
        {
          "indexed": true,
          "internalType": "address",
          "name": "account",
          "type": "address"
        },
        {
          "indexed": true,
          "internalType": "address",
          "name": "sender",
          "type": "address"
        }
      ],
      "name": "RoleRevoked",
      "type": "event"
    },
    {
      "anonymous": false,
      "inputs": [
        {
          "indexed": true,
          "internalType": "address",
          "name": "from",
          "type": "address"
        },
        {
          "indexed": true,
          "internalType": "address",
          "name": "to",
          "type": "address"
        },
        {
          "indexed": false,
          "internalType": "uint256",
          "name": "value",
          "type": "uint256"
        }
      ],
      "name": "Transfer",
      "type": "event"
    },
    {
      "anonymous": false,
      "inputs": [
        {
          "indexed": false,
          "internalType": "address",
          "name": "account",
          "type": "address"
        }
      ],
      "name": "Unpaused",
      "type": "event"
    },
    {
      "inputs": [],
      "name": "DEFAULT_ADMIN_ROLE",
      "outputs": [
        {
          "internalType": "bytes32",
          "name": "",
          "type": "bytes32"
        }
      ],
      "stateMutability": "view",
      "type": "function"
    },
    {
      "inputs": [],
      "name": "DOMAIN_SEPARATOR",
      "outputs": [
        {
          "internalType": "bytes32",
          "name": "",
          "type": "bytes32"
        }
      ],
      "stateMutability": "view",
      "type": "function"
    },
    {
      "inputs": [],
      "name": "MINTER_ROLE",
      "outputs": [
        {
          "internalType": "bytes32",
          "name": "",
          "type": "bytes32"
        }
      ],
      "stateMutability": "view",
      "type": "function"
    },
    {
      "inputs": [],
      "name": "PAUSER_ROLE",
      "outputs": [
        {
          "internalType": "bytes32",
          "name": "",
          "type": "bytes32"
        }
      ],
      "stateMutability": "view",
      "type": "function"
    },
    {
      "inputs": [
        {
          "internalType": "address",
          "name": "owner",
          "type": "address"
        },
        {
          "internalType": "address",
          "name": "spender",
          "type": "address"
        }
      ],
      "name": "allowance",
      "outputs": [
        {
          "internalType": "uint256",
          "name": "",
          "type": "uint256"
        }
      ],
      "stateMutability": "view",
      "type": "function"
    },
    {
      "inputs": [
        {
          "internalType": "address",
          "name": "spender",
          "type": "address"
        },
        {
          "internalType": "uint256",
          "name": "value",
          "type": "uint256"
        }
      ],
      "name": "approve",
      "outputs": [
        {
          "internalType": "bool",
          "name": "",
          "type": "bool"
        }
      ],
      "stateMutability": "nonpayable",
      "type": "function"
    },
    {
      "inputs": [
        {
          "internalType": "address",
          "name": "account",
          "type": "address"
        }
      ],
      "name": "balanceOf",
      "outputs": [
        {
          "internalType": "uint256",
          "name": "",
          "type": "uint256"
        }
      ],
      "stateMutability": "view",
      "type": "function"
    },
    {
      "inputs": [
        {
          "internalType": "address[]",
          "name": "recipients",
          "type": "address[]"
        },
        {
          "internalType": "uint256[]",
          "name": "amounts",
          "type": "uint256[]"
        }
      ],
      "name": "batchMint",
      "outputs": [],
      "stateMutability": "nonpayable",
      "type": "function"
    },
    {
      "inputs": [],
      "name": "cap",
      "outputs": [
        {
          "internalType": "uint256",
          "name": "",
          "type": "uint256"
        }
      ],
      "stateMutability": "view",
      "type": "function"
    },
    {
      "inputs": [
        {
          "internalType": "address",
          "name": "",
          "type": "address"
        }
      ],
      "name": "contributionCount",
      "outputs": [
        {
          "internalType": "uint256",
          "name": "",
          "type": "uint256"
        }
      ],
      "stateMutability": "view",
      "type": "function"
    },
    {
      "inputs": [],
      "name": "decimals",
      "outputs": [
        {
          "internalType": "uint8",
          "name": "",
          "type": "uint8"
        }
      ],
      "stateMutability": "view",
      "type": "function"
    },
    {
      "inputs": [],
      "name": "eip712Domain",
      "outputs": [
        {
          "internalType": "bytes1",
          "name": "fields",
          "type": "bytes1"
        },
        {
          "internalType": "string",
          "name": "name",
          "type": "string"
        },
        {
          "internalType": "string",
          "name": "version",
          "type": "string"
        },
        {
          "internalType": "uint256",
          "name": "chainId",
          "type": "uint256"
        },
        {
          "internalType": "address",
          "name": "verifyingContract",
          "type": "address"
        },
        {
          "internalType": "bytes32",
          "name": "salt",
          "type": "bytes32"
        },
        {
          "internalType": "uint256[]",
          "name": "extensions",
          "type": "uint256[]"
        }
      ],
      "stateMutability": "view",
      "type": "function"
    },
    {
      "inputs": [],
      "name": "getMintingStatus",
      "outputs": [
        {
          "internalType": "bool",
          "name": "canMint",
          "type": "bool"
        },
        {
          "internalType": "string",
          "name": "reason",
          "type": "string"
        }
      ],
      "stateMutability": "view",
      "type": "function"
    },
    {
      "inputs": [
        {
          "internalType": "bytes32",
          "name": "role",
          "type": "bytes32"
        }
      ],
      "name": "getRoleAdmin",
      "outputs": [
        {
          "internalType": "bytes32",
          "name": "",
          "type": "bytes32"
        }
      ],
      "stateMutability": "view",
      "type": "function"
    },
    {
      "inputs": [],
      "name": "getSupplyInfo",
      "outputs": [
        {
          "internalType": "uint256",
          "name": "current",
          "type": "uint256"
        },
        {
          "internalType": "uint256",
          "name": "maximum",
          "type": "uint256"
        },
        {
          "internalType": "uint256",
          "name": "remaining",
          "type": "uint256"
        }
      ],
      "stateMutability": "view",
      "type": "function"
    },
    {
      "inputs": [
        {
          "internalType": "address",
          "name": "user",
          "type": "address"
        }
      ],
      "name": "getUserStats",
      "outputs": [
        {
          "internalType": "uint256",
          "name": "balance",
          "type": "uint256"
        },
        {
          "internalType": "uint256",
          "name": "contributions",
          "type": "uint256"
        },
        {
          "internalType": "uint256",
          "name": "linesWritten",
          "type": "uint256"
        }
      ],
      "stateMutability": "view",
      "type": "function"
    },
    {
      "inputs": [
        {
          "internalType": "bytes32",
          "name": "role",
          "type": "bytes32"
        },
        {
          "internalType": "address",
          "name": "account",
          "type": "address"
        }
      ],
      "name": "grantRole",
      "outputs": [],
      "stateMutability": "nonpayable",
      "type": "function"
    },
    {
      "inputs": [
        {
          "internalType": "bytes32",
          "name": "role",
          "type": "bytes32"
        },
        {
          "internalType": "address",
          "name": "account",
          "type": "address"
        }
      ],
      "name": "hasRole",
      "outputs": [
        {
          "internalType": "bool",
          "name": "",
          "type": "bool"
        }
      ],
      "stateMutability": "view",
      "type": "function"
    },
    {
      "inputs": [
        {
          "internalType": "address",
          "name": "to",
          "type": "address"
        },
        {
          "internalType": "uint256",
          "name": "amount",
          "type": "uint256"
        }
      ],
      "name": "mint",
      "outputs": [],
      "stateMutability": "nonpayable",
      "type": "function"
    },
    {
      "inputs": [
        {
          "internalType": "address",
          "name": "user",
          "type": "address"
        },
        {
          "internalType": "uint256",
          "name": "amount",
          "type": "uint256"
        },
        {
          "internalType": "uint256",
          "name": "linesWritten",
          "type": "uint256"
        },
        {
          "internalType": "string",
          "name": "reason",
          "type": "string"
        }
      ],
      "name": "mintForContribution",
      "outputs": [],
      "stateMutability": "nonpayable",
      "type": "function"
    },
    {
      "inputs": [],
      "name": "mintingRevoked",
      "outputs": [
        {
          "internalType": "bool",
          "name": "",
          "type": "bool"
        }
      ],
      "stateMutability": "view",
      "type": "function"
    },
    {
      "inputs": [],
      "name": "name",
      "outputs": [
        {
          "internalType": "string",
          "name": "",
          "type": "string"
        }
      ],
      "stateMutability": "view",
      "type": "function"
    },
    {
      "inputs": [
        {
          "internalType": "address",
          "name": "owner",
          "type": "address"
        }
      ],
      "name": "nonces",
      "outputs": [
        {
          "internalType": "uint256",
          "name": "",
          "type": "uint256"
        }
      ],
      "stateMutability": "view",
      "type": "function"
    },
    {
      "inputs": [],
      "name": "pause",
      "outputs": [],
      "stateMutability": "nonpayable",
      "type": "function"
    },
    {
      "inputs": [],
      "name": "paused",
      "outputs": [
        {
          "internalType": "bool",
          "name": "",
          "type": "bool"
        }
      ],
      "stateMutability": "view",
      "type": "function"
    },
    {
      "inputs": [
        {
          "internalType": "address",
          "name": "owner",
          "type": "address"
        },
        {
          "internalType": "address",
          "name": "spender",
          "type": "address"
        },
        {
          "internalType": "uint256",
          "name": "value",
          "type": "uint256"
        },
        {
          "internalType": "uint256",
          "name": "deadline",
          "type": "uint256"
        },
        {
          "internalType": "uint8",
          "name": "v",
          "type": "uint8"
        },
        {
          "internalType": "bytes32",
          "name": "r",
          "type": "bytes32"
        },
        {
          "internalType": "bytes32",
          "name": "s",
          "type": "bytes32"
        }
      ],
      "name": "permit",
      "outputs": [],
      "stateMutability": "nonpayable",
      "type": "function"
    },
    {
      "inputs": [
        {
          "internalType": "bytes32",
          "name": "role",
          "type": "bytes32"
        },
        {
          "internalType": "address",
          "name": "callerConfirmation",
          "type": "address"
        }
      ],
      "name": "renounceRole",
      "outputs": [],
      "stateMutability": "nonpayable",
      "type": "function"
    },
    {
      "inputs": [],
      "name": "revokeMintingPermanently",
      "outputs": [],
      "stateMutability": "nonpayable",
      "type": "function"
    },
    {
      "inputs": [
        {
          "internalType": "bytes32",
          "name": "role",
          "type": "bytes32"
        },
        {
          "internalType": "address",
          "name": "account",
          "type": "address"
        }
      ],
      "name": "revokeRole",
      "outputs": [],
      "stateMutability": "nonpayable",
      "type": "function"
    },
    {
      "inputs": [
        {
          "internalType": "bytes4",
          "name": "interfaceId",
          "type": "bytes4"
        }
      ],
      "name": "supportsInterface",
      "outputs": [
        {
          "internalType": "bool",
          "name": "",
          "type": "bool"
        }
      ],
      "stateMutability": "view",
      "type": "function"
    },
    {
      "inputs": [],
      "name": "symbol",
      "outputs": [
        {
          "internalType": "string",
          "name": "",
          "type": "string"
        }
      ],
      "stateMutability": "view",
      "type": "function"
    },
    {
      "inputs": [
        {
          "internalType": "address",
          "name": "",
          "type": "address"
        }
      ],
      "name": "totalLinesWritten",
      "outputs": [
        {
          "internalType": "uint256",
          "name": "",
          "type": "uint256"
        }
      ],
      "stateMutability": "view",
      "type": "function"
    },
    {
      "inputs": [],
      "name": "totalSupply",
      "outputs": [
        {
          "internalType": "uint256",
          "name": "",
          "type": "uint256"
        }
      ],
      "stateMutability": "view",
      "type": "function"
    },
    {
      "inputs": [
        {
          "internalType": "address",
          "name": "to",
          "type": "address"
        },
        {
          "internalType": "uint256",
          "name": "value",
          "type": "uint256"
        }
      ],
      "name": "transfer",
      "outputs": [
        {
          "internalType": "bool",
          "name": "",
          "type": "bool"
        }
      ],
      "stateMutability": "nonpayable",
      "type": "function"
    },
    {
      "inputs": [
        {
          "internalType": "address",
          "name": "from",
          "type": "address"
        },
        {
          "internalType": "address",
          "name": "to",
          "type": "address"
        },
        {
          "internalType": "uint256",
          "name": "value",
          "type": "uint256"
        }
      ],
      "name": "transferFrom",
      "outputs": [
        {
          "internalType": "bool",
          "name": "",
          "type": "bool"
        }
      ],
      "stateMutability": "nonpayable",
      "type": "function"
    },
    {
      "inputs": [],
      "name": "unpause",
      "outputs": [],
      "stateMutability": "nonpayable",
      "type": "function"
    }
  ],
  "bytecode": "0x6101806040523480156200001257600080fd5b50604051620046163803806200461683398181016040528101906200003891906200064a565b6b033b2e3c9fd0803ce80000006040518060400160405280600d81526020017f436f646544414f20546f6b656e00000000000000000000000000000000000000815250806040518060400160405280600181526020017f31000000000000000000000000000000000000000000000000000000000000008152506040518060400160405280600d81526020017f436f646544414f20546f6b656e000000000000000000000000000000000000008152506040518060400160405280600481526020017f434f44450000000000000000000000000000000000000000000000000000000081525081600390816200012f9190620008f6565b508060049081620001419190620008f6565b5050506200015a6006836200033d60201b90919060201c565b6101208181525050620001786007826200033d60201b90919060201c565b6101408181525050818051906020012060e08181525050808051906020012061010081815250504660a08181525050620001b76200039560201b60201c565b608081815250503073ffffffffffffffffffffffffffffffffffffffff1660c08173ffffffffffffffffffffffffffffffffffffffff1681525050505050600081036200023e5760006040517f392e1e2700000000000000000000000000000000000000000000000000000000815260040162000235919062000a20565b60405180910390fd5b80610160818152505050600073ffffffffffffffffffffffffffffffffffffffff168173ffffffffffffffffffffffffffffffffffffffff1603620002ba576040517f08c379a0000000000000000000000000000000000000000000000000000000008152600401620002b19062000a9e565b60405180910390fd5b620002cf6000801b82620003f260201b60201c565b50620003027f9f2df0fed2c77648de5860a4cc508cd0818c85b8b8a1ab4ceeef8d981c8956a682620003f260201b60201c565b50620003357f65d7a28e3265b37a6474929f336521b332c1681b933f6cb9f3376673440d862a82620003f260201b60201c565b505062000c9e565b600060208351101562000363576200035b83620004f660201b60201c565b90506200038f565b8262000375836200056360201b60201c565b6000019081620003869190620008f6565b5060ff60001b90505b92915050565b60007f8b73c3c69bb8fe3d512ecc4cf759cc79239f7b179b0ffacaa9a75d522b39400f60e051610100514630604051602001620003d795949392919062000afd565b60405160208183030381529060405280519060200120905090565b60006200040683836200056d60201b60201c565b620004eb5760016009600085815260200190815260200160002060000160008473ffffffffffffffffffffffffffffffffffffffff1673ffffffffffffffffffffffffffffffffffffffff16815260200190815260200160002060006101000a81548160ff02191690831515021790555062000487620005d860201b60201c565b73ffffffffffffffffffffffffffffffffffffffff168273ffffffffffffffffffffffffffffffffffffffff16847f2f8788117e7eff1d82e926ec794901d17c78024a50270940304540a733656f0d60405160405180910390a460019050620004f0565b600090505b92915050565b600080829050601f815111156200054657826040517f305a27a90000000000000000000000000000000000000000000000000000000081526004016200053d919062000bd8565b60405180910390fd5b805181620005549062000c2e565b60001c1760001b915050919050565b6000819050919050565b60006009600084815260200190815260200160002060000160008373ffffffffffffffffffffffffffffffffffffffff1673ffffffffffffffffffffffffffffffffffffffff16815260200190815260200160002060009054906101000a900460ff16905092915050565b600033905090565b600080fd5b600073ffffffffffffffffffffffffffffffffffffffff82169050919050565b60006200061282620005e5565b9050919050565b620006248162000605565b81146200063057600080fd5b50565b600081519050620006448162000619565b92915050565b600060208284031215620006635762000662620005e0565b5b6000620006738482850162000633565b91505092915050565b600081519050919050565b7f4e487b7100000000000000000000000000000000000000000000000000000000600052604160045260246000fd5b7f4e487b7100000000000000000000000000000000000000000000000000000000600052602260045260246000fd5b60006002820490506001821680620006fe57607f821691505b602082108103620007145762000713620006b6565b5b50919050565b60008190508160005260206000209050919050565b60006020601f8301049050919050565b600082821b905092915050565b6000600883026200077e7fffffffffffffffffffffffffffffffffffffffffffffffffffffffffffffffff826200073f565b6200078a86836200073f565b95508019841693508086168417925050509392505050565b6000819050919050565b6000819050919050565b6000620007d7620007d1620007cb84620007a2565b620007ac565b620007a2565b9050919050565b6000819050919050565b620007f383620007b6565b6200080b6200080282620007de565b8484546200074c565b825550505050565b600090565b6200082262000813565b6200082f818484620007e8565b505050565b5b8181101562000857576200084b60008262000818565b60018101905062000835565b5050565b601f821115620008a65762000870816200071a565b6200087b846200072f565b810160208510156200088b578190505b620008a36200089a856200072f565b83018262000834565b50505b505050565b600082821c905092915050565b6000620008cb60001984600802620008ab565b1980831691505092915050565b6000620008e68383620008b8565b9150826002028217905092915050565b62000901826200067c565b67ffffffffffffffff8111156200091d576200091c62000687565b5b620009298254620006e5565b620009368282856200085b565b600060209050601f8311600181146200096e576000841562000959578287015190505b620009658582620008d8565b865550620009d5565b601f1984166200097e866200071a565b60005b82811015620009a85784890151825560018201915060208501945060208101905062000981565b86831015620009c85784890151620009c4601f891682620008b8565b8355505b6001600288020188555050505b505050505050565b6000819050919050565b600062000a0862000a02620009fc84620009dd565b620007ac565b620007a2565b9050919050565b62000a1a81620009e7565b82525050565b600060208201905062000a37600083018462000a0f565b92915050565b600082825260208201905092915050565b7f41646d696e2063616e6e6f74206265207a65726f206164647265737300000000600082015250565b600062000a86601c8362000a3d565b915062000a938262000a4e565b602082019050919050565b6000602082019050818103600083015262000ab98162000a77565b9050919050565b6000819050919050565b62000ad58162000ac0565b82525050565b62000ae681620007a2565b82525050565b62000af78162000605565b82525050565b600060a08201905062000b14600083018862000aca565b62000b23602083018762000aca565b62000b32604083018662000aca565b62000b41606083018562000adb565b62000b50608083018462000aec565b9695505050505050565b60005b8381101562000b7a57808201518184015260208101905062000b5d565b60008484015250505050565b6000601f19601f8301169050919050565b600062000ba4826200067c565b62000bb0818562000a3d565b935062000bc281856020860162000b5a565b62000bcd8162000b86565b840191505092915050565b6000602082019050818103600083015262000bf4818462000b97565b905092915050565b600081519050919050565b6000819050602082019050919050565b600062000c25825162000ac0565b80915050919050565b600062000c3b8262000bfc565b8262000c478462000c07565b905062000c548162000c17565b9250602082101562000c975762000c927fffffffffffffffffffffffffffffffffffffffffffffffffffffffffffffffff836020036008026200073f565b831692505b5050919050565b60805160a05160c05160e0516101005161012051610140516101605161391262000d04600039600061088501526000611dd101526000611d960152600061218c0152600061216b01526000611a1501526000611a6b01526000611a9401526139126000f3fe608060405234801561001057600080fd5b506004361061021c5760003560e01c80636857310711610125578063a217fddf116100ad578063d53913931161007c578063d539139314610660578063d547741f1461067e578063dd62ed3e1461069a578063dd8393a1146106ca578063e63ab1e9146106d45761021c565b8063a217fddf146105c6578063a405eb8f146105e4578063a9059cbb14610614578063d505accf146106445761021c565b80638456cb59116100f45780638456cb591461052b57806384b0196e1461053557806391d148541461055957806395a476521461058957806395d89b41146105a85761021c565b8063685731071461049357806370a08231146104af5780637cb203ca146104df5780637ecebe00146104fb5761021c565b8063313ce567116101a85780633f4ba83a116101775780633f4ba83a146103ff57806340c10f19146104095780634465394a146104255780634e43603a146104435780635c975abb146104755761021c565b8063313ce56714610389578063355274ea146103a75780633644e515146103c557806336568abe146103e35761021c565b806318160ddd116101ef57806318160ddd146102cf57806320edeaf3146102ed57806323b872dd1461030d578063248a9ca31461033d5780632f2ff15d1461036d5761021c565b806301ffc9a71461022157806305295cba1461025157806306fdde0314610281578063095ea7b31461029f575b600080fd5b61023b6004803603810190610236919061296e565b6106f2565b60405161024891906129b6565b60405180910390f35b61026b60048036038101906102669190612a2f565b610704565b6040516102789190612a75565b60405180910390f35b61028961071c565b6040516102969190612b20565b60405180910390f35b6102b960048036038101906102b49190612b6e565b6107ae565b6040516102c691906129b6565b60405180910390f35b6102d76107d1565b6040516102e49190612a75565b60405180910390f35b6102f56107db565b60405161030493929190612bae565b60405180910390f35b61032760048036038101906103229190612be5565b610807565b60405161033491906129b6565b60405180910390f35b61035760048036038101906103529190612c6e565b610836565b6040516103649190612caa565b60405180910390f35b61038760048036038101906103829190612cc5565b610856565b005b610391610878565b60405161039e9190612d21565b60405180910390f35b6103af610881565b6040516103bc9190612a75565b60405180910390f35b6103cd6108a9565b6040516103da9190612caa565b60405180910390f35b6103fd60048036038101906103f89190612cc5565b6108b8565b005b610407610933565b005b610423600480360381019061041e9190612b6e565b610968565b005b61042d610aab565b60405161043a91906129b6565b60405180910390f35b61045d60048036038101906104589190612a2f565b610abe565b60405161046c93929190612bae565b60405180910390f35b61047d610b59565b60405161048a91906129b6565b60405180910390f35b6104ad60048036038101906104a89190612df7565b610b70565b005b6104c960048036038101906104c49190612a2f565b610e61565b6040516104d69190612a75565b60405180910390f35b6104f960048036038101906104f49190612ece565b610ea9565b005b61051560048036038101906105109190612a2f565b6110ef565b6040516105229190612a75565b60405180910390f35b610533611101565b005b61053d611136565b604051610550979695949392919061305e565b60405180910390f35b610573600480360381019061056e9190612cc5565b6111e0565b60405161058091906129b6565b60405180910390f35b61059161124b565b60405161059f9291906130e2565b60405180910390f35b6105b061138a565b6040516105bd9190612b20565b60405180910390f35b6105ce61141c565b6040516105db9190612caa565b60405180910390f35b6105fe60048036038101906105f99190612a2f565b611423565b60405161060b9190612a75565b60405180910390f35b61062e60048036038101906106299190612b6e565b61143b565b60405161063b91906129b6565b60405180910390f35b61065e6004803603810190610659919061313e565b61145e565b005b6106686115a6565b6040516106759190612caa565b60405180910390f35b61069860048036038101906106939190612cc5565b6115ca565b005b6106b460048036038101906106af91906131e0565b6115ec565b6040516106c19190612a75565b60405180910390f35b6106d2611673565b005b6106dc6116ca565b6040516106e99190612caa565b60405180910390f35b60006106fd826116ee565b9050919050565b600b6020528060005260406000206000915090505481565b60606003805461072b9061324f565b80601f01602080910402602001604051908101604052809291908181526020018280546107579061324f565b80156107a45780601f10610779576101008083540402835291602001916107a4565b820191906000526020600020905b81548152906001019060200180831161078757829003601f168201915b5050505050905090565b6000806107b9611768565b90506107c6818585611770565b600191505092915050565b6000600254905090565b60008060006107e86107d1565b92506107f2610881565b9150828261080091906132af565b9050909192565b600080610812611768565b905061081f858285611782565b61082a858585611817565b60019150509392505050565b600060096000838152602001908152602001600020600101549050919050565b61085f82610836565b6108688161190b565b610872838361191f565b50505050565b60006012905090565b60007f0000000000000000000000000000000000000000000000000000000000000000905090565b60006108b3611a11565b905090565b6108c0611768565b73ffffffffffffffffffffffffffffffffffffffff168173ffffffffffffffffffffffffffffffffffffffff1614610924576040517f6697b23200000000000000000000000000000000000000000000000000000000815260040160405180910390fd5b61092e8282611ac8565b505050565b7f65d7a28e3265b37a6474929f336521b332c1681b933f6cb9f3376673440d862a61095d8161190b565b610965611bbb565b50565b7f9f2df0fed2c77648de5860a4cc508cd0818c85b8b8a1ab4ceeef8d981c8956a66109928161190b565b61099a611c1e565b600a60009054906101000a900460ff16156109ea576040517f08c379a00000000000000000000000000000000000000000000000000000000081526004016109e190613355565b60405180910390fd5b600073ffffffffffffffffffffffffffffffffffffffff168373ffffffffffffffffffffffffffffffffffffffff1603610a59576040517f08c379a0000000000000000000000000000000000000000000000000000000008152600401610a50906133c1565b60405180910390fd5b60008211610a9c576040517f08c379a0000000000000000000000000000000000000000000000000000000008152600401610a939061342d565b60405180910390fd5b610aa68383611c5f565b505050565b600a60009054906101000a900460ff1681565b6000806000610acc84610e61565b600b60008673ffffffffffffffffffffffffffffffffffffffff1673ffffffffffffffffffffffffffffffffffffffff16815260200190815260200160002054600c60008773ffffffffffffffffffffffffffffffffffffffff1673ffffffffffffffffffffffffffffffffffffffff168152602001908152602001600020549250925092509193909250565b6000600560009054906101000a900460ff16905090565b7f9f2df0fed2c77648de5860a4cc508cd0818c85b8b8a1ab4ceeef8d981c8956a6610b9a8161190b565b610ba2611c1e565b600a60009054906101000a900460ff1615610bf2576040517f08c379a0000000000000000000000000000000000000000000000000000000008152600401610be990613355565b60405180910390fd5b828290508585905014610c3a576040517f08c379a0000000000000000000000000000000000000000000000000000000008152600401610c3190613499565b60405180910390fd5b60008585905011610c80576040517f08c379a0000000000000000000000000000000000000000000000000000000008152600401610c7790613505565b60405180910390fd5b6000805b86869050811015610e0557600073ffffffffffffffffffffffffffffffffffffffff16878783818110610cba57610cb9613525565b5b9050602002016020810190610ccf9190612a2f565b73ffffffffffffffffffffffffffffffffffffffff1603610d25576040517f08c379a0000000000000000000000000000000000000000000000000000000008152600401610d1c906133c1565b60405180910390fd5b6000858583818110610d3a57610d39613525565b5b9050602002013511610d81576040517f08c379a0000000000000000000000000000000000000000000000000000000008152600401610d789061342d565b60405180910390fd5b610dcb878783818110610d9757610d96613525565b5b9050602002016020810190610dac9190612a2f565b868684818110610dbf57610dbe613525565b5b90506020020135611c5f565b848482818110610dde57610ddd613525565b5b9050602002013582610df09190613554565b91508080610dfd90613588565b915050610c84565b503373ffffffffffffffffffffffffffffffffffffffff167f63232c37f2c1fdcb4fc657df1cef6cabc7181c5b604530242590ffe5fa91ab748288889050604051610e519291906135d0565b60405180910390a2505050505050565b60008060008373ffffffffffffffffffffffffffffffffffffffff1673ffffffffffffffffffffffffffffffffffffffff168152602001908152602001600020549050919050565b7f9f2df0fed2c77648de5860a4cc508cd0818c85b8b8a1ab4ceeef8d981c8956a6610ed38161190b565b610edb611c1e565b600a60009054906101000a900460ff1615610f2b576040517f08c379a0000000000000000000000000000000000000000000000000000000008152600401610f2290613355565b60405180910390fd5b600073ffffffffffffffffffffffffffffffffffffffff168673ffffffffffffffffffffffffffffffffffffffff1603610f9a576040517f08c379a0000000000000000000000000000000000000000000000000000000008152600401610f9190613645565b60405180910390fd5b60008511610fdd576040517f08c379a0000000000000000000000000000000000000000000000000000000008152600401610fd49061342d565b60405180910390fd5b83600b60008873ffffffffffffffffffffffffffffffffffffffff1673ffffffffffffffffffffffffffffffffffffffff168152602001908152602001600020600082825461102c9190613554565b9250508190555083600c60008873ffffffffffffffffffffffffffffffffffffffff1673ffffffffffffffffffffffffffffffffffffffff16815260200190815260200160002060008282546110829190613554565b925050819055506110938686611c5f565b8573ffffffffffffffffffffffffffffffffffffffff167ffd2e7987a1a9c9b7e51e5e41405b890e16e03b2553e861ecff36b017f629027c868686866040516110df94939291906136a1565b60405180910390a2505050505050565b60006110fa82611ce1565b9050919050565b7f65d7a28e3265b37a6474929f336521b332c1681b933f6cb9f3376673440d862a61112b8161190b565b611133611d2a565b50565b60006060806000806000606061114a611d8d565b611152611dc8565b46306000801b600067ffffffffffffffff811115611173576111726136e1565b5b6040519080825280602002602001820160405280156111a15781602001602082028036833780820191505090505b507f0f00000000000000000000000000000000000000000000000000000000000000959493929190965096509650965096509650965090919293949596565b60006009600084815260200190815260200160002060000160008373ffffffffffffffffffffffffffffffffffffffff1673ffffffffffffffffffffffffffffffffffffffff16815260200190815260200160002060009054906101000a900460ff16905092915050565b60006060600a60009054906101000a900460ff16156112a55760006040518060400160405280601b81526020017f4d696e74696e67207065726d616e656e746c79207265766f6b6564000000000081525091509150611386565b6112ad610b59565b156112f35760006040518060400160405280601281526020017f436f6e747261637420697320706175736564000000000000000000000000000081525091509150611386565b6112fb610881565b6113036107d1565b106113495760006040518060400160405280601281526020017f537570706c79206361702072656163686564000000000000000000000000000081525091509150611386565b60016040518060400160405280600f81526020017f4d696e74696e6720616c6c6f7765640000000000000000000000000000000000815250915091505b9091565b6060600480546113999061324f565b80601f01602080910402602001604051908101604052809291908181526020018280546113c59061324f565b80156114125780601f106113e757610100808354040283529160200191611412565b820191906000526020600020905b8154815290600101906020018083116113f557829003601f168201915b5050505050905090565b6000801b81565b600c6020528060005260406000206000915090505481565b600080611446611768565b9050611453818585611817565b600191505092915050565b834211156114a357836040517f6279130200000000000000000000000000000000000000000000000000000000815260040161149a9190612a75565b60405180910390fd5b60007f6e71edae12b1b97f4d1f60370fef10105fa2faae0126114a169c64845d6126c98888886114d28c611e03565b896040516020016114e896959493929190613710565b604051602081830303815290604052805190602001209050600061150b82611e5a565b9050600061151b82878787611e74565b90508973ffffffffffffffffffffffffffffffffffffffff168173ffffffffffffffffffffffffffffffffffffffff161461158f57808a6040517f4b800e46000000000000000000000000000000000000000000000000000000008152600401611586929190613771565b60405180910390fd5b61159a8a8a8a611770565b50505050505050505050565b7f9f2df0fed2c77648de5860a4cc508cd0818c85b8b8a1ab4ceeef8d981c8956a681565b6115d382610836565b6115dc8161190b565b6115e68383611ac8565b50505050565b6000600160008473ffffffffffffffffffffffffffffffffffffffff1673ffffffffffffffffffffffffffffffffffffffff16815260200190815260200160002060008373ffffffffffffffffffffffffffffffffffffffff1673ffffffffffffffffffffffffffffffffffffffff16815260200190815260200160002054905092915050565b6000801b6116808161190b565b6001600a60006101000a81548160ff0219169083151502179055507f616d0675d857b8ef06930f41f39f9054c6dec1c6b60f3018fc6cc675284fcaac60405160405180910390a150565b7f65d7a28e3265b37a6474929f336521b332c1681b933f6cb9f3376673440d862a81565b60007f7965db0b000000000000000000000000000000000000000000000000000000007bffffffffffffffffffffffffffffffffffffffffffffffffffffffff1916827bffffffffffffffffffffffffffffffffffffffffffffffffffffffff19161480611761575061176082611ea4565b5b9050919050565b600033905090565b61177d8383836001611f0e565b505050565b600061178e84846115ec565b90507fffffffffffffffffffffffffffffffffffffffffffffffffffffffffffffffff8110156118115781811015611801578281836040517ffb8f41b20000000000000000000000000000000000000000000000000000000081526004016117f89392919061379a565b60405180910390fd5b61181084848484036000611f0e565b5b50505050565b600073ffffffffffffffffffffffffffffffffffffffff168373ffffffffffffffffffffffffffffffffffffffff16036118895760006040517f96c6fd1e00000000000000000000000000000000000000000000000000000000815260040161188091906137d1565b60405180910390fd5b600073ffffffffffffffffffffffffffffffffffffffff168273ffffffffffffffffffffffffffffffffffffffff16036118fb5760006040517fec442f050000000000000000000000000000000000000000000000000000000081526004016118f291906137d1565b60405180910390fd5b6119068383836120e5565b505050565b61191c81611917611768565b6120f5565b50565b600061192b83836111e0565b611a065760016009600085815260200190815260200160002060000160008473ffffffffffffffffffffffffffffffffffffffff1673ffffffffffffffffffffffffffffffffffffffff16815260200190815260200160002060006101000a81548160ff0219169083151502179055506119a3611768565b73ffffffffffffffffffffffffffffffffffffffff168273ffffffffffffffffffffffffffffffffffffffff16847f2f8788117e7eff1d82e926ec794901d17c78024a50270940304540a733656f0d60405160405180910390a460019050611a0b565b600090505b92915050565b60007f000000000000000000000000000000000000000000000000000000000000000073ffffffffffffffffffffffffffffffffffffffff163073ffffffffffffffffffffffffffffffffffffffff16148015611a8d57507f000000000000000000000000000000000000000000000000000000000000000046145b15611aba577f00000000000000000000000000000000000000000000000000000000000000009050611ac5565b611ac2612146565b90505b90565b6000611ad483836111e0565b15611bb05760006009600085815260200190815260200160002060000160008473ffffffffffffffffffffffffffffffffffffffff1673ffffffffffffffffffffffffffffffffffffffff16815260200190815260200160002060006101000a81548160ff021916908315150217905550611b4d611768565b73ffffffffffffffffffffffffffffffffffffffff168273ffffffffffffffffffffffffffffffffffffffff16847ff6391f5c32d9c69d2a47ea670b442974b53935d1edc7fd64eb21e047a839171b60405160405180910390a460019050611bb5565b600090505b92915050565b611bc36121dc565b6000600560006101000a81548160ff0219169083151502179055507f5db9ee0a495bf2e6ff9c91a7834c1ba4fdd244a5e8aa4e537bd38aeae4b073aa611c07611768565b604051611c1491906137d1565b60405180910390a1565b611c26610b59565b15611c5d576040517fd93c066500000000000000000000000000000000000000000000000000000000815260040160405180910390fd5b565b600073ffffffffffffffffffffffffffffffffffffffff168273ffffffffffffffffffffffffffffffffffffffff1603611cd15760006040517fec442f05000000000000000000000000000000000000000000000000000000008152600401611cc891906137d1565b60405180910390fd5b611cdd600083836120e5565b5050565b6000600860008373ffffffffffffffffffffffffffffffffffffffff1673ffffffffffffffffffffffffffffffffffffffff168152602001908152602001600020549050919050565b611d32611c1e565b6001600560006101000a81548160ff0219169083151502179055507f62e78cea01bee320cd4e420270b5ea74000d11b0c9f74754ebdbfc544b05a258611d76611768565b604051611d8391906137d1565b60405180910390a1565b6060611dc360067f000000000000000000000000000000000000000000000000000000000000000061221c90919063ffffffff16565b905090565b6060611dfe60077f000000000000000000000000000000000000000000000000000000000000000061221c90919063ffffffff16565b905090565b6000600860008373ffffffffffffffffffffffffffffffffffffffff1673ffffffffffffffffffffffffffffffffffffffff1681526020019081526020016000206000815480929190600101919050559050919050565b6000611e6d611e67611a11565b836122cc565b9050919050565b600080600080611e868888888861230d565b925092509250611e968282612401565b829350505050949350505050565b60007f01ffc9a7000000000000000000000000000000000000000000000000000000007bffffffffffffffffffffffffffffffffffffffffffffffffffffffff1916827bffffffffffffffffffffffffffffffffffffffffffffffffffffffff1916149050919050565b600073ffffffffffffffffffffffffffffffffffffffff168473ffffffffffffffffffffffffffffffffffffffff1603611f805760006040517fe602df05000000000000000000000000000000000000000000000000000000008152600401611f7791906137d1565b60405180910390fd5b600073ffffffffffffffffffffffffffffffffffffffff168373ffffffffffffffffffffffffffffffffffffffff1603611ff25760006040517f94280d62000000000000000000000000000000000000000000000000000000008152600401611fe991906137d1565b60405180910390fd5b81600160008673ffffffffffffffffffffffffffffffffffffffff1673ffffffffffffffffffffffffffffffffffffffff16815260200190815260200160002060008573ffffffffffffffffffffffffffffffffffffffff1673ffffffffffffffffffffffffffffffffffffffff1681526020019081526020016000208190555080156120df578273ffffffffffffffffffffffffffffffffffffffff168473ffffffffffffffffffffffffffffffffffffffff167f8c5be1e5ebec7d5bd14f71427d1e84f3dd0314c0f7b2291e5b200ac8c7c3b925846040516120d69190612a75565b60405180910390a35b50505050565b6120f0838383612565565b505050565b6120ff82826111e0565b6121425780826040517fe2517d3f0000000000000000000000000000000000000000000000000000000081526004016121399291906137ec565b60405180910390fd5b5050565b60007f8b73c3c69bb8fe3d512ecc4cf759cc79239f7b179b0ffacaa9a75d522b39400f7f00000000000000000000000000000000000000000000000000000000000000007f000000000000000000000000000000000000000000000000000000000000000046306040516020016121c1959493929190613815565b60405160208183030381529060405280519060200120905090565b6121e4610b59565b61221a576040517f8dfc202b00000000000000000000000000000000000000000000000000000000815260040160405180910390fd5b565b606060ff60001b8314612239576122328361260b565b90506122c6565b8180546122459061324f565b80601f01602080910402602001604051908101604052809291908181526020018280546122719061324f565b80156122be5780601f10612293576101008083540402835291602001916122be565b820191906000526020600020905b8154815290600101906020018083116122a157829003601f168201915b505050505090505b92915050565b60006040517f190100000000000000000000000000000000000000000000000000000000000081528360028201528260228201526042812091505092915050565b60008060007f7fffffffffffffffffffffffffffffff5d576e7357a4501ddfe92f46681b20a08460001c111561234d5760006003859250925092506123f7565b6000600188888888604051600081526020016040526040516123729493929190613868565b6020604051602081039080840390855afa158015612394573d6000803e3d6000fd5b505050602060405103519050600073ffffffffffffffffffffffffffffffffffffffff168173ffffffffffffffffffffffffffffffffffffffff16036123e857600060016000801b935093509350506123f7565b8060008060001b935093509350505b9450945094915050565b60006003811115612415576124146138ad565b5b826003811115612428576124276138ad565b5b03156125615760016003811115612442576124416138ad565b5b826003811115612455576124546138ad565b5b0361248c576040517ff645eedf00000000000000000000000000000000000000000000000000000000815260040160405180910390fd5b600260038111156124a05761249f6138ad565b5b8260038111156124b3576124b26138ad565b5b036124f8578060001c6040517ffce698f70000000000000000000000000000000000000000000000000000000081526004016124ef9190612a75565b60405180910390fd5b60038081111561250b5761250a6138ad565b5b82600381111561251e5761251d6138ad565b5b0361256057806040517fd78bce0c0000000000000000000000000000000000000000000000000000000081526004016125579190612caa565b60405180910390fd5b5b5050565b61257083838361267f565b600073ffffffffffffffffffffffffffffffffffffffff168373ffffffffffffffffffffffffffffffffffffffff16036126065760006125ae610881565b905060006125ba6107d1565b9050818111156126035780826040517f9e79f8540000000000000000000000000000000000000000000000000000000081526004016125fa9291906135d0565b60405180910390fd5b50505b505050565b6060600061261883612697565b90506000602067ffffffffffffffff811115612637576126366136e1565b5b6040519080825280601f01601f1916602001820160405280156126695781602001600182028036833780820191505090505b5090508181528360208201528092505050919050565b612687611c1e565b6126928383836126e7565b505050565b60008060ff8360001c169050601f8111156126de576040517fb3512b0c00000000000000000000000000000000000000000000000000000000815260040160405180910390fd5b80915050919050565b600073ffffffffffffffffffffffffffffffffffffffff168373ffffffffffffffffffffffffffffffffffffffff160361273957806002600082825461272d9190613554565b9250508190555061280c565b60008060008573ffffffffffffffffffffffffffffffffffffffff1673ffffffffffffffffffffffffffffffffffffffff168152602001908152602001600020549050818110156127c5578381836040517fe450d38c0000000000000000000000000000000000000000000000000000000081526004016127bc9392919061379a565b60405180910390fd5b8181036000808673ffffffffffffffffffffffffffffffffffffffff1673ffffffffffffffffffffffffffffffffffffffff16815260200190815260200160002081905550505b600073ffffffffffffffffffffffffffffffffffffffff168273ffffffffffffffffffffffffffffffffffffffff160361285557806002600082825403925050819055506128a2565b806000808473ffffffffffffffffffffffffffffffffffffffff1673ffffffffffffffffffffffffffffffffffffffff168152602001908152602001600020600082825401925050819055505b8173ffffffffffffffffffffffffffffffffffffffff168373ffffffffffffffffffffffffffffffffffffffff167fddf252ad1be2c89b69c2b068fc378daa952ba7f163c4a11628f55a4df523b3ef836040516128ff9190612a75565b60405180910390a3505050565b600080fd5b600080fd5b60007fffffffff0000000000000000000000000000000000000000000000000000000082169050919050565b61294b81612916565b811461295657600080fd5b50565b60008135905061296881612942565b92915050565b6000602082840312156129845761298361290c565b5b600061299284828501612959565b91505092915050565b60008115159050919050565b6129b08161299b565b82525050565b60006020820190506129cb60008301846129a7565b92915050565b600073ffffffffffffffffffffffffffffffffffffffff82169050919050565b60006129fc826129d1565b9050919050565b612a0c816129f1565b8114612a1757600080fd5b50565b600081359050612a2981612a03565b92915050565b600060208284031215612a4557612a4461290c565b5b6000612a5384828501612a1a565b91505092915050565b6000819050919050565b612a6f81612a5c565b82525050565b6000602082019050612a8a6000830184612a66565b92915050565b600081519050919050565b600082825260208201905092915050565b60005b83811015612aca578082015181840152602081019050612aaf565b60008484015250505050565b6000601f19601f8301169050919050565b6000612af282612a90565b612afc8185612a9b565b9350612b0c818560208601612aac565b612b1581612ad6565b840191505092915050565b60006020820190508181036000830152612b3a8184612ae7565b905092915050565b612b4b81612a5c565b8114612b5657600080fd5b50565b600081359050612b6881612b42565b92915050565b60008060408385031215612b8557612b8461290c565b5b6000612b9385828601612a1a565b9250506020612ba485828601612b59565b9150509250929050565b6000606082019050612bc36000830186612a66565b612bd06020830185612a66565b612bdd6040830184612a66565b949350505050565b600080600060608486031215612bfe57612bfd61290c565b5b6000612c0c86828701612a1a565b9350506020612c1d86828701612a1a565b9250506040612c2e86828701612b59565b9150509250925092565b6000819050919050565b612c4b81612c38565b8114612c5657600080fd5b50565b600081359050612c6881612c42565b92915050565b600060208284031215612c8457612c8361290c565b5b6000612c9284828501612c59565b91505092915050565b612ca481612c38565b82525050565b6000602082019050612cbf6000830184612c9b565b92915050565b60008060408385031215612cdc57612cdb61290c565b5b6000612cea85828601612c59565b9250506020612cfb85828601612a1a565b9150509250929050565b600060ff82169050919050565b612d1b81612d05565b82525050565b6000602082019050612d366000830184612d12565b92915050565b600080fd5b600080fd5b600080fd5b60008083601f840112612d6157612d60612d3c565b5b8235905067ffffffffffffffff811115612d7e57612d7d612d41565b5b602083019150836020820283011115612d9a57612d99612d46565b5b9250929050565b60008083601f840112612db757612db6612d3c565b5b8235905067ffffffffffffffff811115612dd457612dd3612d41565b5b602083019150836020820283011115612df057612def612d46565b5b9250929050565b60008060008060408587031215612e1157612e1061290c565b5b600085013567ffffffffffffffff811115612e2f57612e2e612911565b5b612e3b87828801612d4b565b9450945050602085013567ffffffffffffffff811115612e5e57612e5d612911565b5b612e6a87828801612da1565b925092505092959194509250565b60008083601f840112612e8e57612e8d612d3c565b5b8235905067ffffffffffffffff811115612eab57612eaa612d41565b5b602083019150836001820283011115612ec757612ec6612d46565b5b9250929050565b600080600080600060808688031215612eea57612ee961290c565b5b6000612ef888828901612a1a565b9550506020612f0988828901612b59565b9450506040612f1a88828901612b59565b935050606086013567ffffffffffffffff811115612f3b57612f3a612911565b5b612f4788828901612e78565b92509250509295509295909350565b60007fff0000000000000000000000000000000000000000000000000000000000000082169050919050565b612f8b81612f56565b82525050565b612f9a816129f1565b82525050565b600081519050919050565b600082825260208201905092915050565b6000819050602082019050919050565b612fd581612a5c565b82525050565b6000612fe78383612fcc565b60208301905092915050565b6000602082019050919050565b600061300b82612fa0565b6130158185612fab565b935061302083612fbc565b8060005b838110156130515781516130388882612fdb565b975061304383612ff3565b925050600181019050613024565b5085935050505092915050565b600060e082019050613073600083018a612f82565b81810360208301526130858189612ae7565b905081810360408301526130998188612ae7565b90506130a86060830187612a66565b6130b56080830186612f91565b6130c260a0830185612c9b565b81810360c08301526130d48184613000565b905098975050505050505050565b60006040820190506130f760008301856129a7565b81810360208301526131098184612ae7565b90509392505050565b61311b81612d05565b811461312657600080fd5b50565b60008135905061313881613112565b92915050565b600080600080600080600060e0888a03121561315d5761315c61290c565b5b600061316b8a828b01612a1a565b975050602061317c8a828b01612a1a565b965050604061318d8a828b01612b59565b955050606061319e8a828b01612b59565b94505060806131af8a828b01613129565b93505060a06131c08a828b01612c59565b92505060c06131d18a828b01612c59565b91505092959891949750929550565b600080604083850312156131f7576131f661290c565b5b600061320585828601612a1a565b925050602061321685828601612a1a565b9150509250929050565b7f4e487b7100000000000000000000000000000000000000000000000000000000600052602260045260246000fd5b6000600282049050600182168061326757607f821691505b60208210810361327a57613279613220565b5b50919050565b7f4e487b7100000000000000000000000000000000000000000000000000000000600052601160045260246000fd5b60006132ba82612a5c565b91506132c583612a5c565b92508282039050818111156132dd576132dc613280565b5b92915050565b7f4d696e74696e6720686173206265656e207065726d616e656e746c792072657660008201527f6f6b656400000000000000000000000000000000000000000000000000000000602082015250565b600061333f602483612a9b565b915061334a826132e3565b604082019050919050565b6000602082019050818103600083015261336e81613332565b9050919050565b7f43616e6e6f74206d696e7420746f207a65726f20616464726573730000000000600082015250565b60006133ab601b83612a9b565b91506133b682613375565b602082019050919050565b600060208201905081810360008301526133da8161339e565b9050919050565b7f416d6f756e74206d7573742062652067726561746572207468616e2030000000600082015250565b6000613417601d83612a9b565b9150613422826133e1565b602082019050919050565b600060208201905081810360008301526134468161340a565b9050919050565b7f417272617973206c656e677468206d69736d6174636800000000000000000000600082015250565b6000613483601683612a9b565b915061348e8261344d565b602082019050919050565b600060208201905081810360008301526134b281613476565b9050919050565b7f4e6f20726563697069656e74732070726f766964656400000000000000000000600082015250565b60006134ef601683612a9b565b91506134fa826134b9565b602082019050919050565b6000602082019050818103600083015261351e816134e2565b9050919050565b7f4e487b7100000000000000000000000000000000000000000000000000000000600052603260045260246000fd5b600061355f82612a5c565b915061356a83612a5c565b925082820190508082111561358257613581613280565b5b92915050565b600061359382612a5c565b91507fffffffffffffffffffffffffffffffffffffffffffffffffffffffffffffffff82036135c5576135c4613280565b5b600182019050919050565b60006040820190506135e56000830185612a66565b6135f26020830184612a66565b9392505050565b7f496e76616c696420757365722061646472657373000000000000000000000000600082015250565b600061362f601483612a9b565b915061363a826135f9565b602082019050919050565b6000602082019050818103600083015261365e81613622565b9050919050565b82818337600083830152505050565b60006136808385612a9b565b935061368d838584613665565b61369683612ad6565b840190509392505050565b60006060820190506136b66000830187612a66565b6136c36020830186612a66565b81810360408301526136d6818486613674565b905095945050505050565b7f4e487b7100000000000000000000000000000000000000000000000000000000600052604160045260246000fd5b600060c0820190506137256000830189612c9b565b6137326020830188612f91565b61373f6040830187612f91565b61374c6060830186612a66565b6137596080830185612a66565b61376660a0830184612a66565b979650505050505050565b60006040820190506137866000830185612f91565b6137936020830184612f91565b9392505050565b60006060820190506137af6000830186612f91565b6137bc6020830185612a66565b6137c96040830184612a66565b949350505050565b60006020820190506137e66000830184612f91565b92915050565b60006040820190506138016000830185612f91565b61380e6020830184612c9b565b9392505050565b600060a08201905061382a6000830188612c9b565b6138376020830187612c9b565b6138446040830186612c9b565b6138516060830185612a66565b61385e6080830184612f91565b9695505050505050565b600060808201905061387d6000830187612c9b565b61388a6020830186612d12565b6138976040830185612c9b565b6138a46060830184612c9b565b95945050505050565b7f4e487b7100000000000000000000000000000000000000000000000000000000600052602160045260246000fdfea264697066735822122085acec5056003c57c415346decd5630c3dd65ab204545f09706d61df472d6aae64736f6c63430008140033",
  "linkReferences": {},
  "deployedLinkReferences": {}
}