{
  "_format": "hh-sol-artifact-1",
  "contractName": "CodeEpochDistributor",
  "sourceName": "contracts/CodeEpochDistributor.sol",
  "abi": [
    {
      "inputs": [
        {
          "internalType": "address",
          "name": "_codeToken",
          "type": "address"
        }
      ],
      "stateMutability": "nonpayable",
      "type": "constructor"
    },
    {
      "anonymous": false,
      "inputs": [
        {
          "indexed": true,
          "internalType": "uint256",
          "name": "epochId",
          "type": "uint256"
        },
        {
          "indexed": false,
          "internalType": "bytes32",
          "name": "merkleRoot",
          "type": "bytes32"
        },
        {
          "indexed": false,
          "internalType": "uint256",
          "name": "totalRewards",
          "type": "uint256"
        }
      ],
      "name": "EpochFinalized",
      "type": "event"
    },
    {
      "anonymous": false,
      "inputs": [
        {
          "indexed": true,
          "internalType": "uint256",
          "name": "epochId",
          "type": "uint256"
        },
        {
          "indexed": false,
          "internalType": "uint256",
          "name": "startTime",
          "type": "uint256"
        }
      ],
      "name": "EpochStarted",
      "type": "event"
    },
    {
      "anonymous": false,
      "inputs": [
        {
          "indexed": true,
          "internalType": "uint256",
          "name": "epochId",
          "type": "uint256"
        },
        {
          "indexed": true,
          "internalType": "address",
          "name": "user",
          "type": "address"
        },
        {
          "indexed": false,
          "internalType": "uint256",
          "name": "amount",
          "type": "uint256"
        }
      ],
      "name": "RewardClaimed",
      "type": "event"
    },
    {
      "inputs": [],
      "name": "EPOCH_DURATION",
      "outputs": [
        {
          "internalType": "uint256",
          "name": "",
          "type": "uint256"
        }
      ],
      "stateMutability": "view",
      "type": "function"
    },
    {
      "inputs": [
        {
          "internalType": "uint256",
          "name": "epochId",
          "type": "uint256"
        },
        {
          "internalType": "uint256",
          "name": "amount",
          "type": "uint256"
        },
        {
          "internalType": "bytes32[]",
          "name": "merkleProof",
          "type": "bytes32[]"
        }
      ],
      "name": "claimRewards",
      "outputs": [],
      "stateMutability": "nonpayable",
      "type": "function"
    },
    {
      "inputs": [],
      "name": "codeToken",
      "outputs": [
        {
          "internalType": "contract CodeDAOToken",
          "name": "",
          "type": "address"
        }
      ],
      "stateMutability": "view",
      "type": "function"
    },
    {
      "inputs": [],
      "name": "currentEpoch",
      "outputs": [
        {
          "internalType": "uint256",
          "name": "",
          "type": "uint256"
        }
      ],
      "stateMutability": "view",
      "type": "function"
    },
    {
      "inputs": [
        {
          "internalType": "uint256",
          "name": "amount",
          "type": "uint256"
        }
      ],
      "name": "emergencyWithdraw",
      "outputs": [],
      "stateMutability": "nonpayable",
      "type": "function"
    },
    {
      "inputs": [
        {
          "internalType": "uint256",
          "name": "",
          "type": "uint256"
        }
      ],
      "name": "epochs",
      "outputs": [
        {
          "internalType": "bytes32",
          "name": "merkleRoot",
          "type": "bytes32"
        },
        {
          "internalType": "uint256",
          "name": "totalRewards",
          "type": "uint256"
        },
        {
          "internalType": "uint256",
          "name": "startTime",
          "type": "uint256"
        },
        {
          "internalType": "uint256",
          "name": "endTime",
          "type": "uint256"
        },
        {
          "internalType": "bool",
          "name": "finalized",
          "type": "bool"
        }
      ],
      "stateMutability": "view",
      "type": "function"
    },
    {
      "inputs": [
        {
          "internalType": "uint256",
          "name": "epochId",
          "type": "uint256"
        },
        {
          "internalType": "bytes32",
          "name": "merkleRoot",
          "type": "bytes32"
        },
        {
          "internalType": "uint256",
          "name": "totalRewards",
          "type": "uint256"
        }
      ],
      "name": "finalizeEpoch",
      "outputs": [],
      "stateMutability": "nonpayable",
      "type": "function"
    },
    {
      "inputs": [
        {
          "internalType": "uint256",
          "name": "amount",
          "type": "uint256"
        }
      ],
      "name": "fundContract",
      "outputs": [],
      "stateMutability": "nonpayable",
      "type": "function"
    },
    {
      "inputs": [
        {
          "internalType": "uint256",
          "name": "epochId",
          "type": "uint256"
        }
      ],
      "name": "getEpochInfo",
      "outputs": [
        {
          "internalType": "bytes32",
          "name": "merkleRoot",
          "type": "bytes32"
        },
        {
          "internalType": "uint256",
          "name": "totalRewards",
          "type": "uint256"
        },
        {
          "internalType": "uint256",
          "name": "startTime",
          "type": "uint256"
        },
        {
          "internalType": "uint256",
          "name": "endTime",
          "type": "uint256"
        },
        {
          "internalType": "bool",
          "name": "finalized",
          "type": "bool"
        }
      ],
      "stateMutability": "view",
      "type": "function"
    },
    {
      "inputs": [
        {
          "internalType": "uint256",
          "name": "epochId",
          "type": "uint256"
        },
        {
          "internalType": "address",
          "name": "user",
          "type": "address"
        }
      ],
      "name": "hasClaimed",
      "outputs": [
        {
          "internalType": "bool",
          "name": "",
          "type": "bool"
        }
      ],
      "stateMutability": "view",
      "type": "function"
    },
    {
      "inputs": [],
      "name": "owner",
      "outputs": [
        {
          "internalType": "address",
          "name": "",
          "type": "address"
        }
      ],
      "stateMutability": "view",
      "type": "function"
    },
    {
      "inputs": [],
      "name": "startNewEpoch",
      "outputs": [],
      "stateMutability": "nonpayable",
      "type": "function"
    },
    {
      "inputs": [
        {
          "internalType": "address",
          "name": "newOwner",
          "type": "address"
        }
      ],
      "name": "transferOwnership",
      "outputs": [],
      "stateMutability": "nonpayable",
      "type": "function"
    }
  ],
  "bytecode": "0x60a06040523480156200001157600080fd5b50604051620010a8380380620010a88339810160408190526200003491620000f5565b6001600160a01b038116608052600080546001600160a01b031916331790556200005d62000064565b5062000175565b600280546000818152600160205260409020429201829055906200008d9062093a80906200013d565b6000828152600160205260408120600301919091556002805491620000b28362000159565b9190505550807f41787f1277821474072e18df95f0bd9ed9f117003aa97732ebbd737225b32b0242604051620000ea91815260200190565b60405180910390a250565b6000602082840312156200010857600080fd5b81516001600160a01b03811681146200012057600080fd5b9392505050565b634e487b7160e01b600052601160045260246000fd5b8082018082111562000153576200015362000127565b92915050565b6000600182016200016e576200016e62000127565b5060010190565b608051610f02620001a66000396000818161021e015281816102ea0152818161050301526107820152610f026000f3fe608060405234801561001057600080fd5b50600436106100df5760003560e01c8063873f6f9e1161008c578063a70b9f0c11610066578063a70b9f0c14610240578063c6b61e4c1461024a578063caa3742214610289578063f2fde38b1461029c57600080fd5b8063873f6f9e146101b15780638da5cb5b146101d4578063904d20221461021957600080fd5b80635312ea8e116100bd5780635312ea8e1461017457806366351b9414610187578063766718081461019a57600080fd5b8063135022c2146100e45780633519a2f8146101575780633aab0a621461016c575b600080fd5b6101286100f2366004610cc3565b6000908152600160208190526040909120805491810154600282015460038301546004909301549394919390929160ff90911690565b6040805195865260208601949094529284019190915260608301521515608082015260a0015b60405180910390f35b61016a610165366004610cc3565b6102af565b005b61016a6103c1565b61016a610182366004610cc3565b61044d565b61016a610195366004610cdc565b610534565b6101a360025481565b60405190815260200161014e565b6101c46101bf366004610d88565b610879565b604051901515815260200161014e565b6000546101f49073ffffffffffffffffffffffffffffffffffffffff1681565b60405173ffffffffffffffffffffffffffffffffffffffff909116815260200161014e565b6101f47f000000000000000000000000000000000000000000000000000000000000000081565b6101a362093a8081565b610128610258366004610cc3565b6001602081905260009182526040909120805491810154600282015460038301546004909301549192909160ff1685565b61016a610297366004610db4565b6108b6565b61016a6102aa366004610de0565b610b03565b6040517f23b872dd000000000000000000000000000000000000000000000000000000008152336004820152306024820152604481018290527f000000000000000000000000000000000000000000000000000000000000000073ffffffffffffffffffffffffffffffffffffffff16906323b872dd906064015b6020604051808303816000875af1158015610349573d6000803e3d6000fd5b505050506040513d601f19601f8201168201806040525081019061036d9190610e02565b6103be5760405162461bcd60e51b815260206004820152600f60248201527f5472616e73666572206661696c6564000000000000000000000000000000000060448201526064015b60405180910390fd5b50565b600280546000818152600160205260409020429201829055906103e89062093a8090610e53565b600082815260016020526040812060030191909155600280549161040b83610e66565b9190505550807f41787f1277821474072e18df95f0bd9ed9f117003aa97732ebbd737225b32b024260405161044291815260200190565b60405180910390a250565b60005473ffffffffffffffffffffffffffffffffffffffff1633146104b45760405162461bcd60e51b815260206004820152600960248201527f4e6f74206f776e6572000000000000000000000000000000000000000000000060448201526064016103b5565b6000546040517fa9059cbb00000000000000000000000000000000000000000000000000000000815273ffffffffffffffffffffffffffffffffffffffff9182166004820152602481018390527f00000000000000000000000000000000000000000000000000000000000000009091169063a9059cbb9060440161032a565b60008481526001602052604090206004015460ff166105955760405162461bcd60e51b815260206004820152601360248201527f45706f6368206e6f742066696e616c697a65640000000000000000000000000060448201526064016103b5565b600084815260016020908152604080832033845260050190915290205460ff16156106025760405162461bcd60e51b815260206004820152600f60248201527f416c726561647920636c61696d6564000000000000000000000000000000000060448201526064016103b5565b6040517fffffffffffffffffffffffffffffffffffffffff0000000000000000000000003360601b166020820152603481018490526000906054016040516020818303038152906040528051906020012090506106a083838080602002602001604051908101604052809392919081815260200183836020028082843760009201829052508a8152600160205260409020549250859150610c149050565b6106ec5760405162461bcd60e51b815260206004820152600d60248201527f496e76616c69642070726f6f660000000000000000000000000000000000000060448201526064016103b5565b60008581526001602081815260408084203380865260059091019092529283902080547fffffffffffffffffffffffffffffffffffffffffffffffffffffffffffffff001690921790915590517fa9059cbb00000000000000000000000000000000000000000000000000000000815260048101919091526024810185905273ffffffffffffffffffffffffffffffffffffffff7f0000000000000000000000000000000000000000000000000000000000000000169063a9059cbb906044016020604051808303816000875af11580156107cb573d6000803e3d6000fd5b505050506040513d601f19601f820116820180604052508101906107ef9190610e02565b61083b5760405162461bcd60e51b815260206004820152600f60248201527f5472616e73666572206661696c6564000000000000000000000000000000000060448201526064016103b5565b604051848152339086907f24b5efa61dd1cfc659205a97fb8ed868f3cb8c81922bab2b96423e5de1de2cb79060200160405180910390a35050505050565b600082815260016020908152604080832073ffffffffffffffffffffffffffffffffffffffff8516845260050190915290205460ff165b92915050565b60005473ffffffffffffffffffffffffffffffffffffffff16331461091d5760405162461bcd60e51b815260206004820152600960248201527f4e6f74206f776e6572000000000000000000000000000000000000000000000060448201526064016103b5565b600254831061096e5760405162461bcd60e51b815260206004820152601160248201527f45706f6368206e6f74207374617274656400000000000000000000000000000060448201526064016103b5565b60008381526001602052604090206004015460ff16156109d05760405162461bcd60e51b815260206004820152601160248201527f416c72656164792066696e616c697a656400000000000000000000000000000060448201526064016103b5565b600083815260016020526040902060030154421015610a315760405162461bcd60e51b815260206004820152600f60248201527f45706f6368206e6f7420656e646564000000000000000000000000000000000060448201526064016103b5565b81610a7e5760405162461bcd60e51b815260206004820152601360248201527f496e76616c6964206d65726b6c6520726f6f740000000000000000000000000060448201526064016103b5565b60008381526001602081815260409283902085815580830185905560040180547fffffffffffffffffffffffffffffffffffffffffffffffffffffffffffffff0016909217909155815184815290810183905284917ff909e39b2115dc779ed6294b0ed21433dc4aafba6e247f652ec203f261dd5237910160405180910390a2505050565b60005473ffffffffffffffffffffffffffffffffffffffff163314610b6a5760405162461bcd60e51b815260206004820152600960248201527f4e6f74206f776e6572000000000000000000000000000000000000000000000060448201526064016103b5565b73ffffffffffffffffffffffffffffffffffffffff8116610bcd5760405162461bcd60e51b815260206004820152600f60248201527f496e76616c69642061646472657373000000000000000000000000000000000060448201526064016103b5565b600080547fffffffffffffffffffffffff00000000000000000000000000000000000000001673ffffffffffffffffffffffffffffffffffffffff92909216919091179055565b600081815b8551811015610cb8576000868281518110610c3657610c36610e9e565b60200260200101519050808311610c78576040805160208101859052908101829052606001604051602081830303815290604052805190602001209250610ca5565b60408051602081018390529081018490526060016040516020818303038152906040528051906020012092505b5080610cb081610e66565b915050610c19565b509092149392505050565b600060208284031215610cd557600080fd5b5035919050565b60008060008060608587031215610cf257600080fd5b8435935060208501359250604085013567ffffffffffffffff80821115610d1857600080fd5b818701915087601f830112610d2c57600080fd5b813581811115610d3b57600080fd5b8860208260051b8501011115610d5057600080fd5b95989497505060200194505050565b803573ffffffffffffffffffffffffffffffffffffffff81168114610d8357600080fd5b919050565b60008060408385031215610d9b57600080fd5b82359150610dab60208401610d5f565b90509250929050565b600080600060608486031215610dc957600080fd5b505081359360208301359350604090920135919050565b600060208284031215610df257600080fd5b610dfb82610d5f565b9392505050565b600060208284031215610e1457600080fd5b81518015158114610dfb57600080fd5b7f4e487b7100000000000000000000000000000000000000000000000000000000600052601160045260246000fd5b808201808211156108b0576108b0610e24565b60007fffffffffffffffffffffffffffffffffffffffffffffffffffffffffffffffff8203610e9757610e97610e24565b5060010190565b7f4e487b7100000000000000000000000000000000000000000000000000000000600052603260045260246000fdfea265627a7a72315820f7bc432974948bc73522a5008d0960567247e78592ff8976f07ca2576ab4920764736f6c63430008140032",
  "linkReferences": {},
  "deployedLinkReferences": {}
}