{
  "_format": "hh-sol-artifact-1",
  "contractName": "MerkleDistributor",
  "sourceName": "contracts/MerkleDistributor.sol",
  "abi": [
    {
      "inputs": [
        {
          "internalType": "address",
          "name": "_token",
          "type": "address"
        },
        {
          "internalType": "bytes32",
          "name": "_merkleRoot",
          "type": "bytes32"
        },
        {
          "internalType": "string",
          "name": "_description",
          "type": "string"
        },
        {
          "internalType": "uint256",
          "name": "_expiry",
          "type": "uint256"
        },
        {
          "internalType": "address",
          "name": "_admin",
          "type": "address"
        }
      ],
      "stateMutability": "nonpayable",
      "type": "constructor"
    },
    {
      "anonymous": false,
      "inputs": [
        {
          "indexed": false,
          "internalType": "uint256",
          "name": "index",
          "type": "uint256"
        },
        {
          "indexed": false,
          "internalType": "address",
          "name": "account",
          "type": "address"
        },
        {
          "indexed": false,
          "internalType": "uint256",
          "name": "amount",
          "type": "uint256"
        }
      ],
      "name": "Claimed",
      "type": "event"
    },
    {
      "anonymous": false,
      "inputs": [
        {
          "indexed": false,
          "internalType": "address",
          "name": "admin",
          "type": "address"
        },
        {
          "indexed": false,
          "internalType": "uint256",
          "name": "amount",
          "type": "uint256"
        }
      ],
      "name": "EmergencyWithdraw",
      "type": "event"
    },
    {
      "inputs": [],
      "name": "admin",
      "outputs": [
        {
          "internalType": "address",
          "name": "",
          "type": "address"
        }
      ],
      "stateMutability": "view",
      "type": "function"
    },
    {
      "inputs": [
        {
          "internalType": "uint256",
          "name": "index",
          "type": "uint256"
        },
        {
          "internalType": "address",
          "name": "account",
          "type": "address"
        },
        {
          "internalType": "uint256",
          "name": "amount",
          "type": "uint256"
        },
        {
          "internalType": "bytes32[]",
          "name": "merkleProof",
          "type": "bytes32[]"
        }
      ],
      "name": "claim",
      "outputs": [],
      "stateMutability": "nonpayable",
      "type": "function"
    },
    {
      "inputs": [
        {
          "internalType": "uint256[]",
          "name": "indices",
          "type": "uint256[]"
        },
        {
          "internalType": "address[]",
          "name": "accounts",
          "type": "address[]"
        },
        {
          "internalType": "uint256[]",
          "name": "amounts",
          "type": "uint256[]"
        },
        {
          "internalType": "bytes32[][]",
          "name": "merkleProofs",
          "type": "bytes32[][]"
        }
      ],
      "name": "claimMultiple",
      "outputs": [],
      "stateMutability": "nonpayable",
      "type": "function"
    },
    {
      "inputs": [],
      "name": "description",
      "outputs": [
        {
          "internalType": "string",
          "name": "",
          "type": "string"
        }
      ],
      "stateMutability": "view",
      "type": "function"
    },
    {
      "inputs": [],
      "name": "emergencyWithdraw",
      "outputs": [],
      "stateMutability": "nonpayable",
      "type": "function"
    },
    {
      "inputs": [],
      "name": "expiry",
      "outputs": [
        {
          "internalType": "uint256",
          "name": "",
          "type": "uint256"
        }
      ],
      "stateMutability": "view",
      "type": "function"
    },
    {
      "inputs": [],
      "name": "getInfo",
      "outputs": [
        {
          "internalType": "address",
          "name": "tokenAddress",
          "type": "address"
        },
        {
          "internalType": "bytes32",
          "name": "root",
          "type": "bytes32"
        },
        {
          "internalType": "string",
          "name": "desc",
          "type": "string"
        },
        {
          "internalType": "uint256",
          "name": "expiryTime",
          "type": "uint256"
        },
        {
          "internalType": "uint256",
          "name": "remainingBalance",
          "type": "uint256"
        },
        {
          "internalType": "bool",
          "name": "isExpired",
          "type": "bool"
        }
      ],
      "stateMutability": "view",
      "type": "function"
    },
    {
      "inputs": [
        {
          "internalType": "uint256",
          "name": "index",
          "type": "uint256"
        }
      ],
      "name": "isClaimed",
      "outputs": [
        {
          "internalType": "bool",
          "name": "",
          "type": "bool"
        }
      ],
      "stateMutability": "view",
      "type": "function"
    },
    {
      "inputs": [],
      "name": "merkleRoot",
      "outputs": [
        {
          "internalType": "bytes32",
          "name": "",
          "type": "bytes32"
        }
      ],
      "stateMutability": "view",
      "type": "function"
    },
    {
      "inputs": [],
      "name": "token",
      "outputs": [
        {
          "internalType": "contract CodeDAOToken",
          "name": "",
          "type": "address"
        }
      ],
      "stateMutability": "view",
      "type": "function"
    }
  ],
  "bytecode": "0x6101006040523480156200001257600080fd5b5060405162001985380380620019858339810160408190526200003591620000a5565b6001600160a01b03851660805260a0849052600062000055848262000243565b5060c0919091526001600160a01b031660e052506200030f915050565b80516001600160a01b03811681146200008a57600080fd5b919050565b634e487b7160e01b600052604160045260246000fd5b600080600080600060a08688031215620000be57600080fd5b620000c98662000072565b60208781015160408901519297509550906001600160401b0380821115620000f057600080fd5b818901915089601f8301126200010557600080fd5b8151818111156200011a576200011a6200008f565b604051601f8201601f19908116603f011681019083821181831017156200014557620001456200008f565b816040528281528c868487010111156200015e57600080fd5b600093505b8284101562000182578484018601518185018701529285019262000163565b600086848301015280985050505050505060608601519150620001a86080870162000072565b90509295509295909350565b600181811c90821680620001c957607f821691505b602082108103620001ea57634e487b7160e01b600052602260045260246000fd5b50919050565b601f8211156200023e57600081815260208120601f850160051c81016020861015620002195750805b601f850160051c820191505b818110156200023a5782815560010162000225565b5050505b505050565b81516001600160401b038111156200025f576200025f6200008f565b6200027781620002708454620001b4565b84620001f0565b602080601f831160018114620002af5760008415620002965750858301515b600019600386901b1c1916600185901b1785556200023a565b600085815260208120601f198616915b82811015620002e057888601518255948401946001909101908401620002bf565b5085821015620002ff5787850151600019600388901b60f8161c191681555b5050505050600190811b01905550565b60805160a05160c05160e0516115c6620003bf600039600081816101ab01528181610ca901528181610ea70152610fc90152600081816101840152818161021b0152818161063801528181610a2a01528181610b010152610d3201526000818160f001528181610462015281816107c30152610a070152600081816101f7015281816104e7015281816108a9015281816109e601528181610a4b01528181610dea0152610ed901526115c66000f3fe608060405234801561001057600080fd5b50600436106100be5760003560e01c80639e34070f11610076578063e184c9be1161005b578063e184c9be1461017f578063f851a440146101a6578063fc0c546a146101f257600080fd5b80639e34070f14610154578063db2e21bc1461017757600080fd5b80632eb4a7ab116100a75780632eb4a7ab146100eb5780635a9b0b89146101255780637284e4161461013f57600080fd5b80632cf27b2b146100c35780632e7ba6ef146100d8575b600080fd5b6100d66100d136600461115a565b610219565b005b6100d66100e6366004611247565b610636565b6101127f000000000000000000000000000000000000000000000000000000000000000081565b6040519081526020015b60405180910390f35b61012d6109da565b60405161011c96959493929190611313565b610147610bc2565b60405161011c9190611368565b610167610162366004611382565b610c50565b604051901515815260200161011c565b6100d6610c91565b6101127f000000000000000000000000000000000000000000000000000000000000000081565b6101cd7f000000000000000000000000000000000000000000000000000000000000000081565b60405173ffffffffffffffffffffffffffffffffffffffff909116815260200161011c565b6101cd7f000000000000000000000000000000000000000000000000000000000000000081565b7f00000000000000000000000000000000000000000000000000000000000000004211156102a8576040517f08c379a000000000000000000000000000000000000000000000000000000000815260206004820152601460248201527f436c61696d20706572696f64206578706972656400000000000000000000000060448201526064015b60405180910390fd5b86851480156102b657508483145b80156102c157508281145b610327576040517f08c379a000000000000000000000000000000000000000000000000000000000815260206004820152601560248201527f4172726179206c656e677468206d69736d617463680000000000000000000000604482015260640161029f565b60005b8781101561062b5760008989838181106103465761034661139b565b90506020020135905060008888848181106103635761036361139b565b905060200201602081019061037891906113ca565b9050600087878581811061038e5761038e61139b565b9050602002013590503660008787878181106103ac576103ac61139b565b90506020028101906103be91906113e5565b915091506103cb85610c50565b6106135760408051602081018790527fffffffffffffffffffffffffffffffffffffffff000000000000000000000000606087901b16918101919091526054810184905260009060740160405160208183030381529060405280519060200120905061048d8383808060200260200160405190810160405280939291908181526020018383602002808284376000920191909152507f000000000000000000000000000000000000000000000000000000000000000092508591506110209050565b156106115761049b866110cf565b6040517fa9059cbb00000000000000000000000000000000000000000000000000000000815273ffffffffffffffffffffffffffffffffffffffff8681166004830152602482018690527f0000000000000000000000000000000000000000000000000000000000000000169063a9059cbb906044016020604051808303816000875af1158015610530573d6000803e3d6000fd5b505050506040513d601f19601f82011682018060405250810190610554919061144d565b6105ba576040517f08c379a000000000000000000000000000000000000000000000000000000000815260206004820152600f60248201527f5472616e73666572206661696c65640000000000000000000000000000000000604482015260640161029f565b6040805187815273ffffffffffffffffffffffffffffffffffffffff871660208201529081018590527f4ec90e965519d92681267467f775ada5bd214aa92c0dc93d90a5e880ce9ed0269060600160405180910390a15b505b505050505080806106239061146f565b91505061032a565b505050505050505050565b7f00000000000000000000000000000000000000000000000000000000000000004211156106c0576040517f08c379a000000000000000000000000000000000000000000000000000000000815260206004820152601460248201527f436c61696d20706572696f642065787069726564000000000000000000000000604482015260640161029f565b6106c985610c50565b15610730576040517f08c379a000000000000000000000000000000000000000000000000000000000815260206004820152600f60248201527f416c726561647920636c61696d65640000000000000000000000000000000000604482015260640161029f565b60408051602081018790527fffffffffffffffffffffffffffffffffffffffff000000000000000000000000606087901b1691810191909152605481018490526000906074016040516020818303038152906040528051906020012090506107ee8383808060200260200160405190810160405280939291908181526020018383602002808284376000920191909152507f000000000000000000000000000000000000000000000000000000000000000092508591506110209050565b610854576040517f08c379a000000000000000000000000000000000000000000000000000000000815260206004820152600d60248201527f496e76616c69642070726f6f6600000000000000000000000000000000000000604482015260640161029f565b61085d866110cf565b6040517fa9059cbb00000000000000000000000000000000000000000000000000000000815273ffffffffffffffffffffffffffffffffffffffff8681166004830152602482018690527f0000000000000000000000000000000000000000000000000000000000000000169063a9059cbb906044016020604051808303816000875af11580156108f2573d6000803e3d6000fd5b505050506040513d601f19601f82011682018060405250810190610916919061144d565b61097c576040517f08c379a000000000000000000000000000000000000000000000000000000000815260206004820152600f60248201527f5472616e73666572206661696c65640000000000000000000000000000000000604482015260640161029f565b6040805187815273ffffffffffffffffffffffffffffffffffffffff871660208201529081018590527f4ec90e965519d92681267467f775ada5bd214aa92c0dc93d90a5e880ce9ed0269060600160405180910390a1505050505050565b600080606060008060007f00000000000000000000000000000000000000000000000000000000000000007f000000000000000000000000000000000000000000000000000000000000000060007f00000000000000000000000000000000000000000000000000000000000000007f000000000000000000000000000000000000000000000000000000000000000073ffffffffffffffffffffffffffffffffffffffff166370a08231306040518263ffffffff1660e01b8152600401610abe919073ffffffffffffffffffffffffffffffffffffffff91909116815260200190565b602060405180830381865afa158015610adb573d6000803e3d6000fd5b505050506040513d601f19601f82011682018060405250810190610aff91906114ce565b7f00000000000000000000000000000000000000000000000000000000000000004211838054610b2e906114e7565b80601f0160208091040260200160405190810160405280929190818152602001828054610b5a906114e7565b8015610ba75780601f10610b7c57610100808354040283529160200191610ba7565b820191906000526020600020905b815481529060010190602001808311610b8a57829003601f168201915b50505050509350955095509550955095509550909192939495565b60008054610bcf906114e7565b80601f0160208091040260200160405190810160405280929190818152602001828054610bfb906114e7565b8015610c485780601f10610c1d57610100808354040283529160200191610c48565b820191906000526020600020905b815481529060010190602001808311610c2b57829003601f168201915b505050505081565b600080610c5f61010084611569565b90506000610c6f6101008561157d565b60009283526001602081905260409093205492901b9182169091149392505050565b3373ffffffffffffffffffffffffffffffffffffffff7f00000000000000000000000000000000000000000000000000000000000000001614610d30576040517f08c379a000000000000000000000000000000000000000000000000000000000815260206004820152600a60248201527f4f6e6c792061646d696e00000000000000000000000000000000000000000000604482015260640161029f565b7f00000000000000000000000000000000000000000000000000000000000000004211610db9576040517f08c379a000000000000000000000000000000000000000000000000000000000815260206004820152601860248201527f436c61696d20706572696f64206e6f7420657870697265640000000000000000604482015260640161029f565b6040517f70a082310000000000000000000000000000000000000000000000000000000081523060048201526000907f000000000000000000000000000000000000000000000000000000000000000073ffffffffffffffffffffffffffffffffffffffff16906370a0823190602401602060405180830381865afa158015610e46573d6000803e3d6000fd5b505050506040513d601f19601f82011682018060405250810190610e6a91906114ce565b6040517fa9059cbb00000000000000000000000000000000000000000000000000000000815273ffffffffffffffffffffffffffffffffffffffff7f000000000000000000000000000000000000000000000000000000000000000081166004830152602482018390529192507f00000000000000000000000000000000000000000000000000000000000000009091169063a9059cbb906044016020604051808303816000875af1158015610f24573d6000803e3d6000fd5b505050506040513d601f19601f82011682018060405250810190610f48919061144d565b610fae576040517f08c379a000000000000000000000000000000000000000000000000000000000815260206004820152600f60248201527f5472616e73666572206661696c65640000000000000000000000000000000000604482015260640161029f565b6040805173ffffffffffffffffffffffffffffffffffffffff7f0000000000000000000000000000000000000000000000000000000000000000168152602081018390527f5fafa99d0643513820be26656b45130b01e1c03062e1266bf36f88cbd3bd9695910160405180910390a150565b600081815b85518110156110c45760008682815181106110425761104261139b565b602002602001015190508083116110845760408051602081018590529081018290526060016040516020818303038152906040528051906020012092506110b1565b60408051602081018390529081018490526060016040516020818303038152906040528051906020012092505b50806110bc8161146f565b915050611025565b509092149392505050565b60006110dd61010083611569565b905060006110ed6101008461157d565b600092835260016020819052604090932080549390911b9092179091555050565b60008083601f84011261112057600080fd5b50813567ffffffffffffffff81111561113857600080fd5b6020830191508360208260051b850101111561115357600080fd5b9250929050565b6000806000806000806000806080898b03121561117657600080fd5b883567ffffffffffffffff8082111561118e57600080fd5b61119a8c838d0161110e565b909a50985060208b01359150808211156111b357600080fd5b6111bf8c838d0161110e565b909850965060408b01359150808211156111d857600080fd5b6111e48c838d0161110e565b909650945060608b01359150808211156111fd57600080fd5b5061120a8b828c0161110e565b999c989b5096995094979396929594505050565b803573ffffffffffffffffffffffffffffffffffffffff8116811461124257600080fd5b919050565b60008060008060006080868803121561125f57600080fd5b8535945061126f6020870161121e565b935060408601359250606086013567ffffffffffffffff81111561129257600080fd5b61129e8882890161110e565b969995985093965092949392505050565b6000815180845260005b818110156112d5576020818501810151868301820152016112b9565b5060006020828601015260207fffffffffffffffffffffffffffffffffffffffffffffffffffffffffffffffe0601f83011685010191505092915050565b73ffffffffffffffffffffffffffffffffffffffff8716815285602082015260c06040820152600061134860c08301876112af565b6060830195909552506080810192909252151560a0909101529392505050565b60208152600061137b60208301846112af565b9392505050565b60006020828403121561139457600080fd5b5035919050565b7f4e487b7100000000000000000000000000000000000000000000000000000000600052603260045260246000fd5b6000602082840312156113dc57600080fd5b61137b8261121e565b60008083357fffffffffffffffffffffffffffffffffffffffffffffffffffffffffffffffe184360301811261141a57600080fd5b83018035915067ffffffffffffffff82111561143557600080fd5b6020019150600581901b360382131561115357600080fd5b60006020828403121561145f57600080fd5b8151801515811461137b57600080fd5b60007fffffffffffffffffffffffffffffffffffffffffffffffffffffffffffffffff82036114c7577f4e487b7100000000000000000000000000000000000000000000000000000000600052601160045260246000fd5b5060010190565b6000602082840312156114e057600080fd5b5051919050565b600181811c908216806114fb57607f821691505b602082108103611534577f4e487b7100000000000000000000000000000000000000000000000000000000600052602260045260246000fd5b50919050565b7f4e487b7100000000000000000000000000000000000000000000000000000000600052601260045260246000fd5b6000826115785761157861153a565b500490565b60008261158c5761158c61153a565b50069056fea265627a7a723158207ccd8932907fc7e085e1869842832d4dce320f4d16379c61142a7f8c0411c40364736f6c63430008140032",
  "linkReferences": {},
  "deployedLinkReferences": {}
}